:020000040800F2
:1060000008140020F111010801D3050807C3050891
:1060100001D3050801D3050801D3050801D30508FC
:1060200001D3050801D3050801D3050801D30508EC
:1060300001D3050820DD07080973010801D305080D
:1060400001D3050801D3050801D3050801D30508CC
:1060500001D3050801D3050801D3050801D30508BC
:1060600001D3050801D3050801D305083DDA00086E
:10607000BBC3050801D3050801D3050801D30508F2
:1060800001D3050801D3050801D3050801D305088C
:1060900001D3050801D305088923010801D30508A8
:1060A00001D3050801D30508951F0108751F0108D4
:1060B00001D3050801D30508E9D20208E1DD020891
:1060C000275906082359060859D502083D590608DC
:1060D0002B590608B1DD02082F59060821DE0208F7
:1060E0000DDF020801D3050801D3050801D3050817
:1060F00001D3050801D3050801D3050801D305081C
:1061000001D3050801D3050801D3050801D305080B
:1061100001D3050801D3050801D3050801D30508FB
:1061200001D3050801D3050801D3050801D30508EB
:1061300001D3050801D3050801D3050801D30508DB
:1061400001D3050801D3050801D30508E97D01083D
:1061500001D3050801D30508836A070835B602088C
:1061600001D3050801D30508175906081D5906086B
:0C61700001D3050801D3050801D3050880
:10617C00F0B5114A114C124E00F00105E3695F07AE
:10618C0013D40DB9334213D103EA00078F4207D160
:10619C000B4A1A40002A0CBF00206FF00100F0BD22
:1061AC00013AEBD16FF00200F9E74FF0FF30F6E760
:1061BC006FF00100F3E700BF8096980000000350D9
:1061CC000200010070B50B4BD96911F480310DD16F
:1061DC0001244FF48072084E084DF46020462C6464
:1061EC001A61FFF7C5FF3464EC6070BD6FF00100FD
:1061FC00FBE700BF000003500010035000200350C9
:10620C0070B5C0F30C03054623B140F21A211148B6
:10621C0000F0A2F84FF480320F4B104C9A66E669EE
:10622C0041F6713316400122E3630D4B0021DA6015
:10623C000223656121202361FFF79AFF10B9212009
:10624C00FFF796FF0122074BDA600EB10023E363E0
:10625C0070BD00BFE7DF070800900050000003503E
:10626C00001003500020035070B5134C6061E369BB
:10627C005B071ED40E4656F8043B8D18A361AE4244
:10628C000BD10423002121202361FFF771FF58B9A2
:10629C00BDE870402120FFF76BBF08210846FFF7CF
:1062AC0067FF10B10423236170BD56F8043BA36152
:1062BC00E5E74FF0FF30F7E7000003502DE9F84316
:1062CC00154682070F46064604D040F266211E484A
:1062DC0000F042F8AB0704D04FF41A711A4800F0E2
:1062EC003BF84FF48032194BDFF868909A6603F54F
:1062FC001C33DA6902F4803841F67132DA63012218
:10630C0003F58053DA6065B928460122104BDA6038
:10631C00B8F1000F03D00022A3F50053DA63BDE8F7
:10632C00F88306F5005404EA0904A41BAC4228BF08
:10633C002C46394622463046FFF796FF0028E4D11A
:10634C00264427442D1BDEE7E7DF070800900050AA
:10635C000020035000E0FFFF5FF800F0BDD70008FD
:106370002DE9F04100231546C2E900014FF47A727D
:1063800080460F4654F09AFF18A3D3E90023044631
:106390000E464046394654F091FF134B80B2288197
:1063A0005843241A66F100064FF461620023204628
:1063B000314654F083FF4FF46163C0B2A872584372
:1063C000241A20464FF03C024FF0000366F1000112
:1063D00054F074FFC0B2E872C0EB0010A4EB80046C
:1063E0002C73BDE8F08100BF80510100005C2605E0
:1063F00000000000000000002DE9F843161E814651
:106400000D461F460ADBF31731186B414FF00002AF
:1064100028BF01224AB12120BDE8F88330466DF043
:10642000EDFCC3174845AB41F5D23D4B4B454FF012
:106430004903AB41EFD316EB090945EBE675294655
:106440003C220023484654F039FF00233A703C2296
:1064500054F034FF00237A70182254F02FFF0446C2
:106460000130BA7088464FF0070241F10001002365
:1064700054F024FF29463A72484627A3D3E9002363
:1064800054F01CFF85B2042D3DD905F26C75A9B2FC
:1064900040F26C7059F00DFD201A4FF0000368F1C6
:1064A000000140F26D1254F009FF85B205F26C71E3
:1064B00089B240F26C7059F0FCFC01462846FD8020
:1064C00059F007FD40F26D13641A4FF00C014FF0C4
:1064D000000203FB05F568F10008641B04F10103E9
:1064E0007B81104B68F1000801FB0030D3B2C35C24
:1064F000511C9C4278F1000507D2013400203A710A
:10650000FC70FE6088E70021D8E7E31A1C460A46C3
:1065100068F10008EAE700BF8033E10100000000F5
:106520007FBD6879F6ED07082DE9F04F93B0CDE90E
:106530000A32DDE91C530E9353EC102BCDE9080110
:10654000104619468DED060B1E9E54F08FFC80B14F
:10655000DDE906014FF0FF32C54B54F0AFFC40B906
:10656000DDE906014FF0FF326FF4801354F088FC30
:1065700070B1DDE908019DED060B0E9B1E96CDE97D
:106580001C53DDE90A3213B0BDE8F04F00F088B9C2
:106590000022DDE90601002354F072FC002800F01F
:1065A0003381DDE906A303F1004BCBF30A5016F467
:1065B0008063A0F2FF3008BF06250F9354F084F9E2
:1065C0009BA3D3E9002354F0E9F99BA3D3E900236B
:1065D00054F02EF8CBF31304894644F07F518046E3
:1065E0000022A44B504641F4401154F01FF894A3EC
:1065F000D3E9002354F0D2F902460B4640464946FF
:1066000054F016F854F064FC044654F05DF98EA37F
:10661000D3E900238046894654F0C0F90022964B06
:1066200054F006F854F054FC89A3D3E9002307463C
:106630004946404654F0B2F980463846894654F0FF
:1066400043F985A3D3E9002354F0A8F902460B4689
:106650004046494653F0EAFF02460B46CDE90C237B
:1066600054F09CF9DDE90C23804689461046194612
:1066700053F0DEFF0022CDE91001804B4046494631
:1066800054F0B6FA00227E4B53F0D2FF02460B467E
:106690004046494654F0ACFA00227A4B53F0C8FF0A
:1066A00002460B464046494654F0A2FADDE90C2367
:1066B0008046894600204FF0804153F0B7FF0246E4
:1066C0000B464046494653F0B3FF02460B46DDE910
:1066D000100154F08DFA07F2FF3700226A4B53F095
:1066E000A7FF00223B0554F059F952465B4680460D
:1066F000894654F0E3FB002840F08980CDE90C89FD
:1067000004F16303C72B34BF0427052731051BD5CC
:1067100053A3D3E900235046594654F0C5FB002843
:106720007FD051A3D3E900235046594654F0A8FB2B
:10673000002876D00027A542C6BF2C1B04F1FF35E8
:1067400000253C4646F480660E9B9F422CBF4FF0CE
:106750000008A3EB070816F0020903D0002F18BFAA
:106760004FF000083CB1DDE90C235046594654F087
:106770003FFA82468B46DDE906010022002354F0F1
:106780007FFB10B10BF100439B46DDE9080126F4C5
:106790000063CDE90183DDE90A324BEC10AB0095D3
:1067A00000F07EF802465FB3DDE9091316F0200F12
:1067B00000F10105089E0CBF65204520B047DDE9CA
:1067C00008010523002205930A23002CCDE902329B
:1067D00007F1FF374FEAD473B8BF64422A460193EA
:1067E00004970A9B00945EF00DFB0246B9F1000F7E
:1067F00006D00B9BC41A0B9B1A190E9BA34245D8BB
:10680000104613B0BDE8F08FDDE906ABCDE60022FF
:10681000404649461A4B54F0EBF9013CCDE90C01D6
:106820006EE7002D90D00F9B002B8DD0013D8BE7A4
:10683000FB799F501344D33FB3C8608B288AC63F6F
:1068400061436F63A787D23F71A379094F930A40D1
:106850001655B5BBB16B0240EF39FAFE422EE63F4A
:106860002D431CEBE2361A3F0000000080842E41CD
:10687000FFFFEF7F0000F83F0000E03F00002C40EA
:1068800000002440000018400000F03F2020DDE917
:106890000913089DA8470134ADE700BF00000000C0
:1068A0002DE9F04F97B05BEC10ABDDE92057CDE957
:1068B0000501CDE90723504652465B465946229EC4
:1068C00054F0D4FA70B90323CDE902760193B04BAA
:1068D0000093DDE90501DDE907235EF0B3F917B0A8
:1068E000BDE8F08F4FF0FF326FF4801350465946E9
:1068F00054F0C6FA28B10423CDE902760193A54BE2
:10690000E6E74FF0FF3250465946A34B54F0D6FA13
:1069100068B1A24A06F00403002B08BF0322A04B73
:106920001CBF13460422CDE902760192D0E75046FF
:1069300093A3D3E90023594654F0C0FA38B992A37F
:10694000D3E900235046594654F09AFA68B1DDE97C
:106950000723DDE905014BEC10ABCDE9217620954D
:1069600017B0BDE8F04FFFF7DFBD0022002350460F
:10697000594654F085FA002800F09A805B4652464A
:106980000020002153F052FE012382468B460993DA
:1069900016F4806400F08E80092D40F28E80002471
:1069A00030210EABA5F109020134202C03F8011BA4
:1069B000A5EB040901D09442F6D15946504654F053
:1069C00087FA784B054603EBC90393ED007B8DED09
:1069D0000A7B53F079FF02460B465046594653F066
:1069E00025FEDDE90A2353F0D9FF02460B46CDE927
:1069F0000C2354F095FA804653F056FF02460B469E
:106A0000DDE90C0153F012FE02460B46CDE90C23E2
:106A10000022654B54F052FA002851D008F10108C9
:106A2000404653F041FF02460B46DDE90A0154F0AF
:106A300031FA10B14FF000080135B9F1000F50D113
:106A4000284653F041FF02460B465046594653F044
:106A5000EDFD0022544B8046894654F011FA30B1C6
:106A6000002240464946504B54F028FA10B1E8073E
:106A700000D501350A210EAB1A19202C0AD095FB3E
:106A8000F1F001FB1055303502F8015B0134054689
:106A90000028F2D106F00302012A57D1002F55D069
:106AA000099A12B916F00C0F00D0013F302245E0D0
:106AB00009906DE74FF006097FE7A94600247CE7BF
:106AC0000022DDE90C01384B54F0DAF90028B4D18A
:106AD000B8F1000F02D018F0010FAED008F1010894
:106AE000ABE70A210EAB2344202C0ED0B8FBF1F00B
:106AF00001FB1082B8F1090F02F1300209F1FF39F0
:106B000004F1010403F8012B11D83021A1440EAA8D
:106B1000202CAFD0A14504F101030AD11C4609F194
:106B200058030DEB03092E2309F8203CA2E7804609
:106B3000DAE7A1541C46EBE71A550134A74205D900
:106B4000202CF9D1CDE902760194C1E6202CF9D0B0
:106B5000099A3AB12D2104F158026A4402F8201C26
:106B60000134EFE7710704D504F158022B216A4480
:106B7000F4E73207E6D504F1580220216A44EDE734
:106B80000000000065CDCD410000000065CDCDC105
:106B90004FFE070853FE0708FFFFEF7F46FE07087A
:106BA0004BFE070858FE07080000E03F0000000009
:106BB000F0B5934C9FB02288A3780021ADF80C204B
:106BC00013A82C228DF80E306DF050F94FF00233DF
:106BD000159340F20B130AAD0434ADF874300FCCAA
:106BE0000FC50FCC0FC52368864A2B60864B874D97
:106BF00006930023CDE9073309934FF0FF3328466E
:106C000083492B6027F08EFA0446002853D1286868
:106C1000431C06D140F2A4417E4B7F4A7F4806F0D8
:106C2000B5FD03A927F0BCFA0446002843D1286823
:106C30005EF053FA7A4E7B4F307028685EF04FFA60
:106C4000387028685EF04DFA774B784918702868DC
:106C500027F0A4FD044600282DD13378744E4BB99B
:106C600074482CF03DF83060D0B940F2DC41724BF2
:106C7000694AD3E771482CF033F830600028EFD030
:106C8000C189286827F0EEFC3368214658682CF04B
:106C900061F8044678B967482CF022F8306090B16A
:106CA000C189286827F0DEFC3368042158682CF07D
:106CB00051F8044638B1234622210220604A5FF091
:106CC000A4F91FB0F0BD0FF04FFA5E4BCDE90401FF
:106CD00004AAA3F1080112F8010B03F8010D99426F
:106CE000F9D13B78002B46D1574928685EF021FF47
:106CF00004460028DFD1554928685EF004FF0446A9
:106D00000028D8D15249286827F04CFB04460028B7
:106D1000D1D139A3D3E90023CDE9002328685EF05F
:106D20000AFF04460028C6D14A4A4B4928685EF04B
:106D300062FF04460028BED1484A494928685EF0EF
:106D40005EFF04460028B6D10121286827F046FAE4
:106D500004460028AFD1A023424A06A8D380424A65
:106D600013600FF0D5FA414B186088B940F22551F5
:106D70003F4B294A52E71C22002116A86DF076F8F5
:106D8000286813A927F006FF04460028ACD092E734
:106D90002246012108200FF015FC364B186020B95F
:106DA0004FF4A561344B1C4A38E7224601210820E4
:106DB0000FF008FC314B186020B940F22B51304BDA
:106DC000154A2BE72F4A304930482DF0B9FD2F489E
:106DD00048F074FC00212E480AAA0FF04DFB2D4B01
:106DE000186000287FF46DAF40F237512A4B0A4AF1
:106DF00014E700BFAFF30080C88D01C1034000005D
:106E0000E87C0808412A030803720808789C0020DF
:106E10005022012018720808E97B0808D26F080880
:106E2000C3100120C2100120C11001200700110071
:106E3000348C00206D7506083F72080857750608E7
:106E4000CA720808CC100120E67C0808E47C080817
:106E50007C9C0020EA230120F0180020EC23012074
:106E6000708C002090220120E49C0020F89C0020DF
:106E700057720808F49C002073720808F09C0020E8
:106E800090720808B0720808FD2E0308989C002034
:106E900065400308FC9C0020B9720808000000004F
:106EA0002DE9F34705465A4C22211020594A5FF03C
:106EB000ACF81422294620466DF07FF8A27B564B91
:106EC000DFF8A0A11A70637C00228AF8003000234A
:106ED000CDE90023DFF8908100224FF40073D8F849
:106EE00000005EF028FE064620B10126304602B0C2
:106EF000BDE8F087494B4A4F1B787BB949482BF0D6
:106F0000EFFE04463C60FCB9474A222102205FF0B4
:106F10007CF80122454B21261A70E7E7444B454C8B
:106F20001A88454BD8F8000053F82210434A8B6862
:106F300021603B6027F020FA2268414B94682422AC
:106F40001B8802FB0344DDE73E4B1C60394BD3F842
:106F50000090B9F1000F07D000232420D9F80C10BD
:106F60008B4208D100251AE040F2ED71364B374ACA
:106F7000374806F00BFCD9F8085000FB0355EA69C6
:106F80005278120912F00E0F2BD0052A29D8314B56
:106F90000021EA89B3F900003D602BF013FF1AA32A
:106FA000D3E90023CDE90023D8F800005EF0C3FD4B
:106FB000D9F80820AA4207D0274B3A600421D28989
:106FC000B3F900002BF0FEFE244BE2893C601A80EE
:106FD000234B1B783BB92CF0FDFE01202CF088FBE5
:106FE00084E70133BCE79AF800301B0913F00E0F59
:106FF000F1D101220721D8F800005EF0CAFE002876
:10700000E9D072E7AFF30080C88D01C103420000F0
:10701000388C00209F760808B8100120BC10012091
:10702000348C00203D2E0308BB760808BA100120DE
:10703000F4A50020288C0020BC1C01204D2A030848
:10704000F2A50020308C0020F7760808A77A0808FF
:10705000D26F0808EE230120F0230120E423012051
:10706000C2100120B7100120789C00200000000011
:107070002DE9F84390F8E861054644683EB90220DE
:107080002721414A5EF0C1FF3046BDE8F88394F9FC
:107090000130002B1ADA731E5BB2637000EB4313EE
:1070A00093F825302370A06853F020FC32A3D3E975
:1070B00000238046894694F9017053F0FFFEF8B131
:1070C000002F1DDD013F0023677024E09E422278DF
:1070D00005DD00EB431393F825309342E3D0002302
:1070E00005F1250163705801085C904208BF637088
:1070F00001339E42F7D8731E637000232371D2E7D9
:1071000040461FA3D3E90023494653F0D7FEF0B110
:107110002379E3B1013B237194F9013005F5F57052
:1071200005EB431393F82530237085F8EA310523E6
:1071300095F8022285F8EC3185F8F02100230E2223
:1071400085F8EB3185F8F22185F8F1319DE740466D
:107150000BA3D3E90023494653F092FE0028DBD06D
:1071600023790133DBB2092B2371D5D9013EBE420D
:10717000D2DD0137A7E700BF666666666666E63F52
:107180009A9999999999B93FF63F0908000000002A
:107190002DE9F8432DED028B8768054638461646E3
:1071A0000C4653F0A3FB28A3D3E90023804689466D
:1071B00053F084FE88BB26A3D3E90023404649460A
:1071C00053F05EFE60BBF7EE007A07EE107A87EEB2
:1071D000878A6B7F607F0122834224D0002148F0A0
:1071E00003FF012204463146687F48F0FDFE044457
:1071F00004F2D5702860D8B107EE900AF8EE677AED
:107200009FED0D7A67EE887A87EE270ABDEC028B38
:1072100010EE103AEB60BDE8F8839FED088AD8E7DE
:107220009FED078AD5E73146184648F0DDFEE1E7D5
:107230009FED040AEAE700BF00007A44E4388E3F7D
:1072400000401C4600000000CDCCCCCCCCCCEC3FA8
:107250009A9999999999B93F2DE9F74F064690F86F
:10726000E8010D469146A0B37468A3690133A36198
:10727000A37D06EB43131A7F02441A77D4E9073241
:10728000C3EB520207EE902A4000B8EE677A07EE91
:10729000900AF8EEE76AF4EEC76AF1EE10FA0BD541
:1072A00007EE903A37EE667AF8EE677A77EE877AED
:1072B000FCEEE77AC4ED077A4FF0000BD9450BD806
:1072C00042F21073A2699A4282BF0023C4E90633D6
:1072D000236203B0BDE8F08FB5F802A02F79BAF1B0
:1072E000000F2ED0384653F0EFFACDE9000150469A
:1072F00053F0EAFA02460B46DDE9000153F078FC50
:1073000002460B4600204C4953F090F953F028FEFA
:1073100007EE100A96F80332AAEB0700034486F83A
:10732000033294F8243033B394F825305B4522D1EE
:10733000BAF1000F08D1C4F820A00BF1010B0635FB
:10734000BCE7B7EE007AE5E7E3690133E3612A7849
:10735000002AF2D00023984696F8E8C106F1080109
:107360009C450FD8B8F1000F14D127210220334AD1
:107370005EF04BFEE1E72A78002ADED0BAF1000F7A
:10738000DBD0E7E791F81DE00133964508BF88465A
:107390002031E5E7002288F81420B8F81020D8F84A
:1073A000043017440133BAB2C8F80430A8F810709A
:1073B0001AB198F81D2086F81422F7EE007A012BF6
:1073C00077EEC77A8CBFB3EE097A9FED1D7AB8F8D5
:1073D000122088BF67EE877A0244A8F81220D8F8F6
:1073E00008208CBF9FED177A67EE877A06EE102A89
:1073F000DFED156AE6EE077A87EEA67A17EE103A09
:1074000017EE100AC8F8083053F070FA08A3D3E951
:10741000002353F035FD18B1FF2388F815308CE7B1
:1074200098F91530013388D10423F6E7AFF30080D3
:10743000666666666666EE3F0000F03F1640090825
:1074400000004842000096420000C84200000000D0
:107450002DE9F04F2DED028B054600274FF0200A55
:107460004FF0080B0B4608204D4A87B0884627216D
:107470005EF0CBFD95F8E83127210820494A5EF0FF
:10748000C4FD6C6805F10806E37D237163716375C3
:1074900095F8E891B9450DDC3FA7D7E900674FF0B3
:1074A0000008AA46C346C14546D807B0BDEC028BCA
:1074B000BDE8F08FE17D42461AFB01B13046294418
:1074C000FFF766FE96F81D900495F06853F00EFAEB
:1074D000CDE90201B06853F009FA4B46CDE900014D
:1074E000314A272108205EF090FD2379D6ED037AFA
:1074F00005EB431292ED057AF4EEC77AF1EE10FA3D
:1075000002DB327F22710EE017B995F82420F9E7EB
:10751000637905EB431393ED057AF4EEC77AF1EE48
:1075200010FA04DB337F637101372036B0E7012F97
:10753000FAD195F84430F6E7E37D434515D09AED4E
:10754000048A18EE100A53F0D1F932463B4653F044
:10755000ABFC10B9BBF1000F0CD19AF824302279A2
:107560009A4202D062799A4211D108F101080AF1D7
:10757000200A98E7637D05EB4313D3ED047AB4EE5C
:10758000E78AF1EE10FAE8DA4FF0010BEDE76375E8
:10759000FAE700BFAFF30080666666666666EE3F98
:1075A0002E400908504009085F400908000000000B
:1075B0002DE9F047D0F8048000EB411393F82450F4
:1075C00098F817300446AB422DD098F81530AB42EE
:1075D00029D000EB411ADAF810004FEA411953F0B4
:1075E00085F913A3D3E9002306460F4653F052FC56
:1075F00010B99AF91D00A0B198F80430AB4212D02E
:1076000098F80530AB420ED009A3D3E900233046E9
:10761000394653F053FC18B14C44637F013B637708
:107620000120BDE8F0870020FBE700BFAFF300803A
:10763000666666666666EE3F2DE9F34704460E46CB
:10764000456827210820804A5EF0DFFC204631464D
:10765000FFF7FEFE28466BF00CFC002800F0BA8015
:1076600020466BF019FC061EC0F2B48094F8E83195
:107670009E4280F2AF8004EB461733462721082054
:10768000724A5EF0C2FC2721082097F82530704A24
:107690005EF0BBFC012295F804C085F8242004EBC1
:1076A0004C13386A196A884297F8250002D8397F46
:1076B000322977D9012284F8EC21002284F8EA01EA
:1076C00084F8EB21A97D297093F8251084F8F01136
:1076D00093F8263084F8F12184F8F231697D85F839
:1076E00001C004EB411393F82500012684F8F6014C
:1076F00093F8263084F8F831002384F8F731A97024
:1077000085F82520A04605F1FF3904F1120A19F881
:10771000013F5F1C002E00F0898004EB43131869C1
:1077200053F0E4F802460B46CDE9002342A3D3E927
:10773000002353F0C3FB40B941A3D3E90023DDE9A3
:10774000000153F09DFB002870D004EB4717BB7974
:10775000042B8EBF02230133C3F3460388F8EC31B8
:1077600008F10608C245D2D1EA7D04F5F57004EBB4
:10777000421393F8253084F8FC31002384F8FD315E
:10778000EA7085F8243094F8F22194F8EC3113442F
:1077900094F8F821C3F113039B1A84F8FE3102B068
:1077A000BDE8F08793F82570697D84F8EA7193F855
:1077B000263084F8EC31002384F8EB3185F800C0E2
:1077C00084F8F13184F8F00184F8F22104EB4113DC
:1077D0006E7088E700262A7904EB421393F825108F
:1077E00084F8EA1193F8263084F8EB6184F8EC31E0
:1077F0002A706A7904EB421393F8251084F8F0118B
:1078000093F8263084F8F16184F8F2316A706A7D69
:1078100004EB421393F8251084F8F61193F8263000
:1078200084F8F76184F8F831AA706BE704EB471726
:10783000BB7993E7AFF30080666666666666EE3FE7
:107840009A9999999999B93F8340090891400908F3
:10785000A1400908000000002DE9F8432DED028B3E
:1078600087680546384616460C4653F03FF82EA367
:10787000D3E900238046894653F020FB00283DD100
:107880002BA3D3E900234046494653F0F9FAC0BB85
:10789000F7EE007A07EE107AAB7F87EE878A07EE65
:1078A000903AB8EEE77AB4EEC87AF1EE10FA01D564
:1078B000B8EE678A6B7F607F0122834224D000216B
:1078C00048F092FB012204463146687F48F08CFB69
:1078D000044404F2D5702860D8B107EE900AF8EE9F
:1078E000677A9FED0D7A67EE887A87EE270ABDECFE
:1078F000028B10EE103AEB60BDE8F8839FED078A2B
:10790000D8E79FED078AD5E73146184648F06CFB6B
:10791000E1E79FED040AEAE700007A44E4388E3F8D
:1079200000401C4600000000CDCCCCCCCCCCEC3FC1
:107930009A9999999999B93F2DE9F04F2DED028BBC
:1079400090F8E83105460E46934689B0002B00F0CA
:10795000238127210820964A5EF057FB00226C689D
:10796000A1690131A16195F8E80190423DD8D4E9BF
:1079700007230A2779436427B1FBF7F1C2EB5303CE
:107980000B4407EE903A430006EE903AF8EE677A21
:10799000F8EEE66AF4EEE76AF1EE10FA0BD507EEC0
:1079A000102A77EEE67AB8EE477A77EE277AFCEE81
:1079B000E77AC4ED077A0027B846BB451DD8B8F171
:1079C000010F00F0E680B8F1130F40F2B9800023F8
:1079D000A3612721082095F80332764A09B0BDEC4F
:1079E000028BBDE8F04F5EF010BBA37D013205EBCA
:1079F00043131F7F01371F77B7E7B6F8029096F859
:107A000004A0B9F1000F41D0504652F05DFFCDE91E
:107A10000601484652F058FF02460B46DDE90601D2
:107A200053F0E6F802460B460020634952F0FEFD93
:107A300053F096FA08EE100A337818EE100A0693FF
:107A4000049552F053FF069BCDE902015B4A2721C2
:107A50000820CDE9009A5EF0D8FA7288337995F85B
:107A60000312D31A0B4485F8033294F82430C3B1BF
:107A700094F82530BB4214D15AB92262272108203C
:107A80004F4A5EF0C2FA0137063696E7B7EE008A33
:107A9000D2E7E3692721013308204A4AE3615EF017
:107AA000B4FAB6F802A0BAF1000FECD00023E25D00
:107AB00005EB4211C8680B770130C86096F804C026
:107AC0000B8B4FEA421963449BB20B831BB191F8B5
:107AD000253085F81432F7EE007A05EB0902538B56
:107AE00001285344A3EB0C0377EEC87A53830DD9D6
:107AF000B2EE0E7AD2ED046A27EE877ADFED327AA3
:107B0000A6EEA77ADFED316AC7EE267AA944C9ED61
:107B1000047A17EE900A52F0E9FE23A3D3E900237A
:107B200053F0AEF930B1FF2389F81D30C2441FFA7B
:107B30008AF8A8E799F91D300133F7D10423F3E758
:107B4000B8F1020FD4ED0B7AB1EE047A15D977EEC5
:107B5000877AB3EE047AF4EE477AF1EE10FA77FE04
:107B6000277A42F21073A269C4ED0B7A9A4282BF5F
:107B70000023C4E9063323622BE7F2EE046A77EEB2
:107B8000E67AF4EE477AF1EE10FA48BFF0EE477A63
:107B9000E7E7DFED0F7AE4E709B0BDEC028BBDE863
:107BA000F08F00BFAFF30080666666666666EE3FE4
:107BB000E64009084C4109080000F03FFC40090874
:107BC0002D4109083C4109080000AA420000C842B2
:107BD00000000000000000002DE9F84F2DED028BA1
:107BE0000546884600274FF020094FF0080B4468EF
:107BF00000F10806E37D23716371637595F8E8A1D0
:107C0000BA450CDC0FF2D009D9E9008900262F46CD
:107C1000B346B24532D8BDEC028BBDE8F88FE17DAA
:107C2000424619FB01B130462944FFF715FE23797E
:107C3000D6ED037A05EB431292ED057AF4EEC77A9E
:107C4000F1EE10FA02DB327F22710EE017B995F8DF
:107C50002420F9E7637905EB431393ED057AF4EEFD
:107C6000C77AF1EE10FA04DB337F637101372036F7
:107C7000C4E7012FFAD195F84430F6E7E37DB3422B
:107C800015D097ED048A18EE100A52F02FFE4246E6
:107C90004B4653F009F910B9BBF1000F0AD197F820
:107CA000243022799A4202D062799A420FD1013669
:107CB0002037AEE7637D05EB4313D3ED047AB4EED2
:107CC000E78AF1EE10FAEADA4FF0010BEFE763759D
:107CD000FAE700BFAFF30080666666666666EE3F51
:107CE0002DE9F047456890F8E821AB690446B3EB0D
:107CF000420F2ED900EB411393F82480EB7D4345CE
:107D00002AD06B7D434527D000EB411ADAF81000EA
:107D10004FEA411952F0EAFD11A3D3E900230646C8
:107D20000F4653F0B7F810B99AF91D0090B12B79AE
:107D3000434511D06B7943450ED009A3D3E9002305
:107D40003046394653F0BAF818B14C44637F013BD2
:107D500063770120BDE8F0870020FBE7AFF30080E8
:107D6000666666666666EE3F0348044B834202D051
:107D7000034B03B1184770473430012034300120E1
:107D800000000000064B0749C91A891048BF01319D
:107D9000491003D0044B0BB101481847704700BF8E
:107DA00034300120343001200000000010B5064CB2
:107DB000237843B9FFF7D8FF044B13B10448AFF35E
:107DC00000800123237010BD04A6002000000000E5
:107DD000D858090808B5054B1BB105490548AFF34C
:107DE0000080BDE80840FFF7CDBF00BF00000000E5
:107DF000D0220020D8580908A3F5803A704700BF68
:107E0000174B002B08BF134B9D46FFF7F5FF0021D2
:107E10008B460F461348144A121A6CF027F80E4B83
:107E2000002B00D098470D4B002B00D09847002026
:107E3000002104000D000D48002802D00C48AFF3CB
:107E4000008053F045FF2000290057F0F0FF53F069
:107E5000C5FB00BF0000080000000000000000009B
:107E60000814002008140020C4190120000000009C
:107E70000000000010B58EB0154A164C127803466B
:107E80000C92154A204612780B92144A92F844102C
:107E90000A9192F845100991B2F840100891D18FDB
:107EA0000791928F4FF4806106920D4A05920D4A18
:107EB00004920D4A03920D4A02920D4A01920D4A14
:107EC00000920D4A1EF018FC20460EB010BD00BFF7
:107ED00006A60020D0B2002007A600201BB8002074
:107EE000A7B7002078B80020D2B60020AB6B0708F7
:107EF000AFB7002080AE0020E86A070808B504F09C
:107F0000A9FC0022084BC3E90001084BC3E90001AA
:107F1000074B08491A8000220023C1E900230649C3
:107F2000C1E9002308BD00BF881400208014002090
:107F3000CEA5002078140020701400202DE9F04F09
:107F40009BB000AF00233149314A04460D469246AA
:107F500018460133DBB2082B01F8010B02F8010BC4
:107F6000F7D107F10B005EF004FA18B181B229488D
:107F70001EF09AFB6A46FB7A07F10B00A2EBC303E3
:107F80009D4669466E465EF009FA18B181B22248F4
:107F90001EF08AFB4FF00008FA7A5FFA88FB5A4518
:107FA00008D820462B686C3723606B686360BD4639
:107FB000BDE8F08F06EBCB094FEACB0307F10C01CC
:107FC00048467B605EF003FAF96A49B913494846AE
:107FD0005EF0FDF956F83B102960D9F8041069608D
:107FE000F96A01290ED148460D495EF0F0F97B6827
:107FF0003344994656F83B30CAF80030D9F804307B
:10800000CAF8043008F10108C6E700BFC0AE00207E
:10801000B8AE0020B06B0708E96B07081BB800205A
:10802000C2B7002013B56846FFF788FF084C094A1D
:108030002146D379084892791EF04AFB2146074A27
:108040000748D379927902B0BDE810401EF040BBDA
:108050001D6C0708C0AE0020A7B70020B8AE0020F6
:108060009FB700202DE9F043A7B02E4C21AE20464B
:108070005EF03CFA54F034F92B49024630461EF0CB
:1080800027FBFFF7CFFF294B2088D3E900120131EE
:1080900042F10002C3E90012254B264D5F89264BB1
:1080A0001E93264BD3E90A89CDE91C89D3E90889B7
:1080B000CDE91A89D3E90689CDE91889D3E904897C
:1080C000CDE91689D3E90289CDE91489A378CDE9F0
:1080D0000F07CDE91173CDE90C12194B0E900A96DA
:1080E00093F844204FF48061099293F84520284684
:1080F0000892B3F840200792DA8F06929B8F114ABC
:108100000593114B0493114B0393114B0293114BA5
:108110000193114B0093114B1EF0EEFA284627B045
:10812000BDE8F08374B80020248708086814002094
:10813000D4230020D0B200203BB700200814002038
:108140001BB80020346C0708A7B7002078B80020BF
:10815000D2B60020AB6B0708AFB7002080AE00207E
:108160002DE9F04FF7B0219054F0BAF8DFF884927F
:1081700002468B4923A81EF0ABFAFFF753FF48468F
:108180005EF0A8F887485EF0B1F9874C3CA904205E
:108190005EF056F8012059A95EF052F8D4E9003299
:1081A000013342F10002C4E9003299F80030DFF8EF
:1081B00048A2052B28AD2DAE32AF40F09F8004F0D1
:1081C00049FB7A4ADFF834B2D2E90032B0EB030857
:1081D00061EB02094946404604F016FB704902462D
:1081E00028461EF075FA724930461EF071FADAE937
:1081F000000118EB000049EB010104F005FB6849A0
:10820000024638461EF064FADBE9000104F0FCFA8D
:108210006349024637A81EF05BFADAE90001DBE9A0
:10822000003218EB000049EB010110EB030A41EBAF
:10823000020B5AEA0B0340F09E805E48479B1F9357
:10824000439B1E939DF8AC311D935A9B1C93619BDD
:108250001B935B9B1A93649B1993524B9B781893C7
:1082600037ABCDE9167352F041FBCDE91401524B07
:108270001B881393514B1B881095CDE91163504D0A
:10828000686852F011FB64230646E8680F46B0FBAD
:10829000F3F052F009FB02460B463046394652F0E5
:1082A000A7FCCDE90E01D4E90023CDE90C2323ABD3
:1082B0000B93444B4FF4806193F8442042480A9258
:1082C00093F845200992B3F840200892DA8F07927C
:1082D0009B8F3E4A06933E4B05933E4B04933E4B89
:1082E00003933E4B02933E4B01933E4B0093219BE5
:1082F0001EF002FA344877B0BDE8F08F04F0AAFA15
:10830000394AD2E90032B0EB030861EB020B284690
:1083100099F8002035491EF0DBF95946404604F033
:1083200073FA1F49024630461EF0D2F9DAE900011D
:1083300004F06AFADFF8C4900246194938461EF084
:10834000C7F9D9E9000118EB00004BEB010104F07B
:108350005BFA1349024637A81EF0BAF9DAE90001C0
:10836000D9E9003210EB030A41EB02031AEB080AC9
:108370004BEB030B5DE752F0DBFA00221C4B52F093
:108380000DFB804689465046594652F0D1FA0246C6
:108390000B464046494652F02BFC52F0E1FD4DE7BA
:1083A0002487080874B8002068140020881400206E
:1083B0008E6D07080000C842CCA50020CEA5002085
:1083C000302300201BB80020D0B20020A56D070884
:1083D000A7B7002078B80020D2B60020AB6B070802
:1083E000AFB7002080AE002080140020916D0708F8
:1083F00000005940D0B600207814002070140020EE
:1084000037B5604901205DF0A3FE05465E495D4831
:1084100008F0DEFC5D4C002D00F09C804FF4AF6155
:108420005B4A20681EF068F953F05AFF2368024641
:10843000584900205CF006FE53F052FF22680146C6
:1084400054481EF031F94FF4AF61534AABB2206883
:108450001EF052F9002021685CF0F4FD20681EF047
:1084600023F94FF4AF614D4B4D4A20681EF044F99B
:1084700053F036FF23680246464900205CF0E2FDD7
:1084800053F02EFF2268014642481EF00DF9434882
:108490006BF0A0FD434A0146404854F026FE424995
:1084A000404808F095FC40F2D54300934FF4AF618B
:1084B0003D4B3E4A20681EF01FF953F011FF236820
:1084C0000246344900205CF0BDFD53F009FF2268EC
:1084D000014630481EF0E8F84FF4AF61344B354A9E
:1084E00020681EF009F953F0FBFE23680246294973
:1084F00000205CF0A7FD53F0F3FE226801462548FA
:108500001EF0D2F82A486BF065FD2B4A0146284838
:1085100054F0EBFD2949284808F05AFC41F2356334
:1085200000934FF4AF61254B254A20681EF0E4F814
:1085300053F0D6FE23680246164900205CF082FD07
:1085400053F0CEFE2268014612481EF0ADF82846D0
:1085500003B030BD4FF4AF610B4B1A4A20681EF0D8
:10856000CBF853F0BDFE236802460A4928465CF06A
:1085700069FD53F0B5FE2268014606481EF094F8E6
:108580006FE700BFA8AE002080AE00208824002046
:1085900000F607080F7007081770070877700708BC
:1085A000897007081C23002030AE0020A470070843
:1085B000CB700708DD700708FC22002008AE002001
:1085C000F970070854700708F8B5FFF719FF032280
:1085D0000221002027F048F8514A411C0346514C23
:1085E000106023D14FF4AF614F4A20681EF084F829
:1085F00053F076FE236802464C4900205CF022FDD1
:1086000053F06EFE2268014648481EF04DF8484A75
:108610004FF4AF6120681EF06FF8216800205CF015
:1086200011FD20681EF040F80120F8BD4FF4AF6145
:10863000404A20681EF060F853F052FE236802465C
:108640003A4900205CF0FEFC53F04AFE002501464A
:108650002268394E35481EF027F840F2D540356083
:108660005DF0E0FC0322B0800221284626F0FCFFEA
:10867000324E421C0346306016D14FF4AF612A4A95
:1086800020681EF039F853F02BFE23680246274974
:1086900028465CF0D7FC53F023FE226801462348AD
:1086A0001EF002F8264AB3E74FF4AF61254A20686E
:1086B0001EF022F853F014FE236802461B49284698
:1086C0005CF0C0FC53F00CFE1F4F014622681748B7
:1086D0001E4C1DF0E9FF41F2356025605DF0A2FC03
:1086E00033683E46A08046F8043B0FCC0FC694E8A2
:1086F0000F0086E80F0041F20303FB843223BB62C4
:1087000042F22A3312484FF40071BB85B86354F02B
:108710009FFE7D63F88587F8245028463D6484E7F2
:10872000EC2200208824002000F607080F700708BC
:10873000207107085671070810230020E822002046
:1087400086710708BD7107084C1C0120F02200202B
:10875000ED71070873B53C4D4FF40071E86354F0B8
:1087600077FE288605F1240054F0FAFA064654F004
:10877000E0FA0446E8B9354D009640F20C534FF448
:10878000AF61334A28681DF0B7FF53F0A9FD2B688D
:108790000246304920465CF055FC53F0A1FD2A68A2
:1087A00001462C481DF080FF40F20E55284602B0CD
:1087B00070BD05F1240154F0D5FA00281CDA234DD0
:1087C00040F211534FF4AF61234A28681DF094FF23
:1087D00053F086FD1F4902462B6800205CF032FCF6
:1087E00053F07EFD2A6801461A481DF05DFF002502
:1087F000204654F0AAFAD9E720230193174B3246BA
:10880000009321460023286826F09EFF0130EED118
:108810002B680E4E00934FF4AF6140F21A53104A8A
:1088200030681DF069FF53F05BFD3368024609496B
:1088300000205CF007FC53F053FD32680146054808
:108840001DF032FF3125D3E74C1C01208824002085
:10885000007207080F70070840720708F022002016
:108860007A7207082DE9F04385B005461C469DF84D
:1088700030609DF83470002A00F08F80002978D095
:1088800053F02EFD014671481DF00EFF28461DF0E5
:108890000BFF002C40F09A800124002E3CD02B4688
:1088A0004FF480616A4A6B481DF026FF2023019334
:1088B000694BDFF8D091009386B2002332466549B8
:1088C000D9F8000026F040FF013040F0838040F2EC
:1088D000D5430293614B03960193D9F80030DFF83A
:1088E0008C8100934FF4AF6140F241535C4AD8F859
:1088F00000001DF001FF53F0F3FC5A490246D8F87E
:10890000003000205CF09EFB53F0EAFCD8F8002019
:10891000014654481DF0C8FE3FB32B464FF480611A
:108920004B4A51481DF0E8FE83B2B3F5007F54D99D
:108930004FF400734D4D80B20193009040F24A53C2
:108940004FF4AF614A4A28681DF0D6FE53F0C8FCC8
:10895000444902462B6800205CF074FB53F0C0FCD5
:108960002A6801463F481DF09FFE204605B0BDE83D
:10897000F0831DF099FE002C8ED00124DFF8EC80EE
:108980002A464FF4AF61D8F800001DF0B5FED8F8C4
:10899000001000205CF056FB16E0002B3FF47DAF8A
:1089A000B1B11446DFF8C4802A464FF4AF61D8F85D
:1089B00000001DF0A1FE53F093FCD8F800300246F1
:1089C000284900205CF03EFB013466E70124E9E71A
:1089D0000C46D3E70134E4B29EE72348FFF7BAFE22
:1089E000064610B90134E4B2BFE7204D4FF4AF6141
:1089F000204A28681DF080FE53F072FC2B68024666
:108A0000184900205CF01EFB53F06AFC2A680146FE
:108A100014481DF049FE41F235630293164BB6B27D
:108A20000193164B03961B68154A00934FF4AF61F0
:108A300040F24E5328681DF05FFE296800205CF06C
:108A400001FB28681DF030FE8FE700BFA872070801
:108A50002487080808AA00201023002030AE002038
:108A6000AE7207080F70070808A6002088240020AF
:108A70000C73070800F6070808AE0020E822002063
:108A800078730708EC2200202DE9F04F9DB003F029
:108A900043FE02F0EFFE04F005FFC2486BF09AFAC5
:108AA000C14CC24DD0B1E3880133E38002F0A0FE97
:108AB0004FF4AF61BB4BBE4A28681DF01DFE53F05A
:108AC0000FFCBC4902462B6800205CF0BBFA53F057
:108AD00007FC2A680146B7481DF0E6FD4FF47A709E
:108AE0006DF0A3FAB4481DF0DFFDB44AB449B548AF
:108AF0001DF0EEFD4FF0010C0623CDE9033CB24B17
:108B0000B24EB34F0293B34B6421B34A0193009624
:108B1000AC4B38461DF0F0FDCDE900674FF4AF6176
:108B2000A84BAE4A28681DF0E7FD53F0D9FB2B682F
:108B30000246A04900205CF085FA53F0D1FBA84E14
:108B400001462A689B481DF0AFFDA64B5021A64A5E
:108B5000A64800961DF0D0FD0FA808F0BBFC139BA3
:108B60001B691BB94FF47A706DF05FFA139B5021AB
:108B70001B699F4ACDE900639C489A4B1DF0BCFDE0
:108B80004FF4AF61924B9B4A28681DF0B5FD53F03E
:108B9000A7FB2B680246874900205CF053FA53F08C
:108BA0009FFB2A68014683481DF07EFD4FF4AF61AC
:108BB0008E4B904A28681DF09FFD53F091FB2B6867
:108BC00002467C4900205CF03DFA53F089FB2A689C
:108BD000014678481DF068FD4FF4AF61864B874A27
:108BE00028681DF089FD53F07BFB2B680246714914
:108BF00000205CF027FA53F073FB2A6801466D48A9
:108C00001DF052FD01202E6808F076F94FF4AF6197
:108C100003467B4A30461DF06FFD53F061FB2B6825
:108C20000246644900205CF00DFA53F059FB2A68B3
:108C3000014660481DF038FD02234FF4AF61714AD0
:108C400028681DF059FD53F04BFB2B68024659492B
:108C500000205CF0F7F953F043FB2A6801465548C1
:108C60001DF022FD0121032003F00EFB0122032150
:108C70001A2003F031FB01220421102003F02CFB09
:108C800001222220114603F027FB012204210B20A0
:108C900003F022FB01222520114603F01DFB0122D7
:108CA0001D20114603F018FB01220221002003F0D1
:108CB00013FB01220221282003F00EFB524B4FF43C
:108CC00080613F4A51481DF017FD4FF4AF61504A93
:108CD00028681DF011FD53F003FB2B68024635494F
:108CE00000205CF0AFF953F0FBFA2A6801463148E6
:108CF0001DF0DAFC4FF4AF61464A28681DF0FCFC19
:108D000053F0EEFA2B6802462A4900205CF09AF9EB
:108D100053F0E6FA2A68014626481DF0C5FC4FF4D8
:108D2000AF613D4B3D4A28681DF0E6FC53F0D8FA90
:108D30002B6802461F4900205CF084F953F0D0FAFA
:108D40002A6801461B481DF0AFFC4FF4AF61344B5D
:108D5000344A28681DF0D0FC53F0C2FA2B68024652
:108D6000144900205CF06EF953F0BAFA2A68014603
:108D700010481DF099FC4FF4AF612B4A28681DF094
:108D8000BBFC53F0ADFA2B6802460A4900205CF0A8
:108D900059F953F0A5FA254E01462A6805481DF0F9
:108DA00083FC45E031E20020D42300208824002009
:108DB000E27307080F70070800F60708AB6B070897
:108DC00024870808B7B70020107407082C74070818
:108DD0003BB7002015740708FE73070835740708B1
:108DE000607407083F7407084B740708EBB600204F
:108DF000697407087370070893740708A27407085A
:108E0000AE740708BF740708C8F10708D0AE002089
:108E1000D5740708EC740708067507081675070867
:108E20002E7507083E75070856750708C8AE00205E
:108E300030465DF074FA304608F052F9AE49024609
:108E4000AE481DF045FCF379B279AD49AD481DF04F
:108E50003FFC4FF4AF61A94BAB4A28681DF04CFCB6
:108E600053F03EFA2B680246A84900205CF0EAF86D
:108E700053F036FA2A680146A4481DF015FC4FF459
:108E8000AF61A04BA24A28681DF036FC53F028FAC7
:108E90002B6802469D4900205CF0D4F853F020FA7C
:108EA0002A68014699481DF0FFFB9A499A481DF02F
:108EB0000FFC9A4854F0ECFA411E4842984F484142
:108EC0003870984854F0E4FA461E70423B7870417E
:108ED000CDE9000303EB4006DFF88892F6B2334693
:108EE0004FF4AF61904A89F8000028681DF004FC37
:108EF00053F0F6F92B680246844900205CF0A2F892
:108F000053F0EEF92A68014680481DF0CDFB01239D
:108F10004FF00008DFF850A29E428AF8003084F833
:108F20000C8040F0D080814B186854F0B4FE804A29
:108F30004FF4AF6128681DF0DFFB53F0D1F973499E
:108F400002462B6840465CF07DF853F0C9F92A6868
:108F500001466E481DF0A8FB4FF4AF616E4B754A99
:108F600028681DF0C9FB53F0BBF92B68024667491E
:108F700000205CF067F853F0B3F92A6801466348B3
:108F80001DF092FB237B53B96B49942006F076FCCD
:108F90009520694906F072FC012002F063F86749E8
:108FA0008B2006F06BFC02F0A5FA637BE3B1267B15
:108FB000002E40F0988001205DF0B4FA4FF4AF61CC
:108FC000637B5F4A28681DF097FB53F089F94F498E
:108FD00002462B6800205CF035F853F081F92A68CE
:108FE00001464A481DF060FB4FF4AF612389554AA2
:108FF00028681DF081FB53F073F92B680246434942
:1090000000205CF01FF853F06BF92A6801463F48D6
:109010001DF04AFB4FF47A706DF007F84FF47A7048
:109020006DF003F84FF47A706CF0FFFF60895DF02B
:10903000CEFA4FF4AF616389434A28681DF05CFBA8
:1090400053F04EF92B680246304900205BF0FAFFDE
:1090500053F046F92A6801462C481DF025FB03F021
:109060009FF903F021FC03F0F5FB384B384EC3E9C0
:10907000000104F0ABFFDFF8F480DFF8F4B003F098
:10908000E9FB0546324807915DF024F93378052B5A
:1090900070D03C2200232846079952F00FF91A435A
:1090A0000AD153F01DF9014640461DF0FDFA59461C
:1090B000327828481DF0F8FA03F0C8FC4FF47A70B3
:1090C0006CF0B3FFDBE7022E02D1234A23732FE7B4
:1090D000032E7FF441AF154B4FF2120118680AF0CE
:1090E0003BFD1E4A24E700964FF4AF611C4A2868F6
:1090F0001DF002FB69E700BF2487080878B800204C
:109100001D6C0708AFB700206F7507080F700708C0
:109110007E7507088D750708D2B600206CB8070861
:1091200007A6002054B80708A57507088C1F012062
:10913000C175070837760708B9B1000835940008EB
:109140004776070887760708A87607089014002056
:10915000D0B60020C1760708E87507080E76070824
:109160005576070806A6002005A60020A872070865
:109170009374070803F06EFBCDE908010121032079
:1091800003F082F801222220114603F0A5F8012203
:109190000B20114603F0A0F801222520114603F010
:1091A0009BF801221D20114603F096F801220221AE
:1091B000002003F091F801220221282003F08CF80E
:1091C000FFF702FA4523824A824983481DF06CFA70
:1091D0000BA901205CF0BCFF80481DF065FA0BA8CC
:1091E00007F068FE0125002601467D481DF070FA53
:1091F00041F233627B4B7A497B481DF055FA7B483C
:109200001DF052FA41F23362764B754978481DF0F1
:109210004BFA0A2177481DF047FA41F23362764B48
:109220006B4976481DF040FA75481DF03DFA41F251
:109230003362714B664973481DF036FA72496848CB
:1092400000F0B8FB7148FEF70DFF2B462A46294671
:10925000CDE90056FFF706FB6D486AF0BBFE50B142
:1092600002206CF0E2FE2B462A462946CDE9005644
:109270006748FFF7F7FA0126664813F039F9664B9D
:1092800002201E704FF0000B6CF0CFFE03F0E2FAEC
:10929000089BC51A099B61EB0308604B1B78052BE3
:1092A00036D103F0BFF903F0D1FB01230793284621
:1092B00000234146228952F001F81A432CD0584B22
:1092C0001B7873BB002328464146228951F0F6FFE4
:1092D000013A1A4308BF01260522002328464146C9
:1092E00051F0ECFF53EA020132D1DFF82C8198F8FB
:1092F000003023B1474813F0FBF888F800B015F0B0
:1093000001052CD001238AF8003053F06CF8BDE73A
:1093100003F09CFB0023C9E71EB9414B1E78002EC9
:10932000DAD03A48FEF71CFF079BCDF804B0009353
:1093300001231A461946FFF795FA394B394883F845
:1093400000B054F029F9384854F026F90026B9E75E
:10935000013A1A4302BF01222F4B1A70CFE79AF845
:109360000030002BD1D031488AF8005054F090F8EA
:10937000431E5842584138702D4854F089F8421E17
:1093800050423B78504189F8000013B1254854F011
:10939000FDF899F8003013B1234854F0F7F83B7802
:1093A00099F80020D342B0D01848FEF763FD079B20
:1093B000CDF804B0009301231A461946FFF752FA7C
:1093C000184854F0E6F8184854F0E3F89DE700BF59
:1093D000EE760708FA7607080D7707084F77070833
:1093E00080AE00206977070872770708B57707080D
:1093F000EC7707082378070854780708647807088B
:10940000B2780708ED78070858AE0020C8F10708C1
:1094100031E2002030230020BFB70020D0B600206A
:10942000C0B700209CB8070884B807086CB80708C4
:1094300054B807082DE9FF478268CA4DD2B2052A01
:109440002A7000F2FB81C84E33889A4200F0F68100
:10945000C64C00924FF4AF61C54A20681DF04CF92C
:1094600052F03EFF23680246C24900205BF0EAFD4D
:1094700052F036FFC04F01462268BE481DF014F975
:1094800095F800803B78434508F1FF3388BF87F8A3
:109490000080042B35D803F0DDF9DFF8ECC22B781F
:1094A0000CEBC808C8E90001581E5CF833200CEB2F
:1094B000C00E5CF830000CEBC301121ADEF804C0D9
:1094C0004968AE4861EB0C0100EBC30C40F8332057
:1094D000CCF80410CDE900214FF4AF61A84A206810
:1094E0001DF00AF952F0FCFEA24902462368002052
:1094F0005BF0A8FD52F0F4FE226801469D481DF085
:10950000D3F82B78052B40F0A2809E499E4ADFF8C5
:10951000A492D2E90A3C0A88C9E9003C013292B21D
:109520000A80397803299FBF98480188013101805A
:109530000521012A39702068954F40F08281CDE9DC
:10954000003C4FF4AF61934A1DF0D6F852F0C8FECC
:1095500023680246874900205BF074FD52F0C0FE8C
:109560002268014683481DF09FF800231A46DFF861
:109570005082C7E9003240466AF02CFD864B87B224
:1095800095F80090188052F0ABFEC7F580614B460D
:10959000824A009008EB07001DF0AEF8276895F8A6
:1095A000008052F09DFE43464FF4AF617B4A00902D
:1095B00038461DF0A1F852F093FE236802466D492B
:1095C00000205BF03FFD52F08BFE226801466948A7
:1095D0001DF06AF802A8FEF7B1FC714F029B7149B9
:1095E0003B60039B70487B60FB79BA791DF070F893
:1095F0006E4B1B684BB16E48FEF734FD01231A46D3
:109600001946CDE90033FFF72DF90121032002F0BF
:109610003BFE01222220114602F05EFE01220B20B9
:10962000114602F059FE01222520114602F054FE97
:1096300001221D20114602F04FFE012202210020CE
:1096400002F04AFE01220221282002F045FE338862
:10965000052B40F0F1804C4F4FF00009BA46B84658
:1096600003F0F8F8EAE80201287809F10109484511
:10967000F6DA4FF0000CDFF804E13B46BA68D9682F
:109680000CF1010CD3E90093B2EB090261EB030387
:109690004EF8082F604507F10807CEF80430ECDAE1
:1096A00008EBC00258F830305268DFF81881414F9B
:1096B000C8E90032D7E900011B1A62EB0102CDE9CB
:1096C00000324FF4AF613C4A20681DF015F852F0AB
:1096D00007FE23680246274900205BF0B3FC52F0E6
:1096E000FFFD2268014623481CF0DEFFD8E9003266
:1096F000DFF8D4C0DFF8C880DCE900011B1842EBBA
:109700000102D7E900105B1A62EB00024046CCE987
:1097100000326AF05FFC204B87B295F80090188009
:1097200052F0DEFDC7F580614B46244A009008EBFD
:1097300007001CF0E1FF276895F8008052F0D0FD8B
:1097400043464FF4AF611D4A009038461CF0D4FFE9
:1097500052F0C6FD23680246064900205BF072FC09
:1097600034E000BFD0B60020C8A500208824002027
:10977000237907080F700708C1B7002008140020DC
:1097800038790708CEA5002038140020CCA5002089
:109790007014002061790708CAA500209E79070887
:1097A000C0AE00201D6C0708A7B70020EC220020E7
:1097B000C8F1070888140020A9790708C6790708A6
:1097C000D0AE0020801400207814002052F088FDD4
:1097D00022680124014630481CF066FF2F4B2146C9
:1097E00003201C7002F050FD224603211A2002F0D3
:1097F00073FD22460421102002F06EFD2246214610
:10980000222002F069FD224604210B2002F064FDB3
:1098100022462146252002F05FFD224621461D20DA
:1098200002F05AFD22460221002002F055FD224698
:109830000221282002F050FD2B78338004B0BDE8CF
:10984000F087DFF86080D8E900125B1A6CEB020247
:10985000CDE900324FF4AF61114A1CF04DFF52F0D8
:109860003FFD236802460C4900205BF0EBFB52F001
:1098700037FD2268014608481CF016FFD7E90001B1
:10988000D9E900321B1842EB0102D8E900105B1A3B
:1098900062EB00026BE600BF0F700708D1B6002034
:1098A000827907088014002084B010B58CB00EAC0B
:1098B00084E80F009DF87F30154C0B939DF87C30A9
:1098C0004FF48061AE3B0A939DF87D302046AE3B5D
:1098D0000993BDF876300F4A0893BDF874300793AA
:1098E0001B9B06931A9B0593199B0493189B039348
:1098F000179B0293169B01939DF894300093269B2F
:109900001CF0FAFE20460CB0BDE8104004B07047D1
:10991000D0B20020D17907082DE9F041AEB006465B
:109920000DF15B005CF025FD18B181B21C481CF004
:10993000BBFE9DF85B00B04203D81A482EB0BDE8CC
:10994000F081C00056F086F904460028F5D00146A3
:109950000DF15B005CF022FD18B181B212481CF0E1
:10996000A3FE04EBC607DFF8488017AD294638464A
:109970005CF02DFDFB79BA790C4940461CF0A8FE3D
:10998000204656F086F91BA949226846CDE913689E
:109990006AF013FB95E80F00FFF786FFCEE700BFE4
:1099A000B06B0708C8F10708E96B07081D6C0708CA
:1099B000A0B8002070B50D4604461D4E30461CF080
:1099C00073FE1C481CF070FE41F2356229461A48AD
:1099D0001CF06AFE19481CF067FE214618481CF06E
:1099E00063FE18481CF060FE214617481CF05CFE20
:1099F00005F020FB15481CF057FE15481CF054FEDE
:109A000014481CF051FE14481CF04EFE13481CF084
:109A10004BFE13481CF048FE12481CF045FE12484D
:109A20001CF042FE3046BDE870401CF03DBE00BF59
:109A300000F60708A97A0708DD7A0708FE7A070802
:109A40000F7B07084F7B0708637B0708BB7B070872
:109A5000117C0708617C0708BA7C0708187D070895
:109A6000547D0708AE7D0708097E070838B504460F
:109A7000064D4FF47A712846054B064A1CF03CFE11
:109A800021462846BDE8384052F015BCA5B8002054
:109A9000477E07082487080870B58EB005460CA8D5
:109AA0005CF03DFC0CA807F01BFB04460DF12E03F7
:109AB0000DF12D020BA90DF12B005CF0E7FCBDF8B8
:109AC0002E30134E08939DF82D30124A07939DF8BF
:109AD0002C304FF47A7106939DF82B303046059365
:109AE0000D4B099404930D4B03930D4B02930D4BB7
:109AF00001930D4B00930D4B1CF0FEFD204653F0DF
:109B000082FB2946304652F0D6FB0EB070BD00BF36
:109B1000A5B800204B7E0708EBB600203BB700201D
:109B2000D2B600202C740708B7B70020AFB70020CA
:109B300070B59AB004460DF117005CF01AFC02F003
:109B400089FE02F061FE2821024606A81CF0D4FD21
:109B500002F080FE104A10AED2E90032C01A61EB6A
:109B6000020102F051FE2821024630461CF0C4FDDD
:109B70009DF81730094D0293094B0A4ACDE900635D
:109B80004FF47A7106AB28461CF0B6FD21462846F4
:109B900052F091FB1AB070BD88140020A5B80020C7
:109BA000A7B70020F57E070838B501220446074B09
:109BB000074D1A704FF47A712846064A1CF09CFD36
:109BC00021462846BDE8384052F075BBC0B700209A
:109BD000A5B800204D7F070810B504460B486AF071
:109BE000F9F960B14FF47A71084B094A09481CF041
:109BF00083FD2146BDE81040064852F05CBB4FF49F
:109C00007A71054A03481CF077FDF2E731E2002043
:109C100024870808A5B80020687F070838B50446DF
:109C2000064D4FF47A712846054B064A1CF064FD38
:109C300021462846BDE8384052F03DBBA5B800207B
:109C4000AFB700202487080838B50446064D4FF406
:109C50007A712846054B064A1CF04EFD21462846DF
:109C6000BDE8384052F027BBA5B80020B7B70020A8
:109C70002487080838B50446064D4FF47A71284603
:109C8000054B064A1CF038FD21462846BDE8384001
:109C900052F011BBA5B800202C74070824870808CF
:109CA00038B50446064D4FF47A712846054B064AEE
:109CB0001CF022FD21462846BDE8384052F0FBBA90
:109CC000A5B80020D2B600202487080870B58AB055
:109CD00004462822002168466AF0C8F8A389002BB0
:109CE0003CD0204653F062F80546A0B36A461D49B1
:109CF00051F09AFD0646284653F027F85EB36846B1
:109D000019496AF048F968B95CF043FA41F28831C0
:109D1000872004F04FF95CF0F1FA52F056FB002076
:109D20000AB070BD684611496AF035F938B95CF07F
:109D300030FA41F28831872004F03CF9EDE76B46B8
:109D40000B4A4FF47A710B481CF0D6FC21460948A7
:109D500052F0B1FAE4E76B46074AF2E7074B084ACC
:109D6000EFE700BF7F7F0708847F07088E7F070823
:109D7000987F0708A5B80020AD7F07083BB70020F3
:109D80002487080838B50446064D4FF47A712846F2
:109D9000054B064A1CF0B0FC21462846BDE8384079
:109DA00052F089BAA5B80020EBB600202487080835
:109DB00038B5044602F04EFD02F026FD064D03467E
:109DC0004FF47A712846054A1CF096FC2146284635
:109DD000BDE8384052F06FBAA5B8002024870808C3
:109DE00038B50446074DFEF71DF94FF47A71284641
:109DF000054B064A1CF080FC21462846BDE8384049
:109E000052F059BAA5B80020A7B700202487080847
:109E100013B50023019383890446B3B10F498069C8
:109E200001AA51F001FD80B19DF80400FFF774FD17
:109E300003460B4A4FF47A710A481CF05DFC214638
:109E4000084852F038FA02B010BD0DF103005CF082
:109E500090FA9DF80330044AECE700BF08D10808E7
:109E600024870808A5B80020C47F070830B58BB048
:109E70000446114B114DD3E90A01CDE90801D3E99C
:109E80000801CDE90601D3E90601CDE90401D3E9D2
:109E90000401CDE902014FF47A71D3E90223284687
:109EA000CDE90023064A1CF027FC214628460BB0CA
:109EB000BDE8304052F0FFB908140020A5B80020DA
:109EC000D77F07087FB583890446E3B91E23ADF821
:109ED0000C30FA23ADF80E30BDF80E30134A009363
:109EE0004FF47A71BDF80C3011481CF005FCBDF838
:109EF0000E10BDF80C0052F0DDF921460C4852F06E
:109F0000DAF904B070BD52F051FF05460028DDD0EB
:109F100008490DF10E0303AA51F086FC06462846B7
:109F200052F013FF022ED1D1D6E700BFFA7F070807
:109F3000A5B80020F27F070838B5838905464BB3E2
:109F400052F034FF044628B3134907F0D9FC88B90E
:109F5000204652F0FAFE114853F018FB104A4FF415
:109F60007A7110481CF0C8FB2946BDE838400D48FE
:109F700052F0A1B920460C4907F0C2FC38B920467E
:109F800052F0E3FE054853F004FB084AE7E7204699
:109F900052F0DBFE064AE2E7228007089CB8070879
:109FA00029800708A5B80020378007083F800708E8
:109FB0004E80070838B50446064D4FF47A7128469E
:109FC000054B064A1CF098FB21462846BDE8384060
:109FD00052F071B9A5B80020D0AE0020248708083F
:109FE000F7B500230193838904460F4F73B152F0F4
:109FF000DDFE054650B10D4901AA51F015FC06469B
:10A00000284652F0A2FE0EB1019B3B813B89084AD3
:10A010004FF47A7107481CF06FFB2146054852F057
:10A020004AF903B0F0BD00BFD423002008D10808CE
:10A03000000A0908A5B80020F7B500230127CDE9DB
:10A0400000331F4E838905463760BBB152F0AEFE28
:10A05000044680B16B461B4901AA51F0E5FB02287A
:10A060001CD19DF80010184B3A469DF80400197059
:10A0700002F032F93060204652F067FE3368E3B9EF
:10A08000114B124A1B784FF47A7111481CF034FBC3
:10A0900029460F4852F00FF903B0F0BD0D496A464A
:10A0A000204651F0C1FB01280146E4D19DF8000093
:10A0B000054B187002F0E8F8DCE7074AE3E700BF59
:10A0C000CC2300201C8E070874240120000A0908F4
:10A0D000A5B8002008D108087A80070870B58CB0B0
:10A0E00000210646282202A8019169F0BFFEB3892B
:10A0F0005BB3304652F05AFE054678B3184901ABBF
:10A1000002AA51F091FB022815D1019902A801F091
:10A1100007FC0446284652F018FEBCB9019B114AC0
:10A120004FF47A7110481CF0E7FA31460E4852F0AD
:10A13000C2F80CB070BD28460C4902AA51F074FB5D
:10A14000012806D0284652F000FE0F242346084A74
:10A15000E6E701A902A801F0DFFCDAE71924F5E738
:10A1600099800708000A0908A5B800207F7F070822
:10A17000A180070838B583890546C3B152F016FEA1
:10A18000044640B102464FF47A710C4802F002F8DE
:10A19000204652F0DAFD4FF47A71094A09481CF062
:10A1A000ABFA2946BDE83840064852F084B84FF46F
:10A1B0007A71054A014801F0EDFFECE77770070876
:10A1C000AF800708A5B800209EF1070838B50446FF
:10A1D000074D02F053F84FF47A712846054A1CF0F7
:10A1E0008BFA21462846BDE8384052F064B800BFDB
:10A1F000A5B80020B780070838B5044602F0ECFF88
:10A20000064D02464FF47A7128461CF075FA214635
:10A210002846BDE8384052F04EB800BFA5B800202F
:10A2200038B5044602F026FE064D02464FF47A7118
:10A2300028461CF061FA21462846BDE8384052F015
:10A240003AB800BFA5B8002038B5044602F02EFE8B
:10A25000064D02464FF47A7128461CF04DFA21460D
:10A260002846BDE8384052F026B800BFA5B8002007
:10A2700008B582890AB9002008BD0549806969F0DE
:10A2800019FE0028F7D1FDF739FE0120F4E700BFE1
:10A29000BF80070837B504460A4B0B4D1B884FF4A7
:10A2A0007A710093094B0A4A1B8828461CF024FA4D
:10A2B0002046FFF7DDFF2146284603B0BDE83040C9
:10A2C00051F0F9BFCCA50020A5B80020CEA50020F4
:10A2D000C580070838B5044602F0BCFA0C4A0D4D9B
:10A2E000D2E90032C01A61EB020102F08DFA4FF49C
:10A2F0007A710346084A28461CF0FEF92046FFF70B
:10A30000B7FF21462846BDE8384051F0D4BF00BF12
:10A3100088140020A5B800202487080870B50446DA
:10A3200002F098FA0F4E104AD6E90056D2E90032F0
:10A330005B1B62EB0602181842EB010102F064FAA3
:10A340000A4D03464FF47A712846094A1CF0D4F9A5
:10A350002046FFF78DFF21462846BDE8704051F0AA
:10A36000AABF00BF8814002078140020A5B80020E0
:10A370002487080838B50B4B0446D3E9000102F0E6
:10A3800043FA094D03464FF47A712846074A1CF0F8
:10A39000B3F92046FFF76CFF21462846BDE8384058
:10A3A00051F089BF70140020A5B800202487080848
:10A3B0002DE9F743064602F04DFADFF89890DFF8F2
:10A3C0009880D9E90032D8E900545B1B62EB0402A3
:10A3D000181842EB010150F0ABFA00221A4B50F072
:10A3E000DDFA04460D4602F035FAD9E90032DFF80D
:10A3F0006CE0164FDEE900CE13EB0C0342EB0E02CD
:10A40000D8E900CEB3EB0C0362EB0E02181842EB56
:10A41000010150F08DFA0B4602462946204650F0C5
:10A42000E7FB0B4ACDE900014FF47A7138461CF086
:10A4300063F93046FFF71CFF3146384603B0BDE8EC
:10A44000F04351F038BF00BF00005940A5B80020CC
:10A45000CD80070878140020881400207014002094
:10A460002DE9F04FA7B0834602F0F4F9414D424C7C
:10A47000D5E90032D4E900679B1B62EB070218188C
:10A4800042EB010102F0C0F90DF148093B4F0246D1
:10A49000282148461CF030F9D7E9000102F0B4F950
:10A4A0000DF1700A0246282150461CF025F902F0F1
:10A4B000D1F9D5E900322668DFF8D8809B1B6668A1
:10A4C00062EB0602181842EB010150F031FA00224B
:10A4D0002B4B50F063FACDE9100102F0BBF9D5E93E
:10A4E0000032D7E900575B1942EB0702D4E9005468
:10A4F0005B1B62EB0402181842EB010150F018FAE2
:10A5000002460B46DDE9100150F072FB50F028FDC9
:10A5100050F0ECF9CDE90C9ACDE90E01194B1B88EE
:10A520000B93194B1B880A93184BD3E90A01CDE909
:10A530000801D3E90801CDE90601D3E90601CDE917
:10A540000401D3E90401CDE902014FF47A71D3E9A2
:10A5500002234046CDE900230D4A1CF0CDF85846B1
:10A56000FFF786FE5946404651F0A5FE27B0BDE8EC
:10A57000F08F00BF78140020881400207014002091
:10A5800000005940CCA50020CEA5002008140020D2
:10A59000D3800708A5B8002084B013B504AC84E8C4
:10A5A0000F00084C03460192009120464FF47A7147
:10A5B000054A1CF0A1F8204602B0BDE8104004B0E6
:10A5C000704700BFA5B800209181070884B010B57E
:10A5D00090B012AC84E80F009DF89030164C0F93A9
:10A5E000219B02920E93209B01910D931F9B4FF490
:10A5F0007A710C931E9B20460B931D9B0F4A0A9366
:10A600001C9B09931B9B08931A9B0793199B06930A
:10A61000189B0593169B0493159B0393BDF84A3032
:10A620000093BDF848301CF067F8204610B0BDE834
:10A63000104004B0704700BFA5B80020DB810708B8
:10A6400084B010B586B008AC84E80F000493BDF95F
:10A6500026300B4C0293BDF8243003920193BDF8D1
:10A6600022304FF47A7100932046BDF92030054A1C
:10A670001CF042F8204606B0BDE8104004B0704718
:10A68000A5B800209983070884B013B504AC84E80A
:10A690000F00074C0B4600904FF47A712046054A94
:10A6A0001CF02AF8204602B0BDE8104004B0704704
:10A6B000A5B800203C84070884B010B59CB01EAC3F
:10A6C00084E80F00BDF8DE30214C1A93BDF8DC3071
:10A6D0001993BDF8DA301893BDF8D8301793359B2D
:10A6E0001693349B1593339B1493329B1393319B96
:10A6F0001293309B11932F9B10932E9B0F932D9BA6
:10A700000E932C9B0D932B9B01920C932A9B0091F3
:10A710000B93299B4FF47A710A93289B0D4A099356
:10A72000279B0893269B0793259B0693249B0593C1
:10A73000239B0493229B0393219B02930346204671
:10A740001BF0DAFF20461CB0BDE8104004B0704793
:10A75000A5B800208284070810B58A8904460B46F4
:10A760000AB9002010BD0549986969F0A3FB0028CB
:10A77000F7D120465BF0EBFD0120F3E7BF8007082F
:10A7800030B59BB00E4C0546214600205BF058FDCD
:10A790000C4B04F1100118606422684669F00DFC4E
:10A7A00094E80F00FFF7F8FE29460020FFF7D4FFDA
:10A7B000294605481BB0BDE8304051F07CBD00BFC4
:10A7C00058230020CC230020A5B8002030B59BB032
:10A7D0000E4C0546214601205BF032FD0C4B04F186
:10A7E000100118606422684669F0E7FB94E80F00E6
:10A7F000FFF7ECFE29460120FFF7AEFF294605488A
:10A800001BB0BDE8304051F056BD00BF58230020BA
:10A81000CC230020A5B8002030B59BB00E4C0546D7
:10A82000214602205BF00CFD0C4B04F11001186076
:10A830006422684669F0C1FB94E80F00FFF700FF4F
:10A8400029460220FFF788FF294605481BB0BDE8CE
:10A85000304051F030BD00BF58230020CC230020F1
:10A86000A5B8002030B59BB00E4C0546214603200C
:10A870005BF0E6FC0C4B04F11001186064226846A2
:10A8800069F09BFB94E80F00FFF7FEFE29460320CA
:10A89000FFF762FF294605481BB0BDE8304051F084
:10A8A0000ABD00BF58230020CC230020A5B80020FB
:10A8B00030B59BB00E4C0546214604205BF0C0FC31
:10A8C0000C4B04F1100118606422684669F075FBB6
:10A8D00094E80F00FFF7F0FE29460420FFF73CFF45
:10A8E000294605481BB0BDE8304051F0E4BC00BF2C
:10A8F00058230020CC230020A5B8002070B50D4EB1
:10A900000446314605205BF09BFC0B4D0B4B4FF48E
:10A910007A7118600A4A336828461BF0EDFE21461A
:10A920000520FFF719FF21462846BDE8704051F089
:10A93000C2BC00BF58230020A5B80020CC230020B3
:10A94000BC8707082DE9F04389B0012614220021B5
:10A9500003A869F08BFA984B984F994C0093994B48
:10A9600068460197029404938DF80C6004F002FB92
:10A9700030B140F27731944B944A954802F006FF8B
:10A98000944BDFF8DC920093934B6846CDE9019439
:10A9900004938DF80C6004F0EDFA20B140F27F31A1
:10A9A000894B8A4AE9E78D4B6846CDE900398C4BE3
:10A9B000029404938DF80C6004F0DCFA20B140F2AC
:10A9C0008731814B814AD8E7864B68460093864B96
:10A9D0008DF80C60CDE90134844B049304F0CAFA7D
:10A9E00020B140F28F31784B784AC6E7804B814DD9
:10A9F0000093814B6846CDE9015404938DF80C60B7
:10AA000004F0B8FA20B140F297316F4B6F4AB4E7C7
:10AA10007A4B6846CDE90035794B029404938DF862
:10AA20000C6004F0A7FA20B140F29F31664B674AF0
:10AA3000A3E7744B6846CDE90035734B0294049349
:10AA40008DF80C6004F096FA20B140F2A7315E4B0D
:10AA50005E4A92E76D4B6846CDE900376C4B029435
:10AA600004938DF80C6004F085FA20B140F2AF3108
:10AA7000554B564A81E7674B6846CDE90035664B32
:10AA8000029404938DF80C6004F074FA20B140F243
:10AA9000B7314D4B4D4A70E7604BDFF8C8810093EA
:10AAA0005F4B6846CDE9018404938DF80C6004F097
:10AAB00061FA20B140F2BF31434B444A5DE70126C1
:10AAC000584B6846CDE90039574B029404938DF8F2
:10AAD0000C6004F04FFA20B140F2C7313A4B3B4AC8
:10AAE0004BE7524B6846CDE90037514B0294049333
:10AAF0008DF80C6004F03EFA20B140F2CF31324BB9
:10AB0000324A3AE74B4B6846CDE900384A4B02944B
:10AB100004938DF80C6004F02DFA20B14FF4767197
:10AB2000294B2A4A29E7454B68460093444B8DF848
:10AB30000C60CDE90134434B049304F01BFA20B1BF
:10AB40004FF47871204B214A17E73F4B6846CDE917
:10AB500000383E4B029404938DF80C6004F00AFA1E
:10AB600020B14FF47A71184B184A06E7384BDFF8DA
:10AB7000F8900093374B6846CDE9019404938DF823
:10AB80000C6004F0F7F920B14FF47C710E4B0F4AC2
:10AB9000F3E6314B6846CDE90038304B029404931C
:10ABA0008DF80C6004F0E6F900285FD04FF47E7158
:10ABB000054B064AE1E600BFDF870708E98707087B
:10ABC000EE870708999A0008F38707089C8B070807
:10ABD00033880708418807081D9C00085288070829
:10ABE000499C00085D88070869880708759C00086B
:10ABF0006D880708DA3E0908A19C00087F880708CD
:10AC0000CD9C000891880708859D00089F8807084B
:10AC1000319B0008AB880708A99B0008B888070883
:10AC2000B19D0008CD880708E19D0008DC88070871
:10AC3000119E0008ED880708D5A20008FF880708C4
:10AC40001F8907086D9E00082589070875A300085D
:10AC50004889070895A20008688907081DA300080D
:10AC60004E880708C888070864890708994B684612
:10AC70000093994B8DF80C60CDE90134974B049308
:10AC800004F078F920B14FF48061954B954A74E651
:10AC9000954BDFF800830093944B6846CDE901881B
:10ACA00004938DF80C6004F065F920B140F209417D
:10ACB0008B4B8C4A61E68E4B6846CDE900388D4B54
:10ACC000CDF8088004938DF80C6004F053F920B19E
:10ACD00040F21241824B834A4FE60126864B68467A
:10ACE000CDE90035854B029404938DF80C6004F097
:10ACF00041F920B140F21C41794B7A4A3DE6804B44
:10AD00006846CDE900377F4B029404938DF80C60C0
:10AD100004F030F920B140F22741714B714A2CE622
:10AD2000794B6846CDE90037784B8DF80C6002937B
:10AD3000774B049304F01EF920B14FF48661684B01
:10AD4000684A1AE6734B6846CDE90037724B8DF8B6
:10AD50000C600293714B049304F00CF920B14FF492
:10AD600087615F4B5F4A08E66D4B6846CDE9003767
:10AD70006C4B8DF80C6002936B4B049304F0FAF863
:10AD800020B14FF48861564B564AF6E5674B68464A
:10AD9000CDE90037664B8DF80C600293654B049348
:10ADA00004F0E8F820B14FF489614D4B4D4AE4E5D9
:10ADB000614B6846CDE90037604B8DF80C6002931B
:10ADC0005F4B049304F0D6F820B14FF48A61444BF2
:10ADD000444AD2E55B4B6846CDE900375A4B8DF8C3
:10ADE0000C600293594B049304F0C4F820B14FF463
:10ADF0008B613B4B3B4AC0E5554B564F0093564B3E
:10AE000068460193554B029704938DF80C6004F04B
:10AE1000B1F820B140F26141314B324AADE5504BBF
:10AE2000684600934F4B8DF80C60CDE901374E4BCF
:10AE3000049304F09FF820B140F26941284B294A5D
:10AE40009BE50124494B6846CDE90039484B029700
:10AE500004938DF80C4004F08DF820B140F273415A
:10AE60001F4B204A89E5434B6846CDE90035424BEC
:10AE7000029704938DF80C4004F07CF820B140F266
:10AE80007C41174B174A78E53C4B6846CDE90035C5
:10AE90003B4B8DF80C4002933A4B049304F06AF854
:10AEA00020B140F285410E4B0E4A66E5364B374ED7
:10AEB000CDE90035364B6846029604938DF80C4078
:10AEC00004F058F8002867D040F28D41044B054A41
:10AED00053E500BF88890708A5890708B1A30008C2
:10AEE000F38707089C8B0708AB890708C59E0008F5
:10AEF000BC890708399F0008CA890708B59F000860
:10AF0000D389070861A40008E78907084C78080876
:10AF100081A70008FD8907080F8A0708CDA7000848
:10AF2000138A0708258A070819A800082A8A07082B
:10AF30003C8A070865A80008428A070859150908CD
:10AF4000B1A800085C8A07081FB20808FDA800081D
:10AF5000798A07088D8A070833940708E19F00085B
:10AF6000968A0708889A080839A00008AC8A07085A
:10AF7000DDA00008C08A07086D9A0008DE8A07086D
:10AF8000EE8A0708D99B0008F78A0708078B07088D
:10AF900075A10008B7890708264B6846CDE900353A
:10AFA000254B029604938DF80C4003F0E3FF20B18B
:10AFB00040F29541214B224ADFE4224B224ECDE95B
:10AFC0000035224B6846029604938DF80C4003F03E
:10AFD000D1FF20B14FF49461184B194ACDE41C4BBA
:10AFE0006846CDE900351B4B029604938DF80C4062
:10AFF00003F0C0FF20B14FF49561104B104ABCE440
:10B00000154B6846CDE90035144B029604938DF834
:10B010000C4003F0AFFF20B14FF49661074B084A94
:10B02000ABE4322226210E481BF03EFB262009B05D
:10B03000BDE8F0830C8B0708CDA10008F387070853
:10B040009C8B07081B8B0708318B0708F9A10008A8
:10B050003F8B070821A20008518B070849A200086E
:10B06000658B0708F0B589B007461822002102A8B1
:10B0700068F0FCFE454D002F59D00BF061F800261A
:10B08000431F5842424C58410002039020680796E3
:10B0900008B115F06BF84FF4A05304934FF48853A4
:10B0A000ADF808303B4B202205933B49384B02A8B2
:10B0B000266057F081FC0646E0B103464FF4AF61CD
:10B0C000364A28681BF018FB51F00AF92B68024633
:10B0D0003349002059F0B6FF51F002F92A680146C1
:10B0E0002F481BF0E1FA012402A858F0AFFA2046DD
:10B0F00009B0F0BD20685BF058FA0446002833D050
:10B1000033464FF4AF61274A28681BF0F5FA51F037
:10B11000E7F82B6802462249002059F093FF51F0CE
:10B12000DFF82A6801461E481BF0BEFADCE7384605
:10B130005BF00BFA0446F8B928681B4B4FF4AF617B
:10B140001A4A1BF0D9FA51F0CBF82B680246144981
:10B15000002059F077FF51F0C3F82A6801461048E3
:10B160001BF0A2FA0024BFE701205BF0EEF90446D1
:10B1700010B928680E4BE1E700943B464FF4AF61ED
:10B180000C4A28681BF0B8FAC1E700BF88240020E9
:10B19000D02300200500800375240120B48B07080C
:10B1A0000F700708DD8B0708398208084C8C0708E8
:10B1B00023820808178C0708F0B58DB08378044601
:10B1C000942B1AD0952B5AD0604C4FF4AF61604A43
:10B1D00020681BF091FA51F083F8236802465D491C
:10B1E000002059F02FFF51F07BF8014622685948A2
:10B1F0000DB0BDE8F0401BF057BA544D043402AE18
:10B200003146204605F0E4FD33464FF4AF61524A23
:10B2100028681BF071FA51F063F82B6802464D491B
:10B22000002059F00FFF51F05BF82A6801464948A9
:10B230001BF03AFA20465BF09BF9B8B933464FF45D
:10B24000AF61464A28681BF057FA51F049F8414966
:10B2500002462B68002059F0F5FE51F041F80146F6
:10B260002A683C481BF020FA0DB0F0BD009603465A
:10B270004FF4AF613A4A28681BF03EFAE5E702ADA9
:10B280002946043005F0A4FD6669012E35D0022E52
:10B290003CD0002EE8D1334F2C4C2846324A396836
:10B2A00000F078FF2B464FF4AF61304A20681BF066
:10B2B00023FA51F015F8236802462649304659F022
:10B2C000C1FE51F00DF82268014622481BF0ECF94E
:10B2D00000954FF4AF613B68254A20681BF00CFADB
:10B2E00050F0FEFF1B4902462368002059F0AAFED9
:10B2F00050F0F6FF22680146B3E7144C2B464FF49A
:10B30000AF611C4A20681BF0F7F9E9E70F4C00F029
:10B31000B5FF2B464FF4AF61174A20681BF0ECF9DC
:10B3200050F0DEFF236802460A49002059F08AFEE9
:10B3300050F0D6FF2268014606481BF0B5F94FF4DD
:10B34000AF610E4A20681BF0D7F9C9E788240020B6
:10B35000A68D07080F700708608C0708888C0708FF
:10B36000B08C0708901C01209EF10708F08C07089C
:10B37000188D0708408D0708608D0708878D07081E
:10B380001FB5002304464FF48061CDE90233314AF2
:10B39000034631481BF0B0F92046304902AB03AAFE
:10B3A00050F042FA022812D101229DF808109DF8AF
:10B3B0000C0000F091FF029B4FF480610093284A3B
:10B3C000039B25481BF098F9234804B010BD204684
:10B3D000244902AA50F028FA012818D1029B012121
:10B3E000032B0393C4BF032302939DF8080000F0CE
:10B3F0004BFFDDE90223934218BF13464FF48061EF
:10B4000014BF194A194A14481BF076F9DCE72046A4
:10B41000174968F0C0FD30B9164A4FF480610E48F4
:10B420001BF06AF9D0E72046134968F0B4FD08B96B
:10B43000124AF2E72046124968F0ADFD0028C3D158
:10B44000104868F0C7FD01460F4B0E48002908BFA1
:10B450001846BAE7E28D07088DBC0020068E070863
:10B46000228E0708488E0708618E0708D38E0708CA
:10B47000FB8E07080F8F07082B8F0708408F0708E0
:10B480005C8F070831E20020687F070800B58BB0A9
:10B4900002F0F6F9FFF756FA2022002102A868F020
:10B4A000E5FC0D4B182201934FF420530B49CDE9D5
:10B4B00006320B480B4A1BF0F7F800210A4801AA94
:10B4C0000AF0DAFF28B95C21084B094A034802F068
:10B4D0005DF90BB05DF804FB6F8F0708788F0708E4
:10B4E000868F0708FB8F0708898A0008DF8F070807
:10B4F000F28F0708F8B5002005F03AFD0025044654
:10B50000074F6E1C04B9F8BD201D05F0FBFCE9B225
:10B51000024638461BF0C8F835466469F1E700BFBB
:10B520000490070870B57C4C7C4E4FF4AF613368D3
:10B530007B4A20681BF0E0F850F0D2FE794D23687A
:10B5400002462946002059F07DFD50F0C9FE2268D0
:10B55000014628461BF0A8F8B3884FF4AF61724A41
:10B5600020681BF0C9F850F0BBFE2368024629464C
:10B57000002059F067FD50F0B3FE226801462846CE
:10B580001BF092F8F3884FF4AF61684A20681BF013
:10B59000B3F850F0A5FE236802462946002059F072
:10B5A00051FD50F09DFE2268014628461BF07CF8B4
:10B5B00033894FF4AF615E4A20681BF09DF850F06C
:10B5C0008FFE236802462946002059F03BFD50F0CB
:10B5D00087FE2268014628461BF066F873894FF4FF
:10B5E000AF61544A20681BF087F850F079FE236859
:10B5F00002462946002059F025FD50F071FE2268D0
:10B60000014628461BF050F8337B4FF4AF614A4A9D
:10B6100020681BF071F850F063FE2368024629464B
:10B62000002059F00FFD50F05BFE226801462846CD
:10B630001BF03AF8737B4FF4AF61404A20681BF06F
:10B640005BF850F04DFE236802462946002059F071
:10B65000F9FC50F045FE2268014628461BF024F80C
:10B66000B6F90E304FF4AF61354A20681BF044F84C
:10B6700050F036FE236802462946002059F0E2FCCD
:10B6800050F02EFE2268014628461BF00DF8337C50
:10B690004FF4AF612B4A20681BF02EF850F020FECB
:10B6A000236802462946002059F0CCFC50F018FED1
:10B6B0002268014628461AF0F7FF737C4FF4AF6109
:10B6C000214A20681BF018F850F00AFE2368024651
:10B6D0002946002059F0B6FC50F002FE22680146CF
:10B6E00028461AF0E1FF738A4FF4AF61174A2068C9
:10B6F0001BF002F850F0F4FD2946024623680020B2
:10B7000059F0A0FC50F0ECFD226801462846BDE847
:10B7100070401AF0C9BF00BF88240020D423002045
:10B72000149007080F7007083D90070865900708F8
:10B730008D900708B5900708DD9007080591070868
:10B740002D910708559107087D910708A5910708D5
:10B7500042F21072044B05481A600022C3E902024B
:10B76000034A1A61704700BFD42300208403FFFFFF
:10B770001620F40137B5174814234FF21201164A68
:10B78000006807F021FF0446E0B11423134D2D2C6F
:10B790002868009301944FF2120316D1104A4FF417
:10B7A000AF611AF0A9FF50F09BFD0E4902462B68CD
:10B7B000002059F047FC50F093FD2A6801460948E3
:10B7C0001AF072FF204603B030BD632C0CBF064A4E
:10B7D000064AE4E78C1F0120D4230020882400209F
:10B7E000D49107080F70070849920708F9920708D3
:10B7F00037B51A4814234FF21201194A006808F0AD
:10B800006BF8184D0446E0B11423019000934FF4F7
:10B81000AF614FF21203144A28681AF06DFF50F01E
:10B820005FFD024600202B68104959F00BFC50F0D8
:10B8300057FD2A6801460D481AF036FF204603B02E
:10B8400030BD4FF4AF610A4A28681AF055FF50F036
:10B8500047FD2B68024605492046E6E78C1F01207C
:10B86000D4230020882400205E9307080F70070867
:10B87000C4930708F8B508F013FA0446B8B1234D8D
:10B880004FF4AF61224A28681AF036FF50F028FDC5
:10B89000204902462B68002059F0D4FB50F020FDCF
:10B8A0002A6801461B481AF0FFFE2046F8BDFFF744
:10B8B00061FF194E48B9FFF735FE0025728A717C89
:10B8C000307C5AF0A2FD2C46EFE7FFF741FF012341
:10B8D0007360FFF78DFF0D4F4FF4AF610F4A0546C0
:10B8E00038681AF009FF50F0FBFC0A4902463B6831
:10B8F000204659F0A7FB50F0F3FC3A680146054892
:10B900001AF0D2FE002DD6D0D8E700BF8824002040
:10B91000E29307080F700708D4230020FB93070861
:10B920002DE9F3410C466A49064605F0E9FF694DE9
:10B9300028B33046684905F0E3FF0746002839D1AF
:10B94000DFF8A081A0B2A8F80A005AF040FEB8F8CB
:10B950000A304FF4AF61614A28681AF0CDFE50F00A
:10B96000BFFC2B6802465E49384659F06BFB50F02D
:10B97000B7FC2A6801465A481AF096FE01E0594B76
:10B980001C81009433464FF4AF61574A28681AF07F
:10B99000B3FE50F0A5FC2B6802465149002059F037
:10B9A00051FB50F09DFC2A6801464D481AF07CFE80
:10B9B000002089E030464D4905F0A2FF20B9494BEF
:10B9C00004B91C731C7BDCE73046494905F098FF3D
:10B9D0000028F4D03046474905F092FF58B1304670
:10B9E000454905F08DFF48B9FFF7B2FE002CC8D0DD
:10B9F000FFF7FEFEC5E73B4BDC81C2E730463F491F
:10BA000005F07EFF50B330463D4905F079FF40B365
:10BA100030463C4905F074FF30B330463A4905F0F2
:10BA20006FFF20BB23464FF4AF61384A28681AF0F5
:10BA300063FE50F055FC024600202B68284959F05F
:10BA400001FB50F04DFC2A68014625481AF02CFEF7
:10BA500020466AF0EAFA54F007F892E7214B1C748A
:10BA60008FE7204B5C748CE71E4B5C8289E7304685
:10BA7000274905F045FF074678B95AF03FFC2346B1
:10BA80004FF4AF61214A28681AF036FE50F028FCC6
:10BA90002B68024612493846D1E733464FF4AF616E
:10BAA0001C4A28681AF028FE50F01AFC2B6802463F
:10BAB0000B49002059F0C6FA50F012FC2A680146E2
:10BAC00007481AF0F1FD0F2002B0BDE8F08100BF79
:10BAD000299407088824002037940708A8760708C7
