S02B00002F686F6D652F6876742F776973756E5F64656D6F2F53696C616273436F4170705765625261737050AE
S3150800600008140020D9BB0008E3D00508F94B060898
S31508006010E3D00508E3D00508E3D00508E3D0050872
S31508006020E3D00508E3D00508E3D00508E3D0050862
S31508006030E3D00508A485070891160108E3D00508EA
S31508006040E3D00508E3D00508E3D00508E3D0050842
S31508006050E3D00508E3D00508E3D00508E3D0050832
S31508006060E3D00508E3D00508E3D00508BD660208B5
S31508006070DD4B0608E3D00508E3D00508E3D005089C
S31508006080E3D00508E3D00508E3D00508E3D0050802
S31508006090E3D00508E3D0050819C70008E3D00508CA
S315080060A0E3D00508E3D0050825C3000805C30008A2
S315080060B0E3D00508E3D00508E1E60208D9F10208AD
S315080060C0435806083F58060851E902085958060871
S315080060D047580608A9F102084B58060819F202089B
S315080060E005F30208E3D00508E3D00508E3D0050860
S315080060F0E3D00508E3D00508E3D00508E3D0050892
S31508006100E3D00508E3D00508E3D00508E3D0050881
S31508006110E3D00508E3D00508E3D00508E3D0050871
S31508006120E3D00508E3D00508E3D00508E3D0050861
S31508006130E3D00508E3D00508E3D00508E3D0050851
S31508006140E3D00508E3D00508E3D005087121010866
S31508006150E3D00508E3D00508276607082DCA020814
S31508006160E3D00508E3D00508335806083958060869
S31108006170E3D00508E3D00508E3D00508D5
S3150800617CF0B5114A114C124E00F00105E3695F07A0
S3150800618C13D40DB9334213D103EA00078F4207D152
S3150800619C0B4A1A40002A0CBF00206FF00100F0BD14
S315080061AC013AEBD16FF00200F9E74FF0FF30F6E752
S315080061BC6FF00100F3E700BF8096980000000350CB
S315080061CC020001000B4B70B5D96911F480310DD161
S315080061DC01244FF48072084E084DF46020462C6456
S315080061EC1A61FFF7C5FF3464EC6070BD6FF00100EF
S315080061FCFBE700BF000003500010035000200350BB
S3150800620CC0F30C0370B5054623B140F21A211148A8
S3150800621C00F0A2F84FF480320F4B104C9A66E669E0
S3150800622C41F6713316400122E3630D4B0021DA6007
S3150800623C0223656121202361FFF79AFF10B92120FB
S3150800624CFFF796FF0122074BDA600EB10023E363D2
S3150800625C70BD00BF3F89070800900050000003502E
S3150800626C001003500020035070B5134C6061E369AD
S3150800627C5B071ED40E4656F8043B8D18A361AE4236
S3150800628C0BD10423002121202361FFF771FF58B994
S3150800629CBDE870402120FFF76BBF08210846FFF7C1
S315080062AC67FF10B10423236170BD56F8043BA36144
S315080062BCE5E74FF0FF30F7E7000003502DE9F84308
S315080062CC154682070F46064604D040F266211E483C
S315080062DC00F042F8AB0704D04FF41A711A4800F0D4
S315080062EC3BF84FF48032194BDFF868909A6603F541
S315080062FC1C33DA6902F4803841F67132DA6301220A
S3150800630C03F58053DA6065B928460122104BDA602A
S3150800631CB8F1000F03D00022A3F50053DA63BDE8E9
S3150800632CF88306F5005404EA0904A41BAC4228BFFA
S3150800633C2C46394622463046FFF796FF0028E4D10C
S3150800634C264427442D1BDEE73F890708009000509A
S3150800635C0020035000E0FFFF5FF800F031670208E9
S315080063702DE9F04100231546C2E900014FF47A726F
S3150800638080460F4620F0EEFF18A3D3E90023044603
S315080063900E464046394620F0E5FF134B80B2288169
S315080063A05843241A66F100064FF46162002320461A
S315080063B0314620F0D7FF4FF46163C0B2A872584344
S315080063C0241A20464FF03C024FF0000366F1000104
S315080063D020F0C8FFC0B2E872C0EB0010A4EB80043E
S315080063E02C73BDE8F08100BF80510100005C2605D2
S315080063F000000000000000002DE9F843161E1F46A5
S3150800640006DA7242D31782428B410AD3212074E0FE
S31508006410F31734184B414FF0000228BF0122002A17
S31508006420F4D13D4B83424FF049038B41EED33518E7
S3150800643041EBE67928463C220023494620F092FFA4
S3150800644000233A703C2220F08DFF00237A70182230
S3150800645020F088FF04460130BA7088464FF00702DC
S3150800646041F10001002320F07DFF28463A72494693
S3150800647027A3D3E9002320F075FF85B2042D3ED962
S3150800648005F26C75A9B240F26C7059F034FB201A0B
S315080064904FF0000368F1000140F26D1220F062FF30
S315080064A085B205F26C7189B240F26C7059F023FB23
S315080064B001462846FD8059F02EFB40F26D13641AFA
S315080064C04FF00C014FF0000203FB05F568F10008D8
S315080064D0641B04F101037B81104B68F1000801FB82
S315080064E00030D3B2C35C511C9C4278F1000508D237
S315080064F0002001343A71FC70FE60BDE8F883002183
S31508006500D7E7E31A1C460A4668F10008E9E700BF20
S315080065108033E101000000007FBD6879CB99070848
S315080065202DE9F04F93B0CDE90A32DDE91C530E93FD
S3150800653053EC102BCDE90801104619468DED060BD4
S315080065401E9E20F0F5FD80B1DDE906014FF0FF3211
S31508006550C54B20F015FE40B9DDE906014FF0FF32C4
S315080065606FF4801320F0EEFD70B1DDE908019DEDB2
S31508006570060B0E9B1E96CDE91C53DDE90A3213B0B5
S31508006580BDE8F04F00F088B90022DDE906010023D6
S3150800659020F0D8FD002800F03381DDE906A303F1D9
S315080065A0004BCBF30A5016F48063A0F2FF3008BF05
S315080065B006250F9320F0EAFA9BA3D3E9002320F0DF
S315080065C04FFB9BA3D3E9002320F094F9CBF31304E4
S315080065D0894644F07F5180460022A44B504641F438
S315080065E0401120F085F994A3D3E9002320F038FB65
S315080065F002460B464046494620F07CF920F0CAFD83
S31508006600044620F0C3FA8EA3D3E9002380468946C0
S3150800661020F026FB0022964B20F06CF920F0BAFDFC
S3150800662089A3D3E9002307464946404620F018FBCC
S3150800663080463846894620F0A9FA85A3D3E900237F
S3150800664020F00EFB02460B464046494620F050F91C
S3150800665002460B46CDE90C2320F002FBDDE90C23AC
S31508006660804689461046194620F044F90022CDE9AD
S315080066701001804B4046494620F01CFC00227E4B08
S3150800668020F038F902460B464046494620F012FCEF
S3150800669000227A4B20F02EF902460B464046494620
S315080066A020F008FCDDE90C238046894600204FF0DF
S315080066B0804120F01DF902460B464046494620F027
S315080066C019F902460B46DDE9100120F0F3FB07F243
S315080066D0FF3700226A4B20F00DF900223B0520F017
S315080066E0BFFA52465B468046894620F049FD002897
S315080066F040F08980CDE90C8904F16303C72B34BFC8
S315080067000427052731051BD553A3D3E90023504693
S31508006710594620F02BFD00287FD051A3D3E900234A
S315080067205046594620F00EFD002876D00027A5428F
S31508006730C6BF2C1B04F1FF3500253C4646F480668F
S315080067400E9B9F422CBF4FF00008A3EB070816F0DC
S31508006750020903D0002F18BF4FF000083CB1DDE94D
S315080067600C235046594620F0A5FB82468B46DDE9A8
S3150800677006010022002320F0E5FC10B10BF10043CE
S315080067809B46DDE9080126F40063CDE90183DDE9CE
S315080067900A324BEC10AB009500F07EF802465FB368
S315080067A0DDE9091316F0200F00F10105089E0CBF5C
S315080067B065204520B047DDE9080105230022059339
S315080067C00A23002CCDE9023207F1FF374FEAD473CA
S315080067D0B8BF64422A46019304970A9B00945EF068
S315080067E062F80246B9F1000F06D00B9BC41A0B9B40
S315080067F01A190E9BA34245D8104613B0BDE8F08F70
S31508006800DDE906ABCDE60022404649461A4B20F0A4
S3150800681051FB013CCDE90C016EE7002D90D00F9B92
S31508006820002B8DD0013D8BE7FB799F501344D33F56
S31508006830B3C8608B288AC63F61436F63A787D23F78
S3150800684071A379094F930A401655B5BBB16B02403F
S31508006850EF39FAFE422EE63F2D431CEBE2361A3F8D
S315080068600000000080842E41FFFFEF7F0000F83F04
S315080068700000E03F00002C400000244000001840C3
S315080068800000F03F2020DDE90913089DA8470134E0
S31508006890ADE700BF000000002DE9F04F5BEC10AB40
S315080068A097B0CDE90501DDE92057CDE90723504624
S315080068B052465B465946229E20F03AFC70B903239D
S315080068C0CDE902760193B04B0093DDE90501DDE9D8
S315080068D007235DF008FF17B0BDE8F08F4FF0FF32D1
S315080068E06FF480135046594620F02CFC28B1042337
S315080068F0CDE902760193A54BE6E74FF0FF32504605
S315080069005946A34B20F03CFC68B1A24A06F00403A2
S31508006910002B08BF0322A04B1CBF13460422CDE957
S3150800692002760192D0E7504693A3D3E9002359464D
S3150800693020F026FC38B992A3D3E9002350465946DD
S3150800694020F000FC68B1DDE90723DDE905014BEC21
S3150800695010ABCDE92176209517B0BDE8F04FFFF7CB
S31508006960DFBD002200235046594620F0EBFB0028E5
S3150800697000F09A805B465246002000211FF0B8FFBF
S31508006980012382468B46099316F4806400F08E80B4
S31508006990092D40F28E80002430210EABA5F10902A4
S315080069A00134202C03F8011BA5EB040901D09442FD
S315080069B0F6D15946504620F0EDFB784B054603EBD9
S315080069C0C90393ED007B8DED0A7B20F0DFF80246C4
S315080069D00B46504659461FF08BFFDDE90A2320F087
S315080069E03FF902460B46CDE90C2320F0FBFB804617
S315080069F020F0BCF802460B46DDE90C011FF078FFD3
S31508006A0002460B46CDE90C230022654B20F0B8FB65
S31508006A10002851D008F10108404620F0A7F80246A0
S31508006A200B46DDE90A0120F097FB10B14FF000088C
S31508006A300135B9F1000F50D1284620F0A7F80246D3
S31508006A400B46504659461FF053FF0022544B8046CA
S31508006A50894620F077FB30B1002240464946504B24
S31508006A6020F08EFB10B1E80700D501350A210EABE0
S31508006A701A19202C0AD095FBF1F001FB1055303578
S31508006A8002F8015B013405460028F2D106F003023C
S31508006A90012A57D1002F55D0099A12B916F00C0FB2
S31508006AA000D0013F302245E009906DE74FF0060916
S31508006AB07FE7A94600247CE70022DDE90C01384B74
S31508006AC020F040FB0028B4D1B8F1000F02D018F02E
S31508006AD0010FAED008F10108ABE70A210EAB23443B
S31508006AE0202C0ED0B8FBF1F001FB1082B8F1090F8B
S31508006AF002F1300209F1FF3904F1010403F8012B10
S31508006B0011D83021A1440EAA202CAFD0A14504F1FA
S31508006B1001030AD11C4609F158030DEB03092E237C
S31508006B2009F8203CA2E78046DAE7A1541C46EBE7C1
S31508006B301A550134A74205D9202CF9D1CDE9027698
S31508006B400194C1E6202CF9D0099A3AB12D2104F115
S31508006B5058026A4402F8201C0134EFE7710704D58D
S31508006B6004F158022B216A44F4E73207E6D504F10A
S31508006B70580220216A44EDE70000000065CDCD41AA
S31508006B800000000065CDCDC123AA070827AA07087B
S31508006B90FFFFEF7F1AAA07081FAA070830AA0708E7
S31508006BA00000E03F00000000F0B5934C9FB022883B
S31508006BB0A3780021ADF80C2013A82C228DF80E30EE
S31508006BC05EF0FCF84FF00233159340F20B130AAD52
S31508006BD00434ADF874300FCC0FC50FCC0FC523683D
S31508006BE0864A2B60864B874D06930023CDE90733EB
S31508006BF009934FF0FF33284683492B6028F08EFC13
S31508006C000446002853D12868431C06D140F2A44103
S31508006C107E4B7F4A7F481FF073FD03A928F0BCFC12
S31508006C200446002843D128685EF0E5F97A4E7B4F82
S31508006C30307028685EF0E1F9387028685EF0DFF990
S31508006C40774B78491870286828F0A4FF044600286E
S31508006C502DD13378744E4BB974482DF03DFA306017
S31508006C60D0B940F2DC41724B694AD3E771482DF03E
S31508006C7033FA30600028EFD0C189286828F0EEFE84
S31508006C803368214658682DF061FA044678B9674892
S31508006C902DF022FA306090B1C189286828F0DEFE0E
S31508006CA03368042158682DF051FA044638B1234652
S31508006CB022210220604A5FF036F91FB0F0BD09F0C4
S31508006CC01BFC5E4BCDE9040104AAA3F1080112F8E6
S31508006CD0010B03F8010D9942F9D13B78002B46D1F7
S31508006CE0574928685EF0B3FE04460028DFD15549A7
S31508006CF028685EF096FE04460028D8D152492868CE
S31508006D0028F04CFD04460028D1D139A3D3E9002345
S31508006D10CDE9002328685EF09CFE04460028C6D10B
S31508006D204A4A4B4928685EF0F4FE04460028BED15C
S31508006D30484A494928685EF0F0FE04460028B6D15C
S31508006D400121286828F046FC04460028AFD1A02374
S31508006D50424A06A8D380424A136009F0A1FC414B77
S31508006D60186088B940F225513F4B294A52E71C2240
S31508006D70002116A85EF022F8286813A929F006F95A
S31508006D8004460028ACD092E722460121082009F0E3
S31508006D90E1FD364B186020B94FF4A561344B1C4A07
S31508006DA038E722460121082009F0D4FD314B186046
S31508006DB020B940F22B51304B154A2BE72F4A304960
S31508006DC030482EF0B9FF2F4849F074FE00212E48AE
S31508006DD00AAA09F019FD2D4B186000287FF46DAF3B
S31508006DE040F237512A4B0A4A14E700BFAFF3008036
S31508006DF0C88D01C103400000807F0808393E03089A
S31508006E009B740808B49D0020A0220120B0740808CD
S31508006E10817E08086A720808C3100120C210012082
S31508006E20C110012007001100708D00208974060822
S31508006E30D77408087374060862750808CC10012010
S31508006E407E7F08087C7F0808B89D0020EA23012079
S31508006E50F0180020EC230120AC8D0020E022012050
S31508006E60209E0020349E0020EF740808309E0020E3
S31508006E700B7508082C9E0020287508084875080810
S31508006E80F5420308D49D00205D540308389E00206F
S31508006E9051750808000000002DE9F34705465A4CCD
S31508006EA022211020594A5FF03EF81422294620462E
S31508006EB05DF0DCFEA27B564BDFF8A0A11A70637C5E
S31508006EC000228AF800300023CDE90023DFF89081FC
S31508006ED000224FF40073D8F800005EF0BAFD0646AB
S31508006EE020B10126304602B0BDE8F087494B4A4F2B
S31508006EF01B787BB949482DF0EFF804463C60FCB98D
S31508006F00474A222102205FF00EF80122454B21262E
S31508006F101A70E7E7444B454C1A88454BD8F80000E9
S31508006F2053F82210434A8B6821603B6028F020FC06
S31508006F302268414B946824221B8802FB0344DDE740
S31508006F403E4B1C60394BD3F80090B9F1000F07D0BF
S31508006F5000232420D9F80C108B4208D100251AE00A
S31508006F6040F2ED71364B374A37481FF0C9FBD9F85E
S31508006F70085000FB0355EA695278120912F00E0F01
S31508006F802BD0052A29D8314B0021EA89B3F900000C
S31508006F903D602DF013F91AA3D3E90023CDE90023A8
S31508006FA0D8F800005EF055FDD9F80820AA4207D0A7
S31508006FB0274B3A600421D289B3F900002DF0FEF878
S31508006FC0244BE2893C601A80234B1B783BB92EF090
S31508006FD0FDF801202DF088FD84E70133BCE79AF817
S31508006FE000301B0913F00E0FF1D101220721D8F842
S31508006FF000005EF05CFE0028E9D072E7AFF300807F
S31508007000C88D01C103420000748D00203779080835
S31508007010B8100120BC100120708D002035420308ED
S3150800702053790808BA100120F4A50020648D0020C1
S31508007030CC1F0120453E0308F2A500206C8D0020D8
S315080070408F7908083F7D08086A720808EE23012030
S31508007050F0230120E4230120C2100120B7100120EB
S31508007060B49D0020000000002DE9F84390F8E8617F
S31508007070054644683EB902202721414A5EF053FF7F
S315080070803046BDE8F88394F90130002B1ADA731EEE
S315080070905BB2637000EB431393F825302370A06846
S315080070A01FF086FD32A3D3E900238046894694F96A
S315080070B0017020F065F8F8B1002F1DDD013F0023AF
S315080070C0677024E09E42227805DD00EB431393F8AF
S315080070D025309342E3D0002305F12501637058015A
S315080070E0085C904208BF637001339E42F7D8731E4E
S315080070F0637000232371D2E740461FA3D3E9002318
S31508007100494620F03DF8F0B12379E3B1013B2371FC
S3150800711094F9013005F5F57005EB431393F825301E
S31508007120237085F8EA31052395F8022285F8EC31B3
S3150800713085F8F02100230E2285F8EB3185F8F22137
S3150800714085F8F1319DE740460BA3D3E9002349466C
S315080071501FF0F8FF0028DBD023790133DBB2092BB7
S315080071602371D5D9013EBE42D2DD0137A7E700BF5C
S31508007170666666666666E63F9A9999999999B93FE9
S315080071808E420908000000002DE9F8432DED028B18
S3150800719087680546384616460C461FF009FD28A39B
S315080071A0D3E90023804689461FF0EAFF88BB26A359
S315080071B0D3E90023404649461FF0C4FF60BBF7EEFB
S315080071C0007A07EE107A87EE878A6B7F607F012246
S315080071D0834224D000214AF003F9012204463146AD
S315080071E0687F4AF0FDF8044404F2D5702860D8B1E7
S315080071F007EE900AF8EE677A9FED0D7A67EE887AC1
S3150800720087EE270ABDEC028B10EE103AEB60BDE85C
S31508007210F8839FED088AD8E79FED078AD5E73146B8
S3150800722018464AF0DDF8E1E79FED040AEAE700BFF1
S3150800723000007A44E4388E3F00401C4600000000F7
S31508007240CDCCCCCCCCCCEC3F9A9999999999B93FAD
S315080072502DE9F74F064690F8E8010D469146A0B38A
S315080072607468A3690133A361A37D06EB43131A7FF0
S3150800727002441A77D4E90732C3EB520207EE902A82
S315080072804000B8EE677A07EE900AF8EEE76AF4EE81
S31508007290C76AF1EE10FA0BD507EE903A37EE667A22
S315080072A0F8EE677A77EE877AFCEEE77AC4ED077A26
S315080072B04FF0000BD9450BD842F21073A2699A42D7
S315080072C082BF0023C4E90633236203B0BDE8F08F0A
S315080072D0B5F802A02F79BAF1000F2ED038461FF064
S315080072E055FCCDE9000150461FF050FC02460B46FE
S315080072F0DDE900011FF0DEFD02460B4600204C4981
S315080073001FF0F6FA1FF08EFF07EE100A96F8033202
S31508007310AAEB0700034486F8033294F8243033B303
S3150800732094F825305B4522D1BAF1000F08D1C4F88C
S3150800733020A00BF1010B0635BCE7B7EE007AE5E7AE
S31508007340E3690133E3612A78002AF2D000239846DC
S3150800735096F8E8C106F108019C450FD8B8F1000F68
S3150800736014D127210220334A5EF0DDFDE1E72A78B1
S31508007370002ADED0BAF1000FDBD0E7E791F81DE06E
S315080073800133964508BF88462031E5E7002288F88C
S315080073901420B8F81020D8F8043017440133BAB2CC
S315080073A0C8F80430A8F810701AB198F81D2086F8A5
S315080073B01422F7EE007A012B77EEC77A8CBFB3EE6C
S315080073C0097A9FED1D7AB8F8122088BF67EE877A8A
S315080073D00244A8F81220D8F808208CBF9FED177A27
S315080073E067EE877A06EE102ADFED156AE6EE077A6B
S315080073F087EEA67A17EE103A17EE100AC8F8083084
S315080074001FF0D6FB08A3D3E900231FF09BFE18B193
S31508007410FF2388F815308CE798F91530013388D1A1
S315080074200423F6E7AFF30080666666666666EE3F97
S315080074300000F03FAE4209080000484200009642AC
S315080074400000C842000000002DE9F04F2DED028B28
S31508007450054600274FF0200A4FF0080B0B46082078
S315080074604D4A87B0884627215EF05DFD95F8E831DC
S3150800747027210820494A5EF056FD6C6805F1080682
S31508007480E37D23716371637595F8E891B9450DDC61
S315080074903FA7D7E900674FF00008AA46C346C1458B
S315080074A046D807B0BDEC028BBDE8F08FE17D4246B9
S315080074B01AFB01B130462944FFF766FE96F81D907F
S315080074C00495F0681FF074FBCDE90201B0681FF05F
S315080074D06FFB4B46CDE90001314A272108205EF0B3
S315080074E022FD2379D6ED037A05EB431292ED057A50
S315080074F0F4EEC77AF1EE10FA02DB327F22710EE063
S3150800750017B995F82420F9E7637905EB431393ED4A
S31508007510057AF4EEC77AF1EE10FA04DB337F63716D
S3150800752001372036B0E7012FFAD195F84430F6E74F
S31508007530E37D434515D09AED048A18EE100A1FF02C
S3150800754037FB32463B461FF011FE10B9BBF1000F60
S315080075500CD19AF8243022799A4202D062799A425A
S3150800756011D108F101080AF1200A98E7637D05EBB5
S315080075704313D3ED047AB4EEE78AF1EE10FAE8DAAB
S315080075804FF0010BEDE76375FAE700BFAFF3008034
S31508007590666666666666EE3FC6420908E8420908F8
S315080075A0F7420908000000002DE9F047D0F80480EA
S315080075B000EB411393F8245098F817300446AB4271
S315080075C02DD098F81530AB4229D000EB411ADAF8DD
S315080075D010004FEA41191FF0EBFA13A3D3E9002371
S315080075E006460F461FF0B8FD10B99AF91D00A0B15E
S315080075F098F80430AB4212D098F80530AB420ED05A
S3150800760009A3D3E90023304639461FF0B9FD18B15E
S315080076104C44637F013B63770120BDE8F087002077
S31508007620FBE700BFAFF30080666666666666EE3FF8
S315080076302DE9F34704460E46456827210820804A67
S315080076405EF071FC20463146FFF7FEFE28466BF0D9
S315080076509EFB002800F0BA8020466BF0ABFB061EA6
S31508007660C0F2B48094F8E8319E4280F2AF8004EB11
S315080076704617334627210820724A5EF054FC272114
S31508007680082097F82530704A5EF04DFC012295F8DF
S3150800769004C085F8242004EB4C13386A196A88421A
S315080076A097F8250002D8397F322977D9012284F83C
S315080076B0EC21002284F8EA0184F8EB21A97D2970DF
S315080076C093F8251084F8F01193F8263084F8F12100
S315080076D084F8F231697D85F801C004EB411393F80B
S315080076E02500012684F8F60193F8263084F8F83147
S315080076F0002384F8F731A97085F82520A04605F1FE
S31508007700FF3904F1120A19F8013F5F1C002E00F038
S31508007710898004EB431318691FF04AFA02460B46A0
S31508007720CDE9002342A3D3E900231FF029FD40B980
S3150800773041A3D3E90023DDE900011FF003FD00287A
S3150800774070D004EB4717BB79042B8EBF0223013395
S31508007750C3F3460388F8EC3108F10608C245D2D1CE
S31508007760EA7D04F5F57004EB421393F8253084F8A6
S31508007770FC31002384F8FD31EA7085F8243094F84A
S31508007780F22194F8EC31134494F8F821C3F1130369
S315080077909B1A84F8FE3102B0BDE8F08793F825708D
S315080077A0697D84F8EA7193F8263084F8EC31002371
S315080077B084F8EB3185F800C084F8F13184F8F001DB
S315080077C084F8F22104EB41136E7088E700262A79C3
S315080077D004EB421393F8251084F8EA1193F826303F
S315080077E084F8EB6184F8EC312A706A7904EB421369
S315080077F093F8251084F8F01193F8263084F8F1618F
S3150800780084F8F2316A706A7D04EB421393F8251006
S3150800781084F8F61193F8263084F8F76184F8F8317D
S31508007820AA706BE704EB4717BB7993E7AFF30080C1
S31508007830666666666666EE3F9A9999999999B93F1A
S315080078401B430908294309083943090800000000B1
S315080078502DE9F8432DED028B87680546384616460E
S315080078600C461FF0A5F92EA3D3E9002380468946C6
S315080078701FF086FC00283DD12BA3D3E90023404600
S3150800788049461FF05FFCC0BBF7EE007A07EE107A98
S31508007890AB7F87EE878A07EE903AB8EEE77AB4EEC2
S315080078A0C87AF1EE10FA01D5B8EE678A6B7F607F69
S315080078B00122834224D0002149F092FD0122044688
S315080078C03146687F49F08CFD044404F2D57028607F
S315080078D0D8B107EE900AF8EE677A9FED0D7A67EE53
S315080078E0887A87EE270ABDEC028B10EE103AEB6019
S315080078F0BDE8F8839FED078AD8E79FED078AD5E7A5
S315080079003146184649F06CFDE1E79FED040AEAE7BF
S3150800791000007A44E4388E3F00401C460000000010
S31508007920CDCCCCCCCCCCEC3F9A9999999999B93FC6
S315080079302DE9F04F2DED028B90F8E83105460E46FD
S31508007940934689B0002B00F0238127210820964A08
S315080079505EF0E9FA00226C68A1690131A16195F827
S31508007960E80190423DD8D4E907230A2779436427DA
S31508007970B1FBF7F1C2EB53030B4407EE903A430011
S3150800798006EE903AF8EE677AF8EEE66AF4EEE76AFB
S31508007990F1EE10FA0BD507EE102A77EEE67AB8EE76
S315080079A0477A77EE277AFCEEE77AC4ED077A00275E
S315080079B0B846BB451DD8B8F1010F00F0E680B8F10E
S315080079C0130F40F2B9800023A3612721082095F8F8
S315080079D00332764A09B0BDEC028BBDE8F04F5EF083
S315080079E0A2BAA37D013205EB43131F7F01371F7728
S315080079F0B7E7B6F8029096F804A0B9F1000F41D09F
S31508007A0050461FF0C3F8CDE9060148461FF0BEF8F8
S31508007A1002460B46DDE906011FF04CFA02460B4604
S31508007A20002063491EF064FF1FF0FCFB08EE100AF5
S31508007A30337818EE100A069304951FF0B9F8069BDA
S31508007A40CDE902015B4A27210820CDE9009A5EF0BC
S31508007A506AFA7288337995F80312D31A0B4485F8B3
S31508007A60033294F82430C3B194F82530BB4214D1BC
S31508007A705AB92262272108204F4A5EF054FA013784
S31508007A80063696E7B7EE008AD2E7E369272101337F
S31508007A9008204A4AE3615EF046FAB6F802A0BAF14F
S31508007AA0000FECD00023E25D05EB4211C8680B77A6
S31508007AB00130C86096F804C00B8B4FEA421963443C
S31508007AC09BB20B831BB191F8253085F81432F7EE7B
S31508007AD0007A05EB0902538B01285344A3EB0C03E8
S31508007AE077EEC87A53830DD9B2EE0E7AD2ED046AD0
S31508007AF027EE877ADFED327AA6EEA77ADFED316ACE
S31508007B00C7EE267AA944C9ED047A17EE900A1FF043
S31508007B104FF823A3D3E900231FF014FB30B1FF234A
S31508007B2089F81D30C2441FFA8AF8A8E799F91D306A
S31508007B300133F7D10423F3E7B8F1020FD4ED0B7A3A
S31508007B40B1EE047A15D977EE877AB3EE047AF4EEB5
S31508007B50477AF1EE10FA77FE277A42F21073A26995
S31508007B60C4ED0B7A9A4282BF0023C4E90633236226
S31508007B702BE7F2EE046A77EEE67AF4EE477AF1EE50
S31508007B8010FA48BFF0EE477AE7E7DFED0F7AE4E749
S31508007B9009B0BDEC028BBDE8F08F00BFAFF30080E3
S31508007BA0666666666666EE3F7E430908E44309082C
S31508007BB00000F03F94430908C5430908D44309085F
S31508007BC00000AA420000C8420000000000000000B1
S31508007BD02DE9F84F2DED028B0546884600274FF014
S31508007BE020094FF0080B446800F10806E37D23716D
S31508007BF06371637595F8E8A1BA450CDC0FF2D009F4
S31508007C00D9E9008900262F46B346B24532D8BDECDD
S31508007C10028BBDE8F88FE17D424619FB01B130467B
S31508007C202944FFF715FE2379D6ED037A05EB4312AF
S31508007C3092ED057AF4EEC77AF1EE10FA02DB327F9E
S31508007C4022710EE017B995F82420F9E7637905EB58
S31508007C50431393ED057AF4EEC77AF1EE10FA04DBD6
S31508007C60337F637101372036C4E7012FFAD195F8BF
S31508007C704430F6E7E37DB34215D097ED048A18EE53
S31508007C80100A1EF095FF42464B461FF06FFA10B9D0
S31508007C90BBF1000F0AD197F8243022799A4202D014
S31508007CA062799A420FD101362037AEE7637D05EB3C
S31508007CB04313D3ED047AB4EEE78AF1EE10FAEADA62
S31508007CC04FF0010BEFE76375FAE700BFAFF30080EB
S31508007CD0666666666666EE3F2DE9F047456890F883
S31508007CE0E821AB690446B3EB420F2ED900EB4113EA
S31508007CF093F82480EB7D43452AD06B7D434527D0F6
S31508007D0000EB411ADAF810004FEA41191EF050FF4D
S31508007D1011A3D3E9002306460F461FF01DFA10B932
S31508007D209AF91D0090B12B79434511D06B794345DB
S31508007D300ED009A3D3E90023304639461FF020FAAE
S31508007D4018B14C44637F013B63770120BDE8F08797
S31508007D500020FBE7AFF30080666666666666EE3F60
S31508007D600348044B834202D0034B03B118477047BC
S31508007D70343001203430012000000000064B07494A
S31508007D80C91A891048BF0131491003D0044B0BB1F9
S31508007D9001481847704700BF3430012034300120AD
S31508007DA00000000010B5064C237843B9FFF7D8FF4A
S31508007DB0044B13B10448AFF300800123237010BDB0
S31508007DC004A6002000000000D059090808B5054B94
S31508007DD01BB105490548AFF30080BDE80840FFF729
S31508007DE0CDBF00BF00000000D0220020D0590908EE
S31508007DF0A3F5803A704700BF174B002B08BF134BFB
S31508007E009D46FFF7F5FF00218B460F461348144A97
S31508007E10121A5CF0D3FF0E4B002B00D098470D4B7F
S31508007E20002B00D098470020002104000D000D48C3
S31508007E30002802D00C48AFF300801FF0B1FC2000E8
S31508007E40290057F016FE1FF01DFC00BF00000800B1
S31508007E50000000000000000008140020081400209C
S31508007E60C41901200000000000000000F8B50C4607
S31508007E7006461146204615465EF0F8F80746284697
S31508007E8003F0E0F9033C012C054604D947B1314615
S31508007E90064818F0D5FC2846BDE8F84054F0EBBF74
S31508007EA002463146024818F0CBFCF4E78866070814
S31508007EB0A86607080121024B814018686DF09CBE30
S31508007EC02423002008B5074B4FF0FF3118686DF0E2
S31508007ED04AFF30B140F2C631034B044A04481EF04B
S31508007EE00FFC08BD28230020B5660708FF6A0708A7
S31508007EF0EA66070808B5064B18686DF068FF30B1E2
S31508007F004FF47371034B044A04481EF0F9FB08BD8D
S31508007F10282300204A670708E66A0708EA6607086A
S31508007F200023002273B50546CDE900236DF026FC33
S31508007F306A466DF061FC00982D4A0199D2E9023231
S31508007F40C01A61EB02012B4ACDE90001FEF710FACF
S31508007F50284803F0B9FA284B002814BF06461E46DF
S31508007F606B68002B41D1AC6814F001040DD00121D7
S31508007F70224A2348FFF77AFF204803F063F931467F
S31508007F80044602461F4818F05BFCAB689A070DD5F5
S31508007F9003211D4A1D48FFF769FF1B4803F052F9E4
S31508007FA03146044602461A4818F04AFCAB685B0795
S31508007FB00DD50421174A1848FFF758FF154803F04E
S31508007FC041F9314604460246144818F039FC204661
S31508007FD054F051FF304654F04EFF6A681AB1104902
S31508007FE0104818F02DFC02B070BD0024EFE700BF62
S31508007FF018140020081400209C9D070816A60020C7
S31508008000706707087767070836A600209767070886
S31508008010A367070846A60020CB670708D6670708A0
S31508008020A66C070800680708F7B500230022CDE903
S31508008030002344680546324E64B12146314818F09B
S31508008040FFFB0120FFF736FF012130686DF00DFEBA
S3150800805003B0F0BD502221462B485CF0AFFE2B48FA
S3150800806018F0EEFB01212A4A2A48FFF7FFFE2146AF
S31508008070254A2948FFF7FAFE0221284A2848FFF729
S31508008080F5FE0321274A2848FFF7F0FE274A042170
S315080080902748FFF7EBFE6DF071FB6A466DF0ACFB07
S315080080A0DDE900CE234BD3E90627BCEB02026EEBD3
S315080080B00707D3E90810891847EB0000C3E9081039
S315080080C0996A1D48013199624FF47A71B2FBF1F150
S315080080D0CDE90027C3E900CEC3E902CE18F0B0FB0C
S315080080E02046FFF7E7FE022130686DF0BEFD6A689C
S315080080F0002AADD01149124818F0A2FBA8E700BF24
S31508008100242300201A68070806A600203C680708EA
S3150800811016A60020706707084968070826A60020E3
S315080081205468070836A600206268070846A6002095
S31508008130716807081814002082680708896C070800
S3150800814000680708F7B50023002205461548CDE95B
S31508008150002318F075FB6DF011FB6A466DF04CFBB9
S31508008160DDE90010104BD3E904248A1840EB040417
S31508008170D3E90276D21B64EB0604C3E90424C3E9F7
S315080081800010C3E906106A681AB10849084818F0C9
S3150800819057FB0120FFF78EFE0022064B1A7003B02C
S315080081A0F0BD00BF8B68070818140020696C070823
S315080081B00068070805A600200F4910B50446A1F176
S315080081C028005DF00AFF18B90C490D4818F038FB6D
S315080081D00220FFF76FFE0120FFF76CFE094B012115
S315080081E018686DF042FD62682AB1BDE8104006497C
S315080081F0064818F025BB10BD10230020E8220020F1
S315080082009B68070824230020466C070800680708AF
S315080082104168014818F014BBC2680708F7B500237F
S3150800822000221B4DCDE900232B780446052B1BD1D4
S315080082308368DBB2052B17D06DF0A0FA6A466DF09D
S31508008240DBFADDE90016134B9F68D3E904208A1888
S3150800825046EB0000D21BDF68C3E9001660EB070097
S31508008260C3E90420C3E90616A0682870C0B202F064
S31508008270FFFF014618B1A268074818F0E1FA6268DC
S315080082801AB10649064818F0DBFA03B0F0BD00BF7C
S3150800829005A6002018140020EF680708286C0708B0
S315080082A00068070842681AB10249034818F0C8BAB4
S315080082B0704700BF0F6C07080068070842681AB1C4
S315080082C00249034818F0BCBA704700BFED6B0708AF
S315080082D00068070842681AB10249034818F0B0BA9C
S315080082E0704700BFCF6B07080068070842681AB1D5
S315080082F00249034818F0A4BA704700BFB76B0708CD
S315080083000068070842681AB10249034818F098BA83
S31508008310704700BF8C6B07080068070842681AB1E7
S315080083200249034818F08CBA704700BF696B070802
S315080083300068070842681AB10249034818F080BA6B
S31508008340704700BF516B07080068070808B50C4856
S3150800835008F0E0F90B4B186030B94FF4E3710A4B9B
S315080083600A4A0B481EF0CCF90A4808F099F90A4B54
S31508008370186020B94FF4E571084B044AF1E708BDC7
S31508008380F86C070828230020076907083A6B0708CE
S31508008390EA660708E86C0708242300201D69070811
S315080083A008B50B4601460348032200686DF07EFCBB
S315080083B0C00F08BD24230020002330B5B3B0002227
S315080083C08DF807300023604C604DCDE90223FFF796
S315080083D079FD0FCD0FC40FCD0FC40FCD0FC495E88F
S315080083E0070084E807000DF107005DF001FF303C47
S315080083F0024618B15649574818F022FA9DF8071050
S3150800840031B1554818F01CFAFFF774FD33B030BD8A
S31508008410B22205A85CF0D2FC94F8210003F048F8D3
S31508008420054694F824005DF095FF014618B14B48BF
S3150800843018F006FAE8E72946B22205A85CF016FC09
S31508008440022305A88DF880305DF097FF014630B10C
S31508008450434818F0F5F90520FFF72CFDD4E7B4F9E1
S3150800846022005DF095FE014620B13E4818F0E8F975
S315080084700620F1E73C485DF0E1FF014608B13B48BC
S31508008480D6E73B4B13F8012B0AB989B203E0013151
S31508008490B1F5006FF6D1013189B20220344A5DF098
S315080084A018FE014628B9334B13F8012B32B989B2A5
S315080084B008E0314818F0C4F90B20CDE70131B1F5D1
S315080084C0006FF1D1013189B206202A4A5DF018FE03
S315080084D0014628B9294B13F8012B32B989B208E0AD
S315080084E0274818F0ADF90C20B6E70131B1F5006F51
S315080084F0F1D1013189B20120204A5DF018FE01460A
S3150800850020B1204818F09CF90D20A5E71E49A1F1D5
S3150800851028005DF062FD044680B96DF02FF902AAC5
S315080085206DF06AF9DDE90201184BC3E90001C3E9F8
S315080085300201C3E906010449154879E70420FFF753
S31508008540B9FC2146134873E7E8220020086D07089E
S31508008550186B07080068070835690708606907087F
S315080085608A690708BE690708B1F70708E5690708B1
S315080085708CF1070809F40708146A0708BCF6070807
S315080085804A6A07087F6A0708102300201814002083
S31508008590B46A0708CB6A070810B5FFF793FC034BC4
S315080085A01C78FFF7A7FC204610BD00BF05A60020D3
S315080085B0402906D1C378202B08D005D813F0EF0F31
S315080085C004D04FF0FF307047302BFAD18078A528B9
S315080085D0F7D8872806D85F2802D013D804280AD8DF
S315080085E000207047094B7830C0B2C34003F001033E
S315080085F0013B58B27047413804284FF0FF3098BF06
S315080086000020704780F080000628F6E7B100003F9A
S315080086102DE9F04F0F4615460446002689B09846C0
S31508008620149B9DF84CA0CDE906320390059000EB0B
S315080086300209079B23B90795002E45D100264CE071
S31508008640BAF1080F069B2CD1FF2B26D89D42059A16
S3150800865023D31A44944220D84A451ED85A1C214688
S31508008660164405A82A4654F0DBF807900028E2D0FD
S31508008670059B1B781909DED12146069305A8012317
S3150800868054F0CEF807AB0790009322462B4605A96F
S3150800869006A854F0D3F80028CBD0002009B0BDE8CE
S315080086A0F08FBAF10B0FCFD0BAF10F0FCCD0BAF1C9
S315080086B0140FC9D0BAF1110F01D1022BC5E7BAF1CF
S315080086C0040FC3D1082BC0E7013EB7D0FB68B0B290
S315080086D09847C8F800000028DFD0129BAAF1040AC0
S315080086E01E800123D8F800705FFA8AFBD8F80020AC
S315080086F0B91AB14201DA079909B90398CEE76BB9F5
S315080087000123234903FA0BF30B4204D113F0900F0C
S3150800871003D02F2300E026233B700137DDF8509065
S31508008720BA1A4A44B242B8DCA9450399B5D801EB4E
S3150800873009039C42B1D862199342AED84A463846D4
S315080087405CF094FA4B462A46214603A854F068F88A
S31508008750034607904F440398002B9FD003785FEA9F
S3150800876013199BD10DF1480A4AF8083F21460123FF
S3150800877003A854F055F807AB0790009322462B46FA
S31508008780504603A954F05AF84B460028AED084E761
S31508008790012801002DE9F04F81460F461D46164671
S315080087A08BB022B9002420460BB0BDE8F08F032910
S315080087B0F8D90028F6D054F089F804460028F1D0F4
S315080087C03278314622F03F032B70737802F030027C
S315080087D0C270837073883A465BBA0381331D069369
S315080087E006A8002354F01CF83278079002F00F020E
S315080087F02270CAB1082A6DD82369002B6AD197421C
S31508008800069967D38B189E4264D8F019834261D8BB
S31508008810484654F09BF8206100285BD03A4631461A
S31508008820237806A853F0FCFF4FF0000B069BDFF8F1
S31508008830BCA39B1BFB1A0793DDE90632002A00F04E
S31508008840D0811A78FF2A0FD19A1BBA420ADA1A7807
S31508008850FF2A3FD101339E1BBF1BBFB2A781002F42
S3150800886038D0A361002336E002F00F03120931461F
S315080088700893099201233A4606A853F0D1FF07AD9B
S3150800888007903B463246009506A909A853F0D6FF3D
S3150800889000BB099B03EB0B081FFA88F8434519D858
S315080088A0C34517D83B463246009506A908A8CDF811
S315080088B0248053F0C3FF68B9B8F11C0F0DD8B8F17E
S315080088C0020F07D92AFA08F3DB070CD4DDE90725D6
S315080088D0954215D90123637065E7B8F1230F02D0D5
S315080088E0B8F13C0FF6D12146484653F0F9FF002867
S315080088F0F0D0DDE90725AA42ECD3B8F1230F4BD80F
S31508008900B8F1020FE6D9A8F10303202BE2D801A19A
S3150800891051F823F0778A0008458A0008D5880008A8
S31508008920218B0008CB8A0008A58A0008D58800088C
S31508008930D5880008078B0008C3890008D588000871
S31508008940E9890008438B0008D5880008998B000838
S31508008950D5880008D5880008ED8A0008D58800085B
S31508008960D5880008558B0008D5880008D5880008E2
S31508008970D5880008778B0008BB8B0008D5880008C7
S31508008980D5880008D5880008D5880008D588000845
S31508008990D5880008018A0008B8F13C0F9AD1042D41
S315080089A098D8D4F81CB09BF80130002B92D101233B
S315080089B029468BF8013006A853F024FFCBF8180097
S315080089C009E0022D86D86368013383D1294606A8B3
S315080089D053F018FF6060069B9B1B9F42FFF47AAF1B
S315080089E0FB1AC346079327E7042D3FF673AF2946BC
S315080089F006A8D4F81CB053F005FFCBF81400EAE734
S31508008A0040F209436A1E9A423FF664AFD4F81CB096
S31508008A10DBF83030002B7FF45DAF2A4648460699CE
S31508008A20ABF8045053F092FFE369CBF830001B6BA8
S31508008A30002B3FF44FAF2B463A46314606A853F073
S31508008A40EFFEC8E7E369596B00297FF443AF0421B9
S31508008A5001910DF1160100910698494602953433A5
S31508008A60FFF7D6FD069000283FF434AFE369BDF85A
S31508008A7016201A70AFE76B1EFE2B3FF62BAFD4F805
S31508008A801CB0DBF83830002B7FF424AF2A46484662
S31508008A900699ABF8065053F059FFE369CBF838004E
S31508008AA09B6BC5E7E369D96B00297FF413AF0821EF
S31508008AB001915918029500913C3349460698FFF7EB
S31508008AC0A7FD0690002886D104E7022D3FF602AFDF
S31508008AD0D4F81CB0DBF8203001337FF4FBAE29460E
S31508008AE006A853F08FFECBF8200074E7E369196CEB
S31508008AF000297FF4EFAE1421019103F10A010295D2
S31508008B0000914033D9E76369002B7FF4E3AE0B236A
S31508008B10019304F10A030093029504F11403CCE7C8
S31508008B20022D3FF6D7AED4F81CB0DBF8243001335B
S31508008B307FF4D0AE294606A853F064FECBF824008D
S31508008B4049E70F21E369019103F10C0102950091B0
S31508008B504433B2E7032D3FF6BDAED4F81CB0DBF8BC
S31508008B602C3001337FF4B6AE294606A853F04AFEE8
S31508008B70CBF82C002FE7032D3FF6ACAED4F81CB08B
S31508008B80DBF8283001337FF4A5AE294606A853F052
S31508008B9039FECBF828001EE7022D3FF69BAED4F827
S31508008BA01CB0DBF8103001337FF494AE294606A8D2
S31508008BB053F028FECBF810000DE7042D3FF68AAED9
S31508008BC0D4F81CB09BF80230002B7FF483AE012347
S31508008BD029468BF8023006A853F014FECBF81C0081
S31508008BE0F9E6002B7FF430AE74E600BFD8C19218C0
S31508008BF02DE9F0410E4617469846054628B121B19B
S31508008C001AB12C20A847044618B900242046BDE806
S31508008C10F0812922002103305CF0D0F8012323716A
S31508008C2004F11C03236240F2023323800A23002244
S31508008C30A370044BC4E90467E560C4F818801A8079
S31508008C40E4E700BFC8A5002008B56BF0A9F902281B
S31508008C500DD1074B4FF0FF3118686DF084F830B12D
S31508008C6040F29121034B044A04481DF049FD08BD12
S31508008C702C230020446D0708126F07087B6D070830
S31508008C8008B56BF08DF902280BD1064B18686DF004
S31508008C909EF830B140F29921034B044A04481DF06E
S31508008CA02FFD08BD2C230020D36D0708F86E070892
S31508008CB07B6D07082DE9F8430D4617460646D8B1D9
S31508008CC0D1B10024DFF83480315D7FB1DFF8308020
S31508008CD0DFF830906F1EBC42ACBF404648460134B0
S31508008CE017F0AEFDAC4207D0315DF4E740460134DB
S31508008CF017F0A6FDA542E7D1BDE8F8836326090863
S31508008D00491D0908FB6D0708F8B5044617480D46BE
S31508008D10174607F0FFFC164B186028B99821154B23
S31508008D20154A16481DF0ECFCFFF78EFF53F083FE3C
S31508008D30134B144E002C08BF1C46134B1349002D29
S31508008D4008BF1D4612482B462246B1607060F46083
S31508008D5035613775FFF74CFF3060FFF791FF00F07C
S31508008D60CDFABDE8F84000F02BB900BF506F0708F0
S31508008D702C230020036E07082C6F07087B6D070855
S31508008D8085C905083023002089C90508A5C905082D
S31508008D908DC9050838B504460D46FFF755FF064B3D
S31508008DA021462A4653F8140CFFF7F4FC0446FFF74D
S31508008DB067FF204638BD00BF4423002038B5044667
S31508008DC00D46FFF741FF054B21462A46186853F022
S31508008DD074FA0446FFF754FF204638BD30230020B6
S31508008DE0F8B50D460446002867D0FFF72DFF33482F
S31508008DF017F026FD2178324817F022FD61783148B0
S31508008E0017F01EFDA178304817F01AFDE1782F48B3
S31508008E1017F016FD61682E4817F012FD21892D48B6
S31508008E2017F00EFDA1892C4817F00AFD61892B4819
S31508008E3017F006FD2A4817F003FD2178C9B9294815
S31508008E4017F0FEFC284817F0FBFC6189B9B92548DC
S31508008E5017F0F6FC254817F0F3FCA389ABB92448AC
S31508008E6017F0EEFC234817F0EBFCBDE8F840FFF7D7
S31508008E7007BF20692A46FFF71DFF1F48E0E760691C
S31508008E802A46FFF717FF1C48E2E761681B4F1C4E8E
S31508008E901C48322914BF3946314617F0D1FCA1893E
S31508008EA0A0692A46FFF706FF61681648322914BFEB
S31508008EB03946314617F0C4FCD4E7F8BD1B6E0708DF
S31508008EC01E6E0708326E0708486E07085B6E0708AD
S31508008ED06E6E0708876E0708986E0708AE6E070855
S31508008EE0C56E0708F16E0708D26E0708E26E070816
S31508008EF0F06E070843C70708F46E0708E06E070810
S31508008F00D4A10708BC89080810B5044650B1806981
S31508008F1008B153F047FD044B2146BDE810401868D8
S31508008F2053F0F5BC10BD00BF3023002070B50646CF
S31508008F30074B1C6914B92546284670BD256880224A
S31508008F40304629685BF09FFE0028F5D06468F1E793
S31508008F504823002008B56BF023F802280DD1074BEB
S31508008F604FF0FF3118686CF0FEFE30B14FF4CC714B
S31508008F70034B044A04481DF0C3FB08BD68250020BE
S31508008F80606F0708F9700708936F070808B56BF054
S31508008F9007F802280BD1064B18686CF018FF30B199
S31508008FA040F29F11034B044A04481DF0A9FB08BD73
S31508008FB068250020F26F0708E0700708936F070816
S31508008FC037B5194807F0A6FB184B186028B9D12100
S31508008FD0174B184A18481DF093FB4FF402733422B6
S31508008FE000930A21154B164853F0F3FD044618B1B1
S31508008FF0D921144B0F4AEDE7134D2871134807F092
S315080090004FFBA86018B9E021114B0A4AE2E721464E
S31508009010104A114807F0F8FB18B9E4210F4B054A26
S31508009020D8E703B030BD00BF607107086825002087
S315080090301670070812710708936F07086023002047
S31508009040482300202A7007084C1C01202C710708A9
S315080090503F7007083C7107087991000851700708A6
S3150800906038B5124B04461D69FFF774FF85B90F48DA
S3150800907053F0C4FD98B1234604F1340253F8041B97
S31508009080934240F8041BF9D1FFF780FF002009E05E
S315080090902B688022216818685BF0F5FD18B9FFF780
S315080090A075FF012038BD6D68E0E700BF4823002042
S315080090B010B50446FFF74EFF2046FFF737FF014677
S315080090C018B9FFF763FF012010BD034853F0C4FD2C
S315080090D0FFF75CFF0020F7E748230020436AF7B54F
S315080090E0044663B19847054648B1A36A53B90322B3
S315080090F00221002027F0B4FC431C064608D10120B3
S3150800910003B0F0BD204698470028F0D10020F7E7C5
S31508009110284653F052FC431E9BB2B3F5806F0746B0
S31508009120EDD2FFF717FF29460E4853F048FC0028F2
S3150800913002DAFFF72BFFE2E72023043401933A46CD
S31508009140002330460749009427F0FAFC0130F0D096
S315080091502846FFF7D9FEFFF719FF30465CF005FFF2
S31508009160D4E700BF56A600200168D0E90B320148B3
S3150800917017F066BB6570070870B5174C52F04DFFBF
S31508009180237933B1D4E902014FF0FF3300226CF0A2
S315080091908DFDFFF7DFFE114B1E6946B9FFF7F6FE98
S315080091A02379002BEAD120686CF011FDE6E72379D4
S315080091B035683BB9D5E90B239A4203D00133766863
S315080091C02B63EAE72846FFF789FF10B12846FFF721
S315080091D0CBFF0023F3E700BF4C1C012048230020E7
S315080091E010B5FFF7B7FE034B1C79FFF7CFFE2046F5
S315080091F010BD00BF4C1C012008B5034BD3E9020182
S315080092006CF0FAFCC00F08BD4C1C012070B5064670
S31508009210074B1C6914B92546284670BD2568802267
S31508009220304629685BF02FFD0028F5D06468F1E721
S31508009230AC25002008B56AF0B3FE02280DD1074B0D
S315080092404FF0FF3118686CF08EFD30B14FF4C971DC
S31508009250034B044A04481DF053FA08BD4432002063
S315080092607071070860740708B071070808B5074BDE
S315080092704FF0FF3118686CF076FD30B140F2A1115D
S31508009280034B044A04481DF03BFA08BD443200204B
S315080092907071070820740708B071070808B56AF0E6
S315080092A07FFE02280BD1064B18686CF090FD30B192
S315080092B04FF4CD71034B044A04481DF021FA08BD4A
S315080092C0443200200D7207083D740708B07107087C
S315080092D008B5064B18686CF07AFD30B140F2A71154
S315080092E0034B044A04481DF00BFA08BD443200201B
S315080092F00D72070803740708B071070807B5134805
S3150800930007F008FA124B186028B9B421114B124A13
S3150800931012481DF0F5F94FF4C86332210093202254
S315080093200F4B104853F055FC014618B1BC210E4BA3
S31508009330094AEDE70D4A0E4807F066FA18B9C12141
S315080093400C4B054AE4E703B05DF804FBF87407081C
S31508009350443200203E72070891740708B071070866
S31508009360042C0020AC2500202A700708D4740708AE
S31508009370D99400085F72070838B5124B04461D6970
S31508009380FFF758FF85B90F4853F038FC98B12346C4
S3150800939004F1200253F8041B934240F8041BF9D148
S315080093A0FFF77CFF002009E02B68802221681868F7
S315080093B05BF069FC18B9FFF771FF012038BD6D68CD
S315080093C0E0E700BFAC25002010B50446FFF74EFFC6
S315080093D02046FFF71BFF014618B9FFF779FF012062
S315080093E010BD034853F038FCFFF772FF0020F7E77B
S315080093F0AC250020F8B5164B00241D69FFF71AFFA7
S315080094004FF4C862002113485BF0D8FC114F35B9F8
S31508009410FFF744FF0F48002C08BF2846F8BD312C3B
S3150800942013D807EB441C66462B6803F1200E324618
S3150800943018685968083303C273451646F7D11CB134
S3150800944007EB441343F804CC01346D68DFE700BF2B
S31508009450AC250020C425002038B5084B084D1C69EA
S31508009460FFF704FF1CB9BDE83840FFF731BF236892
S315080094702846196817F0E4F96468F3E7AC25002074
S3150800948035B00708014817F0DBB900BF7172070845
S3150800949008B50846FFF7F6FFBDE80840014817F08B
S315080094A0CFB900BF71720708014817F0C9B900BFE4
S315080094B0A0720708014817F0C3B900BFDA72070897
S315080094C0014817F0BDB900BF09730708014817F02E
S315080094D0B7B900BF3D7307082DE9F04F002687B0DE
S315080094E0DFF838B2DFF838920596ADF8126052F018
S315080094F094FD03220221002027F0B2FA431C0746F6
S3150800950006D140F2E5117C4B7C4A7D481DF0F8F8FF
S315080095100023CBF800307B4B7B4C03F11005224629
S3150800952018685968083303C2AB421446F7D141F2AA
S3150800953033605CF005FD2022ABF804005946384636
S31508009540059227F0B9FA013004D14FF4F8716F4B40
S315080095506A4ADAE70024DFF8CCA105ABCDE9009327
S315080095604FF4806200235146384627F033FB002823
S3150800957040F3AB80514680B2FFF70CFC0446002846
S31508009580EBD0634801F05EFE05460146614817F0D8
S3150800959057F900212046FFF723FC284653F06BFCB9
S315080095A0A378013B032B04D921464846FFF770FFF1
S315080095B0D3E7FFF71FFF21460DF1120200F0DAF894
S315080095C0064690B12246BDF8121053F097FA0546A2
S315080095D000283CD12046FFF797FC2846FFF794FC65
S315080095E0304653F0DFF90024B7E7204653F0E9F98F
S315080095F0054618B92046FFF757FFAEE7FFF706FE00
S315080096008046284653F0CEF9B8F1000F2BD0D8F88B
S3150800961010309BB9D8F814302BB3214648469847E2
S31508009620054670B92046FFF76FFC2846FFF76CFC25
S31508009630284653F0B7F92C462E468EE7204698471B
S31508009640EEE7D8F8183013B1214648469847284619
S3150800965053F0B3F9B0F5806F804629460BD92046FA
S31508009660FFF728FFB6E784212046FFF7A7FB054644
S315080096700028ECD1D6E7504653F0A1F9002804DAC1
S3150800968029462046FFF71CFFA4E7214801F0DAFD2A
S3150800969001460390204817F0D3F800212846FFF723
S315080096A09FFB039B184653F0E6FB059B4246CDE914
S315080096B0009351460023384627F042FA013089D1F3
S315080096C029462046FFF702FF84E701307FF445AFBD
S315080096D052F0AFFC054600287FF43FAF38465CF0F1
S315080096E044FC2046FFF710FC2846FFF70DFC3046E1
S315080096F053F058F9FBE600BF707307088374070830
S31508009700B0710708984C0808982500208C7307083C
S3150800971078250020A5730708D57307088C2500202F
S315080097206C25002056AA0020012808D0022814BF5C
S31508009730022301232820034A00FB03207047002345
S31508009740F8E700BF4875070838B50D4609682C23A1
S31508009750074A0131044617F09BF8031E06DB2A6800
S315080097609A4203D3D21AE0182A6038BD0020FCE7D3
S31508009770632609082DE9F04F074691B00C46059275
S31508009780002118220AA85BF019FB002F4BD0002CE9
S3150800979049D06389013B9BB27F2B44D8A378012B20
S315080097A041D1204653F00DF9029000283BD0A74935
S315080097B05BF02EFAE3698146002B39D05D6C1DB14A
S315080097C09D89003D18BF01253E46D6F800804046D3
S315080097D053F03AF9834668B1DDF83CA0BAF1000FB8
S315080097E029D10C2053F0D2F820B1C0E9008B0F9094
S315080097F0C0F808A0F669002EE7D1B9F1000F40F0CD
S31508009800EA80002D00F0DE80E3699889013080B295
S3150800981053F0BCF8054658BB0F98002840F08D80D9
S31508009820029853F0BFF80026304611B0BDE8F08F15
S315080098301D46C9E79A46DAF804309B4507D15A46C9
S315080098404146DAF800005BF08FFA0028D2D0DAF841
S315080098500830002BEED10C20039353F097F800281C
S31508009860C8D0039BC0E9008B8360CAF80800C1E72B
S31508009870E369B1469A89596C5BF0F8F9E369802186
S315080098809B892846EE5453F011FC714C8046A3463A
S31508009890E169002958D028465BF050FA0A9000285A
S315080098A052D0282303FB09B31C6A0D930444A5422E
S315080098B048D8A844444528BF0024802120460A9455
S315080098C053F0F4FB0B90002846D101244FF0000812
S315080098D00220FFF729FF03900320FFF725FFDDF895
S315080098E03CA08146002840F0B7800027059BB8B207
S315080098F018809CB90746013080B253F047F809979B
S31508009900064658B1B8F1000F40F0218180460E9CFA
S31508009910DFF840B1002C40F01E81F455BAF1000F73
S3150800992040F03A810E98002840F03D81284653F0D1
S3150800993039F8029853F036F876E7846853F032F827
S3150800994020466AE70024B8E709F10109B9F1030FCF
S3150800995004F128049CD1B8E7002CB6D0B94699F88A
S315080099600C302BB10D9B1B78022B09D0032B26D06C
S31508009970D9F81C90B9F1000FF1D14C46C84611E050
S31508009980D9F804000028F3D080220A995BF07BF905
S3150800999080460028ECD148460AA953F06DF80128FC
S315080099A00446E5D10E9B002B92D1012C90D0384667
S315080099B00AA953F092F84FF00108044688E7D9F847
S315080099C00800DFE738460AA953F087F83546044603
S315080099D04FF00108E6E78021029853F067FB04463A
S315080099E00F9DB5B1D5F804904C452DD14A46296846
S315080099F002985BF0B9F938BBB846D8F8000053F0BE
S31508009A0023F898F80C3053B9D8F81C80B8F1000F31
S31508009A10F3D10E9C0025B4FA84F4640956E781450F
S31508009A20F2D16A68D8F8001028685BF09DF982467A
S31508009A300028E9D140460AA953F01EF80128044631
S31508009A40E2D15546D046ADE7AD68CAE708750708BE
S31508009A504875070825750708039B002B3FF445AF93
S31508009A600120FFF761FE00283FF43FAFB8F1000F71
S31508009A7015D14746DDF838B0BBF1000F12D1002FDB
S31508009A803FF433AF013F31E7036A426913440433B5
S31508009A903B444F6889681F440029F5D1EAE75146D7
S31508009AA00027F9E78021DBF8000053F0FFFA039B53
S31508009AB080211A6A0490DBF80400079253F0F6FA3C
S31508009AC0D9F82010079A049B0A44093206901744CD
S31508009AD0DBF8080080211F4453F0E8FA069BDBF800
S31508009AE01CB03B441F18C7E7D9F80400013080B200
S31508009AF052F04CFF044650B9002009A9FFF724FE8E
S31508009B008046D9F80890B9F1000FEDD1FFE6D9E9FA
S31508009B1000125BF0ABF8D9F80420039BDDF824B0FB
S31508009B20A3540BF10101224A2346404616F0B0FE23
S31508009B300490204652F036FF049A002ADCDB93454F
S31508009B40DAD308EB0200ABEB02020992D5E7D1465D
S31508009B5080460394D7E7A368DDF8249001936368E9
S31508009B605A4600934046236809F1010116F090FE13
S31508009B7000280EDB81450CD38044A9EB0000099030
S31508009B80E36923B1404609A9FFF7DEFD8046E4698B
S31508009B90C0E64FF00008F3E7DAF80840504652F0FE
S31508009BA001FFA246BAE6C46952F0FCFE2046BAE6B0
S31508009BB01A7507087F30C0B215289ABF024B185687
S31508009BC04FF0FF30704700BF6A77070808B5074BA4
S31508009BD04FF0FF3118686CF0C6F830B140F2052135
S31508009BE0034B044A04481CF08BFD08BD483200208C
S31508009BF026760708A1770708C075070808B5064B33
S31508009C0018686CF0E4F830B140F20B21034B044AB3
S31508009C1004481CF075FD08BD483200206676070822
S31508009C2080770708C075070837B5134806F072FD30
S31508009C30124B186030B94FF48671114B114A12480D
S31508009C401CF05EFD0024114D28190121183401F07D
S31508009C5053FCB4F5F07FF7D15023082200930A216C
S31508009C600B4B0C4852F0B5FF20B14FF48A710A4BE2
S31508009C70044AE4E703B030BDF0770708483200200D
S31508009C8097760708C0770708C0750708681C01207B
S31508009C90643200204C320020B8760708F8B506462C
S31508009CA00D46D9B16AF07CF90228044601D1FFF7BE
S31508009CB08DFF002318200A4A00FB03F18F18515C18
S31508009CC0B14204D1BD60022C05D00020F8BD013395
S31508009CD0142BF1D1F7E7FFF791FFF6E70120F5E737
S31508009CE05C1C01202DE9F84306468078FFF762FFE1
S31508009CF00546FFF76BFF6A1C07D1B178244816F0B2
S31508009D009FFDBDE8F843FFF779BF1827214C304679
S31508009D1007FB0548D8F804309847D8F808300BB13F
S31508009D203046984707FB05471B4B3F69D3F8108019
S31508009D30B8F1000F0DD11820684323181B691BB111
S31508009D400C30204453F0C5F8182303FB054427615B
S31508009D50D7E7D8F80090B37899F800209A4214D13A
S31508009D60D9F804308BB13046984770B999F8012074
S31508009D7027FA02F3DB0708D51823012103FB05435D
S31508009D8091401A6922EA01021A61D8F80480CFE7DD
S31508009D90547707085C1C01204C3200202DE9F04757
S31508009DA0002407460E462546DFF84480DFF844902F
S31508009DB0DFF844A0A64204D8BDE8F0470B4816F0E1
S31508009DC03FBD731EA342395D06D1504616F038FDD5
S31508009DD0132D06D1002505E0122D05D8484616F0A4
S31508009DE02FFD01350134E5E74046EFE7D4A1070822
S31508009DF011780708087807080078070813460A46FE
S31508009E000168014816F01CBD1A78070838B50C46D3
S31508009E1015460168044816F013FD29462046BDE894
S31508009E203840FFF7BBBF00BF347807082DE9F34178
S31508009E308846074620B90024204602B0BDE8F081CE
S31508009E40524E3389013B042B04D8DFE803F03F3F29
S31508009E50717B7400002433895BBA3B8033895A1EB0
S31508009E60012A71D84FF000083369BD1C0193CDF85B
S31508009E7000802846F368464AA11E16F009FD002808
S31508009E80D9DBF36A0130B3F5007F05440DD09BB2E8
S31508009E90E91BCDE9008328463E4B3F4A611A16F076
S31508009EA0F7FC0028C7DB01300544336B012BC3D010
S31508009EB09BB201930023E91B00932846374B364A89
S31508009EC0611A16F0E5FC0028B6DAB4E74FF480719B
S31508009ED0F06853F0EBF84FF480710446306953F09C
S31508009EE0E5F8F36A0444B3F5007F1FD00B212C4A2A
S31508009EF02C4816F0CDFC0B212A4853F0D7F800F170
S31508009F000905336B012B0AD00B21254A254816F083
S31508009F10BFFC0B21234853F0C9F80935054404341E
S31508009F202C4408F11008A04585D394E70025E8E7F6
S31508009F30B48A0434F5E74FF48071306953F0B6F803
S31508009F40441DEEE7042486E7032B08D1B389381DA0
S31508009F505BBA7B80B28A31695AF088FE6CE7042BBB
S31508009F6003D1B3895BBA7B8066E7052B7FF463AFC1
S31508009F70B3895BBA7B803369002B3FF45DAF0A4A2D
S31508009F80211F381D16F084FC9DE700BFB43200205F
S31508009F903A7807084178070849780708CE8E0808EE
S31508009FA00796080856AE0020BC89080870B51446FE
S31508009FB00D460421074A049E1181908119462046C0
S31508009FC0FFF734FF3346024621462846BDE870406F
S31508009FD052F0CCBDB43200202DE9F84304460028DF
S31508009FE047D0074637F8022B354D00EB010852BA21
S31508009FF0474593B22A813CD2033B032B39D8DFE885
S3150800A00003F0020E121A438804345BBAA045AB81EA
S3150800A0102FD904392C61A9820020BDE8F88343882A
S3150800A0205BBAAB81F8E7438804345BBAA045AB81D9
S3150800A0301FD92C61F0E70023EF602B82BC42EBD8D6
S3150800A040B845E9D94FF48071384653F02FF82B8A72
S3150800A0500B210133034401303E1830462B8253F05E
S3150800A06025F82B8AB44203F10103034481462B8267
S3150800A07001D90120D1E7B045FBD9B9F10A0FF8D8C3
S3150800A080384610495AF0C4FD60B930465AF02AFEDF
S3150800A09040F2C443E86208389842EAD809F1010751
S3150800A0A03744CBE7384608495AF0B2FD0028E0D1D4
S3150800A0B030465AF017FE431E2863FE2BEDE700BF15
S3150800A0C0B432002041780708CE8E0808082820D820
S3150800A0D0DFE800F0050A0C0E101316191C001021F3
S3150800A0E00C4B98696BF088BD2021F9E74021F7E70A
S3150800A0F08021F5E74FF48071F2E74FF40071EFE73E
S3150800A1004FF48061ECE74FF40061E9E74FF48051C2
S3150800A110E6E77047B432002000232DE9F04F89B0F6
S3150800A1208DF81F3052F01EFDAF4CB04D4FF0FF3387
S3150800A130AD4928680DF11F026BF0F7FE06460028A8
S3150800A140F4D16FF07F41A0696BF08FFD4FF4047076
S3150800A15052F08FFE054630B940F2FF41A44BA54A9E
S3150800A160A5481CF0CDFAB4F80890B9F1010F0BD048
S3150800A170B9F1020F00F0B280284652F07CFE0421A5
S3150800A180A0696BF039FDD0E74946A0696BF034FD4C
S3150800A19000F046FA421C074603D1642052F0E0FC60
S3150800A1A0EAE7A188206852F0F5FC804630B93846BF
S3150800A1B052F0DAFC914816F043FBDDE74FF40071E4
S3150800A1C02846FFF733FE434602462946384652F0EC
S3150800A1D0CDFC4FF4007B642052F0C2FC0421A06938
S3150800A1E052F0A7FC80B10523238100235946A38199
S3150800A1F0834B23612846FFF719FE43460246294644
S3150800A200384652F0B3FC50E02946434638460BF12F
S3150800A210100252F0B4FC011E07DC7A4B06F1640A00
S3150800A2209A4500F2A2805646D5E7284689B2FFF736
S3150800A230D3FE82460028F0D12389062B20D1E36A73
S3150800A240B3F5007F13D0284652F015FEE06A1030A9
S3150800A25052F00FFE054640B90421A0696BF0CCFC0C
S3150800A260694816F0EDFA002586E7B4F82CB05B4687
S3150800A2702A4639460020CDF80080FFF797FED2E738
S3150800A280032B19D1636AB4F80C901BB12046A28A35
S3150800A290216998475B462A4639464846CDF80080E4
S3150800A2A0FFF784FEA38A5B45BDD2404652F08FFC79
S3150800A2B0384652F059FC5FE7052BB4D1A36A1BB1A7
S3150800A2C020462269A1899847A089FFF7FFFE5B46C9
S3150800A2D02A4639464846CDF80080CEE74946A06961
S3150800A2E06BF08AFC00F09CF9431C07463FF455AF17
S3150800A2F0A188206852F04EFC804600283FF457AFEC
S3150800A3004FF400712846FFF791FDB3464FF40079E4
S3150800A310024643462946384652F028FCE369D4F8F3
S3150800A32020A003934FEA5A230133CDE9046364203E
S3150800A33052F016FC0421A06952F0FBFB38B1052344
S3150800A34023810023A3812E4B4946236152E72946E0
S3150800A3504346384609F1100252F011FC011E09DC89
S3150800A360284B0BF1640B9B45E1D90821A0696BF0DA
S3150800A37043FC9AE7284689B2FFF72EFE0028EFD15C
S3150800A3802389062B42D1E36AB3F5007F11D028460C
S3150800A39052F071FDE06A103052F06BFD0546002858
S3150800A3A03FF45AAFE36A1FFA83F9BAFBF9F30133AC
S3150800A3B005934B462A4639460020CDF80080FFF71C
S3150800A3C0F5FD03232381049B4946A381039B284665
S3150800A3D02361A682FFF72AFD4346024629463846E8
S3150800A3E052F0C4FBA3E700BFB4320020E8320020D5
S3150800A3F0507807085179070855780708AB78070891
S3150800A400C1780708DF930400D7780708042B1BD107
S3150800A410BAF1000F04D1DDE9043293423FF445AFA7
S3150800A420A38913B1039A4A440392D14598BF4E466D
S3150800A43003F101039BB288BF1FFA8AF64FF0000B9F
S3150800A4400493AAEB060ABCE7052BBAD1A36A1BB18B
S3150800A4502269A18902489847A089FFF737FE24E7B1
S3150800A460B432002008B5342101200C4A06F072FAED
S3150800A4700B4B186030B940F295110A4B0A4A0B4843
S3150800A4801CF03EF900210A4A0A4806F0BDF920B92F
S3150800A4904FF4CC71084B044AF1E708BDB8790708B0
S3150800A4A0E8320020F87807085F7907085578070822
S3150800A4B0D079070819A100080E7907082DE9F04197
S3150800A4C0069F0E4690461D46044610B90120BDE873
S3150800A4D0F0810F4806F0E4F8A0610028F6D00D4B8D
S3150800A4E04FF40072002E08BF1E460B4B0020002DAD
S3150800A4F008BF1D46094B2660002F08BF1F460123CB
S3150800A500A4F80480C4E90B236562A762DFE700BFED
S3150800A510A8790708207907080D9E0008FD9D000800
S3150800A52070B50E4614460546C0B1B9B130460C4959
S3150800A5305AF06EFB40B9072C06D940F2CC439C4230
S3150800A5400CD8EC62002070BD304606495AF060FB14
S3150800A55020B9631EFE2B01D82C63F3E70120F2E72E
S3150800A56041780708CE8E080810B50C46014620B17A
S3150800A5701AB113B1601E012804D9094816F060F90A
S3150800A580012010BD0748C1E9032300684FF0FF33D7
S3150800A59000220C816BF07DFC003818BF0120F0E723
S3150800A5A023790708E832002010B5044620B909487F
S3150800A5B016F046F9012010BD6FF07F4180696BF0F7
S3150800A5C054FB0028F6DB0421A0696BF015FBC00FCD
S3150800A5D0F1E700BF3979070808B501200D495BF096
S3150800A5E045FD30B128220C490C485AF05EFB0B4851
S3150800A5F008BD2823094A074926F00AFA074B28B94D
S3150800A6001846272204495AF050FB0346002283F8CD
S3150800A6102720ECE789AE00202079070861AE0020E4
S3150800A62003220020014926F01BBA00BF02000100E0
S3150800A630024B187808B100221A707047C1AE002084
S3150800A6402DE9F04F4FF4007099B052F09FF9054686
S3150800A65020B90025284619B0BDE8F08F2D4B18689B
S3150800A6606BF021FB041EF4DB0CF0FAFD00212A4AEC
S3150800A6700CF008FE294AD18BD36801B10139D08D77
S3150800A68092F816C092F815E092F8148000B10138D5
S3150800A690D68F92F8269092F825A092F824B006B1A3
S3150800A6A0013E5768179717681697C4F3C01715978A
S3150800A6B0C4F380171497C4F340171397C4F300170D
S3150800A6C01297C4F3C0071197C4F380071097C4F311
S3150800A6D040070F9704F00107CDE90D4794680C94DD
S3150800A6E092F834400B9492F835400A9492F8362042
S3150800A6F0CDE90409CDE90862CDE9001C28464FF4E6
S3150800A7000071074ACDE906ABCDE902E816F0C0F8B4
S3150800A710A0E700BF2C360020C03300208C33002071
S3150800A720F479070838B5084D0C4629461DF096F801
S3150800A7302946206000201DF091F829466060002017
S3150800A7401DF08CF8A06038BDBDA00708012208B529
S3150800A750044B1A70FEF744FD18B1BDE80840FEF731
S3150800A7604BBD08BDC1AE002010B504460CF078FDFF
S3150800A770074A002152F8143CC01A0CF083FD054B19
S3150800A780214618686BF038FABDE81040FFF7DEBFBF
S3150800A790B03300202C3600200A4B10B51B7873B155
S3150800A7A0094C0A488021606152F080FC6081FFF7FD
S3150800A7B047FF4FF40071A06152F078FCA08102486F
S3150800A7C010BD00BFC1AE0020401E0120A4350020E8
S3150800A7D008B5074B4FF0FF3118686BF0C4FA30B173
S3150800A7E040F22A61034B044A04481BF089FF08BD5E
S3150800A7F028360020697B0708557F07089D7B0708D0
S3150800A80008B5064B18686BF0E2FA30B140F22F61D2
S3150800A810034B044A04481BF073FF08BD2836002082
S3150800A820FB7B0708407F07089D7B070870B5324801
S3150800A83005F070FF314B186030B940F2DF11304B2C
S3150800A840304A31481BF05CFF304805F029FF304B91
S3150800A850186020B94FF4F1712E4B2A4AF1E700210E
S3150800A8602D4A2E4805F0D0FF20B940F2E5112C4BB1
S3150800A870244AE6E72B48FEF77FFD054620B14FF44C
S3150800A880F371294B1F4ADCE7284C294920465AF020
S3150800A890C9F94523274904F12A0023855AF0C2F944
S3150800A8A0254904F595705AF0BDF9214904F5D57086
S3150800A8B05AF0B8F941F23360A4F8D2015BF040FBD4
S3150800A8C01E4E04F5D571308106F11002284626F091
S3150800A8D083F81B4904F5EA705AF0A4F90A233046AE
S3150800A8E0C4F85432FEF7BCFB20B140F20A21154BDE
S3150800A8F0044AA6E770BD00BFD07F070828360020A7
S3150800A900207C07087B7F07089D7B0708E07F0708F0
S3150800A9102C360020357C0708F07F0708C5A90008F3
S3150800A9204A7C0708941E01205F7C0708D033002064
S3150800A930A37C0708AF7C0708C27C0708601E0120B5
S3150800A940CB7C0708DB7C0708002238B5094D0A4B83
S3150800A9502868C3E900226BF0A6F9041E08DB14F088
S3150800A960010403D1012128686BF046F9204638BD59
S3150800A9700124FBE72C3600208C33002038B5084D1F
S3150800A98028686BF090F9041E08DB14F0100405D152
S3150800A990102128686BF030F9204638BD0124FBE702
S3150800A9A02C360020064B10B5044618686BF07BF968
S3150800A9B00028AABFE040002000F0010010BD00BF3B
S3150800A9C02C360020F7B55A4C204600F0BFFEE36847
S3150800A9D033B940F23551574B574A58481BF090FE49
S3150800A9E00020574952F0F5FAB8B9564E564F01218C
S3150800A9F030686BF03AF94FF0FF33022201213068D4
S3150800AA006BF054F904460CF02BFC002C386109DA7B
S3150800AA104FF00040FFF7A8FEE9E740F236514B4BEE
S3150800AA20454ADAE74A4930686BF01FF9002001F019
S3150800AA300DF80420FFF7B6FF18B1FFF787FE1020C0
S3150800AA40E8E7FFF783FE434B434C00932146434B0D
S3150800AA50228D4348FFF732FD08B12020DAE7FFF7D9
S3150800AA6075FE40F2CC423F493D48FFF759FD08B113
S3150800AA708020CFE708223C493948FFF751FD0028D6
S3150800AA80F6D10121394B364804F12A02FFF76CFD4D
S3150800AA900028EDD1324852F059F80028E8D130485C
S3150800AAA052F050F80028D8D10520FFF77BFF002880
S3150800AAB0D3D10420FFF776FF0028BED10220FFF786
S3150800AAC053FE4FF47A706BF082F80021084652F074
S3150800AAD093FA274D0446286040B14020FFF744FE0C
S3150800AAE0294640F2EA3052F0E6F880E70420FFF7FC
S3150800AAF03BFE4FF47A706BF06AF8204600F046FE8B
S3150800AB00286030B18020FFF72FFE294640F2EB304F
S3150800AB10E9E70820FFF728FE41F288306BF057F87E
S3150800AB200420FFF73FFF00283FF461AF85E700BF29
S3150800AB3040330020127D07086A7F07089D7B0708B7
S3150800AB40383300202C3600208C330020347D07084B
S3150800AB50FEFFFF0087CC0508D033002075AB000840
S3150800AB600433002041780708CE8E0808917D07082F
S3150800AB70F83200202DE9F041054604200F4690469C
S3150800AB80FFF710FF20B12846BDE8F041FFF70CBDDE
S3150800AB90A989EB6A274C4E1E5E43636801336360DE
S3150800ABA0254B1A68B24204D1236801332360BDE8F5
S3150800ABB0F08101291E60214B18BFA168A88A1A884E
S3150800ABC01EBF09180132A1601D4918BF1A801A88CC
S3150800ABD0D1F8541208BFA060914203D100221A800E
S3150800ABE0FFF7B4FD3A4643463146002000F08AFE98
S3150800ABF0144F0546386058B12020FFF7B5FD394691
S3150800AC0040F2E9307E60A7F8088052F054F8CEE7A3
S3150800AC100CF026FB236929460B4AC01A0CF032FBB6
S3150800AC200CF01EFB23692946BDE8F041074AC01A05
S3150800AC300CF028BB8C3300203C1E01206C2301201D
S3150800AC40D0330020EC320020A0330020B03300209F
S3150800AC5038B50D46044678B1FFF7BAFD074B2146CD
S3150800AC60282218465AF021F80024058580F827403E
S3150800AC70FFF7C6FD204638BD0120FCE7D03300208B
S3150800AC8010B5044670B1FFF7A3FD214600248022C3
S3150800AC9005485AF00AF8054B83F8A941FFF7B0FDB5
S3150800ACA0204610BD0120FCE7FA340020D0330020EE
S3150800ACB038B50D46044688B14B1E7F2B0ED8FFF7D4
S3150800ACC087FD2A4620462C440025054959F0EDFF04
S3150800ACD004F8015CFFF794FD284638BD0120FCE71F
S3150800ACE0FA34002010B5044678B1FFF771FD214605
S3150800ACF000244FF48072064859F0D7FF054B83F8B5
S3150800AD002941FFF77DFD204610BD0120FCE700BF65
S3150800AD10FA330020D033002038B50D46044678B102
S3150800AD2071B1FFF755FD2A4620462C4400250549F2
S3150800AD3059F0BBFF04F8015CFFF762FD284638BDF1
S3150800AD400120FCE7FA330020F8B50C46054650B357
S3150800AD500027FFF73DFD154E29462822144859F0CD
S3150800AD60A4FF204686F8D171A6F8D2415BF0E8F830
S3150800AD70104D06F5D571288105F11002384625F0E3
S3150800AD802BFE01280DD10C48FEF792F9044618B19E
S3150800AD90FFF736FD2046F8BD2846FEF761F904465A
S3150800ADA0F6E7FFF72DFD0124F4E700BFD0330020B6
S3150800ADB07A350020601E0120977D070810B50446E5
S3150800ADC070B1FFF705FD214600248022054859F099
S3150800ADD06CFF054B83F85342FFF712FD204610BD62
S3150800ADE00120FCE7A4350020D033002038B50D46F5
S3150800ADF0044688B14B1E7F2B0ED8FFF7E9FC2A467E
S3150800AE0020462C440025054959F04FFF04F8015CFB
S3150800AE10FFF7F6FC284638BD0120FCE7A4350020DC
S3150800AE2010B5044640B1FFF7D3FC044BC3F85442AF
S3150800AE30FFF7E6FC002010BD0120FCE7D033002018
S3150800AE402DE9F34186210646FDF7B8FF044600B30F
S3150800AE50B36913B9B378022B1BD0AA4DEB6813B9A3
S3150800AE60FFF7BAFBE8604523A37032236360B37823
S3150800AE70012B40F0A080B3690BB1B3896BB9FFF71A
S3150800AE80DFFBA061A06918B14FF4007152F00EF90A
S3150800AE90A081204602B0BDE8F0814FF4007051F061
S3150800AEA075FDA0610028EDD0304651F0ACFD07468F
S3150800AEB018B9A06951F076FDE4E7934D2946FFF7E6
S3150800AEC031FC2D682DB922463146904851F0DCFEFA
S3150800AED008E029468E4859F09BFE28B98D49A06995
S3150800AEE059F0A0FE3846E5E729468B4859F090FE0A
S3150800AEF08046B0B9894E8A4DFFF76AFC314627224B
S3150800AF00284659F0D2FE368D85F82780FFF778FC5B
S3150800AF1000962B464FF40071824AA06915F0B8FCDA
S3150800AF20E0E72946804859F073FE38B94FF40071B6
S3150800AF30A069FFF7F1FE0028C5D1D3E729467B486B
S3150800AF4059F066FE20B98021A069FFF7B1FEF2E745
S3150800AF502946774859F05CFE804668B9704DFFF778
S3150800AF6037FC27222846734959F09FFE6B4B85F814
S3150800AF702780B3F8D261C9E729466F4859F048FED9
S3150800AF8020B98021A069FFF731FFD4E729466B482D
S3150800AF9059F03EFE002896D1FFF71AFC5F4BD3F80E
S3150800AFA05452FFF72DFC4FF40071654AA069ABB205
S3150800AFB015F06EFC96E7022B7FF464AF4FF4007031
S3150800AFC051F0E4FCA06100283FF45CAF304651F034
S3150800AFD01AFD074600283FF46CAF5A4D2946FFF77D
S3150800AFE0A1FBD5F80080B8F1000F3FF46CAF4146DD
S3150800AFF0554859F00DFE18B9FFF7A6FC05464BE073
S3150800B0004146524859F004FE10B9FFF7B7FCF5E778
S3150800B01041464F4859F0FCFD28B900F0BBFA3B48B9
S3150800B0202246314652E741463B4859F0F1FD80B980
S3150800B030D5F80480B8F1000F3FF445AFA86800289A
S3150800B0403FF441AF59F04EFE81B24046FFF700FE8D
S3150800B050D4E74146344859F0DBFD30B96868002822
S3150800B0603FF431AFFFF73EFEC8E741462F4859F097
S3150800B070CFFDA8B96B68002B3FF425AFDFF8DC805D
S3150800B0804046FEF7A1F96868FFF7FAFD054631481C
S3150800B090C0F80080FEF770F9002DC0D12E48BFE732
S3150800B0A04146234859F0B4FD80B9D5F80480B8F173
S3150800B0B0000F3FF408AFA86800283FF404AF59F022
S3150800B0C011FE81B24046FFF73FFE97E741461A4810
S3150800B0D059F09EFD30B9686800283FF4F4AEFFF7D2
S3150800B0E06DFE8BE74146154859F092FD002896D12A
S3150800B0F0686800283FF4E7AE59F0F4FD80B2FFF720
S3150800B1008FFE7BE78C33002080330020C87F07083A
S3150800B110A27D0708A77D07080F7F0708D033002000
S3150800B12099AE0020027F0708BE7C0708237F070820
S3150800B130087F07087A3500201C7F0708277F07083D
S3150800B140980C09087433002099AC08086C4A090859
S3150800B150387F0708941E0120C07F0708FA340020AC
S3150800B1602DE9F84F0F460646014600234FF0010920
S3150800B1704FF0FF0831F8022B62BB5A1C082A22D16D
S3150800B180D01A484501D981469846531C072BF1D950
S3150800B1903C4600254FF03A0A18494FEA490BA8459C
S3150800B1A01AD1B8F1000F03D1204600F801AB0446C6
S3150800B1B04D44072D04F801AB5E44F0D900232370F3
S3150800B1C0E01BBDE8F88F31F8024B501C002CD7D194
S3150800B1D00246D3E71A46D8E73288204652BA92B2D0
S3150800B1E015F042FB0135082D0444E7D0A84503496C
S3150800B1F006F1020604F801ABEED1D9E7C61F090825
S3150800B2007FB5002380290E461546CDE90033CDE9E2
S3150800B210023312D80A460146684651F06BFD2946A4
S3150800B2206846FFF79DFF2C1832462046044915F05C
S3150800B2301BFB2044401B04B070BD1846FBE700BF4B
S3150800B2401480070838B5054660B1282054F024FB59
S3150800B250044638B101462846FFF782FF18B920464A
S3150800B26051F009FE014C204638BD00BF2079070879
S3150800B2700146014851F0F2BDA4820708014601487B
S3150800B28051F0ECBD148207080146014851F0E6BDAD
S3150800B290DC81070830B5044685B0182054F0FCFA5E
S3150800B2A0054680B123688BB92079FFF7E7FF034687
S3150800B2B00F4A0292A2790192627900920D4A1821E8
S3150800B2C0284615F0E5FA284605B030BD012B0BD106
S3150800B2D02079FFF7D3FF084A03460292A279019222
S3150800B2E062790092054AEAE751F0C5FDEBE700BF2F
S3150800B2F026800708188007083B8007082D8007085E
S3150800B3002DE9F74F0025AB46554FDFF858910190C8
S3150800B3101FFA85F857F82830002B00F0858000269C
S3150800B32011E02422836802FB01335BB1D9690B78EB
S3150800B330072B07D191F801C08B784FEA1C1E53B131
S3150800B340012B3FD0013657F82800B1B2C3688B42AB
S3150800B350E7D80135DCE7BEF1010FF3D80CF00F0C86
S3150800B3600CF1FF300728EDD83E4803600B790371CE
S3150800B370CB7880F807E043713B4B13F80C308371A8
S3150800B3804FF0010A0024E1B28A45DBD9019B002B64
S3150800B3905FD1BBF1000F40D0484651F080FD002830
S3150800B3A040D059468C4649690029FBD1D9F8001086
S3150800B3B0CCF81400012951D199F80610013189F801
S3150800B3C006104BE0BEF1050FBCD891F804C025481D
S3150800B3D0036080F804C091F803C080F805C0497876
S3150800B3E02029817115D0302904D0402913D050293D
S3150800B3F0C6D103231D4903EB43030B4493F802A06C
S3150800B40059780AF1010AAAEB010A81715FFA8AFAE8
S3150800B410B8E70023EEE70223ECE7124851F03FFDB8
S3150800B420834628B94FF0000B584603B0BDE8F08FA5
S3150800B430D9F80010012904D199F80610013189F8C4
S3150800B44006100134E1B25145BFF47CAF019B002BD5
S3150800B450A2D04846019B984700289AD1013492E722
S3150800B460CC1F012030360020D0810708C481070888
S3150800B47030B5044689B0182054F00EFA054690B146
S3150800B480E37918210693A379084A05936379049307
S3150800B49023790393E3780293A3780193637800935F
S3150800B4A0237815F0F5F9284609B030BD428007081B
S3150800B4B00138C0B203289ABF024B53F82000002077
S3150800B4C0704700BF8080070830B5044685B0202045
S3150800B4D054F0E2F9054650B1237B20210293E37A22
S3150800B4E0044A0193A37A0093238915F0D1F92846D3
