:020000040800F2
:1060000008140020D9BB000807D105081D4C06085C
:1060100007D1050807D1050807D1050807D10508EC
:1060200007D1050807D1050807D1050807D10508DC
:1060300007D10508348507089116010807D105081E
:1060400007D1050807D1050807D1050807D10508BC
:1060500007D1050807D1050807D1050807D10508AC
:1060600007D1050807D1050807D10508E166020830
:10607000014C060807D1050807D1050807D1050816
:1060800007D1050807D1050807D1050807D105087C
:1060900007D1050807D1050819C7000807D1050869
:1060A00007D1050807D1050825C3000805C3000866
:1060B00007D1050807D1050805E70208FDF1020828
:1060C000675806086358060875E902087D580608EF
:1060D0006B580608CDF102086F5806083DF2020819
:1060E00029F3020807D1050807D1050807D10508DB
:1060F00007D1050807D1050807D1050807D105080C
:1061000007D1050807D1050807D1050807D10508FB
:1061100007D1050807D1050807D1050807D10508EB
:1061200007D1050807D1050807D1050807D10508DB
:1061300007D1050807D1050807D1050807D10508CB
:1061400007D1050807D1050807D105087121010805
:1061500007D1050807D105084B66070851CA020890
:1061600007D1050807D10508575806085D580608E5
:0C61700007D1050807D1050807D1050874
:10617C00F0B5114A114C124E00F00105E3695F07AE
:10618C0013D40DB9334213D103EA00078F4207D160
:10619C000B4A1A40002A0CBF00206FF00100F0BD22
:1061AC00013AEBD16FF00200F9E74FF0FF30F6E760
:1061BC006FF00100F3E700BF8096980000000350D9
:1061CC00020001000B4B70B5D96911F480310DD16F
:1061DC0001244FF48072084E084DF46020462C6464
:1061EC001A61FFF7C5FF3464EC6070BD6FF00100FD
:1061FC00FBE700BF000003500010035000200350C9
:10620C00C0F30C0370B5054623B140F21A211148B6
:10621C0000F0A2F84FF480320F4B104C9A66E669EE
:10622C0041F6713316400122E3630D4B0021DA6015
:10623C000223656121202361FFF79AFF10B9212009
:10624C00FFF796FF0122074BDA600EB10023E363E0
:10625C0070BD00BFFB870708009000500000035082
:10626C00001003500020035070B5134C6061E369BB
:10627C005B071ED40E4656F8043B8D18A361AE4244
:10628C000BD10423002121202361FFF771FF58B9A2
:10629C00BDE870402120FFF76BBF08210846FFF7CF
:1062AC0067FF10B10423236170BD56F8043BA36152
:1062BC00E5E74FF0FF30F7E7000003502DE9F84316
:1062CC00154682070F46064604D040F266211E484A
:1062DC0000F042F8AB0704D04FF41A711A4800F0E2
:1062EC003BF84FF48032194BDFF868909A6603F54F
:1062FC001C33DA6902F4803841F67132DA63012218
:10630C0003F58053DA6065B928460122104BDA6038
:10631C00B8F1000F03D00022A3F50053DA63BDE8F7
:10632C00F88306F5005404EA0904A41BAC4228BF08
:10633C002C46394622463046FFF796FF0028E4D11A
:10634C00264427442D1BDEE7FB87070800900050EE
:10635C000020035000E0FFFF5FF800F055670208D3
:106370002DE9F04100231546C2E900014FF47A727D
:1063800080460F4621F000F818A3D3E90023044605
:106390000E464046394620F0F7FF134B80B2288165
:1063A0005843241A66F100064FF461620023204628
:1063B000314620F0E9FF4FF46163C0B2A872584340
:1063C000241A20464FF03C024FF0000366F1000112
:1063D00020F0DAFFC0B2E872C0EB0010A4EB80043A
:1063E0002C73BDE8F08100BF80510100005C2605E0
:1063F00000000000000000002DE9F843161E1F46B3
:1064000006DA7242D31782428B410AD3212074E00C
:10641000F31734184B414FF0000228BF0122002A25
:10642000F4D13D4B83424FF049038B41EED33518F5
:1064300041EBE67928463C220023494620F0A4FFA0
:1064400000233A703C2220F09FFF00237A7018222C
:1064500020F09AFF04460130BA7088464FF00702D8
:1064600041F10001002320F08FFF28463A7249468F
:1064700027A3D3E9002320F087FF85B2042D3ED95E
:1064800005F26C75A9B240F26C7059F046FB201A07
:106490004FF0000368F1000140F26D1220F074FF2C
:1064A00085B205F26C7189B240F26C7059F035FB1F
:1064B00001462846FD8059F040FB40F26D13641AF6
:1064C0004FF00C014FF0000203FB05F568F10008E6
:1064D000641B04F101037B81104B68F1000801FB90
:1064E0000030D3B2C35C511C9C4278F1000508D245
:1064F000002001343A71FC70FE60BDE8F883002191
:10650000D7E7E31A1C460A4668F10008E9E700BF2E
:106510008033E101000000007FBD68790A9607081A
:106520002DE9F04F93B0CDE90A32DDE91C530E930B
:1065300053EC102BCDE90801104619468DED060BE2
:106540001E9E20F007FE80B1DDE906014FF0FF320C
:10655000C54B20F027FE40B9DDE906014FF0FF32C0
:106560006FF4801320F000FE70B1DDE908019DEDAD
:10657000060B0E9B1E96CDE91C53DDE90A3213B0C3
:10658000BDE8F04F00F088B90022DDE906010023E4
:1065900020F0EAFD002800F03381DDE906A303F1D5
:1065A000004BCBF30A5016F48063A0F2FF3008BF13
:1065B00006250F9320F0FCFA9BA3D3E9002320F0DB
:1065C00061FB9BA3D3E9002320F0A6F9CBF31304CE
:1065D000894644F07F5180460022A44B504641F446
:1065E000401120F097F994A3D3E9002320F04AFB4F
:1065F00002460B464046494620F08EF920F0DCFD6D
:10660000044620F0D5FA8EA3D3E9002380468946BC
:1066100020F038FB0022964B20F07EF920F0CCFDD4
:1066200089A3D3E9002307464946404620F02AFBC8
:1066300080463846894620F0BBFA85A3D3E900237B
:1066400020F020FB02460B464046494620F062F906
:1066500002460B46CDE90C2320F014FBDDE90C23A8
:10666000804689461046194620F056F90022CDE9A9
:106670001001804B4046494620F02EFC00227E4B04
:1066800020F04AF902460B464046494620F024FCD9
:1066900000227A4B20F040F902460B46404649461C
:1066A00020F01AFCDDE90C238046894600204FF0DB
:1066B000804120F02FF902460B464046494620F023
:1066C0002BF902460B46DDE9100120F005FC07F22C
:1066D000FF3700226A4B20F01FF900223B0520F013
:1066E000D1FA52465B468046894620F05BFD002881
:1066F00040F08980CDE90C8904F16303C72B34BFD6
:106700000427052731051BD553A3D3E900235046A1
:10671000594620F03DFD00287FD051A3D3E9002346
:106720005046594620F020FD002876D00027A5428B
:10673000C6BF2C1B04F1FF3500253C4646F480669D
:106740000E9B9F422CBF4FF00008A3EB070816F0EA
:10675000020903D0002F18BF4FF000083CB1DDE95B
:106760000C235046594620F0B7FB82468B46DDE9A4
:1067700006010022002320F0F7FC10B10BF10043CA
:106780009B46DDE9080126F40063CDE90183DDE9DC
:106790000A324BEC10AB009500F07EF802465FB376
:1067A000DDE9091316F0200F00F10105089E0CBF6A
:1067B00065204520B047DDE9080105230022059347
:1067C0000A23002CCDE9023207F1FF374FEAD473D8
:1067D000B8BF64422A46019304970A9B00945EF076
:1067E00074F80246B9F1000F06D00B9BC41A0B9B3C
:1067F0001A190E9BA34245D8104613B0BDE8F08F7E
:10680000DDE906ABCDE60022404649461A4B20F0B2
:1068100063FB013CCDE90C016EE7002D90D00F9B8E
:10682000002B8DD0013D8BE7FB799F501344D33F64
:10683000B3C8608B288AC63F61436F63A787D23F86
:1068400071A379094F930A401655B5BBB16B02404D
:10685000EF39FAFE422EE63F2D431CEBE2361A3F9B
:106860000000000080842E41FFFFEF7F0000F83F12
:106870000000E03F00002C400000244000001840D1
:106880000000F03F2020DDE90913089DA8470134EE
:10689000ADE700BF000000002DE9F04F5BEC10AB4E
:1068A00097B0CDE90501DDE92057CDE90723504632
:1068B00052465B465946229E20F04CFC70B9032399
:1068C000CDE902760193B04B0093DDE90501DDE9E6
:1068D00007235DF01AFF17B0BDE8F08F4FF0FF32CD
:1068E0006FF480135046594620F03EFC28B1042333
:1068F000CDE902760193A54BE6E74FF0FF32504613
:106900005946A34B20F04EFC68B1A24A06F004039E
:10691000002B08BF0322A04B1CBF13460422CDE965
:1069200002760192D0E7504693A3D3E9002359465B
:1069300020F038FC38B992A3D3E9002350465946D9
:1069400020F012FC68B1DDE90723DDE905014BEC1D
:1069500010ABCDE92176209517B0BDE8F04FFFF7D9
:10696000DFBD002200235046594620F0FDFB0028E1
:1069700000F09A805B465246002000211FF0CAFFBB
:10698000012382468B46099316F4806400F08E80C2
:10699000092D40F28E80002430210EABA5F10902B2
:1069A0000134202C03F8011BA5EB040901D094420B
:1069B000F6D15946504620F0FFFB784B054603EBD5
:1069C000C90393ED007B8DED0A7B20F0F1F80246C0
:1069D0000B46504659461FF09DFFDDE90A2320F083
:1069E00051F902460B46CDE90C2320F00DFC804600
:1069F00020F0CEF802460B46DDE90C011FF08AFFBD
:106A000002460B46CDE90C230022654B20F0CAFB61
:106A1000002851D008F10108404620F0B9F802469C
:106A20000B46DDE90A0120F0A9FB10B14FF0000888
:106A30000135B9F1000F50D1284620F0B9F80246CF
:106A40000B46504659461FF065FF0022544B8046C6
:106A5000894620F089FB30B1002240464946504B20
:106A600020F0A0FB10B1E80700D501350A210EABDC
:106A70001A19202C0AD095FBF1F001FB1055303586
:106A800002F8015B013405460028F2D106F003024A
:106A9000012A57D1002F55D0099A12B916F00C0FC0
:106AA00000D0013F302245E009906DE74FF0060924
:106AB0007FE7A94600247CE70022DDE90C01384B82
:106AC00020F052FB0028B4D1B8F1000F02D018F02A
:106AD000010FAED008F10108ABE70A210EAB234449
:106AE000202C0ED0B8FBF1F001FB1082B8F1090F99
:106AF00002F1300209F1FF3904F1010403F8012B1E
:106B000011D83021A1440EAA202CAFD0A14504F108
:106B100001030AD11C4609F158030DEB03092E238A
:106B200009F8203CA2E78046DAE7A1541C46EBE7CF
:106B30001A550134A74205D9202CF9D1CDE90276A6
:106B40000194C1E6202CF9D0099A3AB12D2104F123
:106B500058026A4402F8201C0134EFE7710704D59B
:106B600004F158022B216A44F4E73207E6D504F118
:106B7000580220216A44EDE70000000065CDCD41B8
:106B80000000000065CDCDC163A6070867A6070811
:106B9000FFFFEF7F5AA607085FA6070870A6070841
:106BA0000000E03F00000000F0B5934C9FB0228849
:106BB000A3780021ADF80C2013A82C228DF80E30FC
:106BC0005EF06AF84FF00233159340F20B130AADF2
:106BD0000434ADF874300FCC0FC50FCC0FC523684B
:106BE000864A2B60864B874D06930023CDE90733F9
:106BF00009934FF0FF33284683492B6028F0A0FC0F
:106C00000446002853D12868431C06D140F2A44111
:106C10007E4B7F4A7F481FF085FD03A928F0CEFCFC
:106C20000446002843D128685EF0F7F97A4E7B4F7E
:106C3000307028685EF0F3F9387028685EF0F1F97A
:106C4000774B78491870286828F0B6FF044600286A
:106C50002DD13378744E4BB974482DF04FFA306013
:106C6000D0B940F2DC41724B694AD3E771482DF04C
:106C700045FA30600028EFD0C189286828F000FF6D
:106C80003368214658682DF073FA044678B967488E
:106C90002DF034FA306090B1C189286828F0F0FEF8
:106CA0003368042158682DF063FA044638B123464E
:106CB00022210220604A5FF048F91FB0F0BD09F0C0
:106CC0001BFC5E4BCDE9040104AAA3F1080112F8F4
:106CD000010B03F8010D9942F9D13B78002B46D105
:106CE000574928685EF0C5FE04460028DFD15549A3
:106CF00028685EF0A8FE04460028D8D152492868CA
:106D000028F05EFD04460028D1D139A3D3E9002341
:106D1000CDE9002328685EF0AEFE04460028C6D107
:106D20004A4A4B4928685EF006FF04460028BED157
:106D3000484A494928685EF002FF04460028B6D157
:106D40000121286828F058FC04460028AFD1A02370
:106D5000424A06A8D380424A136009F0A1FC414B85
:106D6000186088B940F225513F4B294A52E71C224E
:106D7000002116A85DF090FF286813A929F018F9E2
:106D800004460028ACD092E722460121082009F0F1
:106D9000E1FD364B186020B94FF4A561344B1C4A15
:106DA00038E722460121082009F0D4FD314B186054
:106DB00020B940F22B51304B154A2BE72F4A30496E
:106DC00030482EF0CBFF2F4849F086FE00212E4898
:106DD0000AAA09F019FD2D4B186000287FF46DAF49
:106DE00040F237512A4B0A4A14E700BFAFF3008044
:106DF000C88D01C103400000D87B08085D3E030830
:106E0000F3700808B49D0020A02201200871080832
:106E1000D97A0808C26E0808C3100120C2100120E8
:106E2000C110012007001100708D0020AD7406080C
:106E30002F71080897740608BA710808CC10012051
:106E4000D67B0808D47B0808B89D0020EA230120DF
:106E5000F0180020EC230120AC8D0020E02201205E
:106E6000209E0020349E002047710808309E00209C
:106E7000637108082C9E002080710808A071080822
:106E800019430308D49D002081540308389E002034
:106E9000A9710808000000002DE9F34705465A4C87
:106EA00022211020594A5FF050F81422294620462A
:106EB0005DF08BFFA27B564BDFF8A0A11A70637CBC
:106EC00000228AF800300023CDE90023DFF890810A
:106ED00000224FF40073D8F800005EF0CCFD0646A7
:106EE00020B10126304602B0BDE8F087494B4A4F39
:106EF0001B787BB949482DF001F904463C60FCB988
:106F0000474A222102205FF020F80122454B21262A
:106F10001A70E7E7444B454C1A88454BD8F80000F7
:106F200053F82210434A8B6821603B6028F032FC02
:106F30002268414B946824221B8802FB0344DDE74E
:106F40003E4B1C60394BD3F80090B9F1000F07D0CD
:106F500000232420D9F80C108B4208D100251AE018
:106F600040F2ED71364B374A37481FF0DBFBD9F85A
:106F7000085000FB0355EA695278120912F00E0F0F
:106F80002BD0052A29D8314B0021EA89B3F900001A
:106F90003D602DF025F91AA3D3E90023CDE90023A4
:106FA000D8F800005EF067FDD9F80820AA4207D0A3
:106FB000274B3A600421D289B3F900002DF010F973
:106FC000244BE2893C601A80234B1B783BB92EF09E
:106FD0000FF901202DF09AFD84E70133BCE79AF800
:106FE00000301B0913F00E0FF1D101220721D8F850
:106FF00000005EF06EFE0028E9D072E7AFF300807B
:10700000C88D01C103420000748D00208F750808EF
:10701000B8100120BC100120708D002059420308D7
:10702000AB750808BA100120F4A50020648D00207B
:10703000CC1F0120693E0308F2A500206C8D0020C2
:10704000E775080897790808C26E0808EE23012042
:10705000F0230120E4230120C2100120B7100120F9
:10706000B49D0020000000002DE9F84390F8E8618D
:10707000054644683EB902202721414A5EF065FF7B
:107080003046BDE8F88394F90130002B1ADA731EFC
:107090005BB2637000EB431393F825302370A06854
:1070A0001FF098FD32A3D3E900238046894694F966
:1070B000017020F077F8F8B1002F1DDD013F0023AB
:1070C000677024E09E42227805DD00EB431393F8BD
:1070D00025309342E3D0002305F125016370580168
:1070E000085C904208BF637001339E42F7D8731E5C
:1070F000637000232371D2E740461FA3D3E9002326
:10710000494620F04FF8F0B12379E3B1013B2371F8
:1071100094F9013005F5F57005EB431393F825302C
:10712000237085F8EA31052395F8022285F8EC31C1
:1071300085F8F02100230E2285F8EB3185F8F22145
:1071400085F8F1319DE740460BA3D3E9002349467A
:1071500020F00AF80028DBD023790133DBB2092BB9
:107160002371D5D9013EBE42D2DD0137A7E700BF6A
:10717000666666666666E63F9A9999999999B93FF7
:10718000E63E0908000000002DE9F8432DED028BD2
:1071900087680546384616460C461FF01BFD28A397
:1071A000D3E90023804689461FF0FCFF88BB26A355
:1071B000D3E90023404649461FF0D6FF60BBF7EEF7
:1071C000007A07EE107A87EE878A6B7F607F012254
:1071D000834224D000214AF015F9012204463146A9
:1071E000687F4AF00FF9044404F2D5702860D8B1E2
:1071F00007EE900AF8EE677A9FED0D7A67EE887ACF
:1072000087EE270ABDEC028B10EE103AEB60BDE86A
:10721000F8839FED088AD8E79FED078AD5E73146C6
:1072200018464AF0EFF8E1E79FED040AEAE700BFED
:1072300000007A44E4388E3F00401C460000000005
:10724000CDCCCCCCCCCCEC3F9A9999999999B93FBB
:107250002DE9F74F064690F8E8010D469146A0B398
:107260007468A3690133A361A37D06EB43131A7FFE
:1072700002441A77D4E90732C3EB520207EE902A90
:107280004000B8EE677A07EE900AF8EEE76AF4EE8F
:10729000C76AF1EE10FA0BD507EE903A37EE667A30
:1072A000F8EE677A77EE877AFCEEE77AC4ED077A34
:1072B0004FF0000BD9450BD842F21073A2699A42E5
:1072C00082BF0023C4E90633236203B0BDE8F08F18
:1072D000B5F802A02F79BAF1000F2ED038461FF072
:1072E00067FCCDE9000150461FF062FC02460B46E8
:1072F000DDE900011FF0F0FD02460B4600204C497D
:107300001FF008FB1FF0A0FF07EE100A96F80332EB
:10731000AAEB0700034486F8033294F8243033B311
:1073200094F825305B4522D1BAF1000F08D1C4F89A
:1073300020A00BF1010B0635BCE7B7EE007AE5E7BC
:10734000E3690133E3612A78002AF2D000239846EA
:1073500096F8E8C106F108019C450FD8B8F1000F76
:1073600014D127210220334A5EF0EFFDE1E72A78AD
:10737000002ADED0BAF1000FDBD0E7E791F81DE07C
:107380000133964508BF88462031E5E7002288F89A
:107390001420B8F81020D8F8043017440133BAB2DA
:1073A000C8F80430A8F810701AB198F81D2086F8B3
:1073B0001422F7EE007A012B77EEC77A8CBFB3EE7A
:1073C000097A9FED1D7AB8F8122088BF67EE877A98
:1073D0000244A8F81220D8F808208CBF9FED177A35
:1073E00067EE877A06EE102ADFED156AE6EE077A79
:1073F00087EEA67A17EE103A17EE100AC8F8083092
:107400001FF0E8FB08A3D3E900231FF0ADFE18B17D
:10741000FF2388F815308CE798F91530013388D1AF
:107420000423F6E7AFF30080666666666666EE3FA5
:107430000000F03F063F0908000048420000964265
:107440000000C842000000002DE9F04F2DED028B36
:10745000054600274FF0200A4FF0080B0B46082086
:107460004D4A87B0884627215EF06FFD95F8E831D8
:1074700027210820494A5EF068FD6C6805F108067E
:10748000E37D23716371637595F8E891B9450DDC6F
:107490003FA7D7E900674FF00008AA46C346C14599
:1074A00046D807B0BDEC028BBDE8F08FE17D4246C7
:1074B0001AFB01B130462944FFF766FE96F81D908D
:1074C0000495F0681FF086FBCDE90201B0681FF05B
:1074D00081FB4B46CDE90001314A272108205EF0AF
:1074E00034FD2379D6ED037A05EB431292ED057A4C
:1074F000F4EEC77AF1EE10FA02DB327F22710EE071
:1075000017B995F82420F9E7637905EB431393ED58
:10751000057AF4EEC77AF1EE10FA04DB337F63717B
:1075200001372036B0E7012FFAD195F84430F6E75D
:10753000E37D434515D09AED048A18EE100A1FF03A
:1075400049FB32463B461FF023FE10B9BBF1000F4A
:107550000CD19AF8243022799A4202D062799A4268
:1075600011D108F101080AF1200A98E7637D05EBC3
:107570004313D3ED047AB4EEE78AF1EE10FAE8DAB9
:107580004FF0010BEDE76375FAE700BFAFF3008042
:10759000666666666666EE3F1E3F0908403F09085C
:1075A0004F3F0908000000002DE9F047D0F80480A3
:1075B00000EB411393F8245098F817300446AB427F
:1075C0002DD098F81530AB4229D000EB411ADAF8EB
:1075D00010004FEA41191FF0FDFA13A3D3E900236D
:1075E00006460F461FF0CAFD10B99AF91D00A0B15A
:1075F00098F80430AB4212D098F80530AB420ED068
:1076000009A3D3E90023304639461FF0CBFD18B15A
:107610004C44637F013B63770120BDE8F087002085
:10762000FBE700BFAFF30080666666666666EE3F06
:107630002DE9F34704460E46456827210820804A75
:107640005EF083FC20463146FFF7FEFE28466BF0D5
:10765000B0FB002800F0BA8020466BF0BDFB061E90
:10766000C0F2B48094F8E8319E4280F2AF8004EB1F
:107670004617334627210820724A5EF066FC272110
:10768000082097F82530704A5EF05FFC012295F8DB
:1076900004C085F8242004EB4C13386A196A884228
:1076A00097F8250002D8397F322977D9012284F84A
:1076B000EC21002284F8EA0184F8EB21A97D2970ED
:1076C00093F8251084F8F01193F8263084F8F1210E
:1076D00084F8F231697D85F801C004EB411393F819
:1076E0002500012684F8F60193F8263084F8F83155
:1076F000002384F8F731A97085F82520A04605F10C
:10770000FF3904F1120A19F8013F5F1C002E00F046
:10771000898004EB431318691FF05CFA02460B469C
:10772000CDE9002342A3D3E900231FF03BFD40B97C
:1077300041A3D3E90023DDE900011FF015FD002876
:1077400070D004EB4717BB79042B8EBF02230133A3
:10775000C3F3460388F8EC3108F10608C245D2D1DC
:10776000EA7D04F5F57004EB421393F8253084F8B4
:10777000FC31002384F8FD31EA7085F8243094F858
:10778000F22194F8EC31134494F8F821C3F1130377
:107790009B1A84F8FE3102B0BDE8F08793F825709B
:1077A000697D84F8EA7193F8263084F8EC3100237F
:1077B00084F8EB3185F800C084F8F13184F8F001E9
:1077C00084F8F22104EB41136E7088E700262A79D1
:1077D00004EB421393F8251084F8EA1193F826304D
:1077E00084F8EB6184F8EC312A706A7904EB421377
:1077F00093F8251084F8F01193F8263084F8F1619D
:1078000084F8F2316A706A7D04EB421393F8251014
:1078100084F8F61193F8263084F8F76184F8F8318B
:10782000AA706BE704EB4717BB7993E7AFF30080CF
:10783000666666666666EE3F9A9999999999B93F28
:10784000733F0908813F0908913F090800000000C3
:107850002DE9F8432DED028B87680546384616461C
:107860000C461FF0B7F92EA3D3E9002380468946C2
:107870001FF098FC00283DD12BA3D3E900234046FC
:1078800049461FF071FCC0BBF7EE007A07EE107A94
:10789000AB7F87EE878A07EE903AB8EEE77AB4EED0
:1078A000C87AF1EE10FA01D5B8EE678A6B7F607F77
:1078B0000122834224D0002149F0A4FD0122044684
:1078C0003146687F49F09EFD044404F2D57028607B
:1078D000D8B107EE900AF8EE677A9FED0D7A67EE61
:1078E000887A87EE270ABDEC028B10EE103AEB6027
:1078F000BDE8F8839FED078AD8E79FED078AD5E7B3
:107900003146184649F07EFDE1E79FED040AEAE7BB
:1079100000007A44E4388E3F00401C46000000001E
:10792000CDCCCCCCCCCCEC3F9A9999999999B93FD4
:107930002DE9F04F2DED028B90F8E83105460E460B
:10794000934689B0002B00F0238127210820964A16
:107950005EF0FBFA00226C68A1690131A16195F823
:10796000E80190423DD8D4E907230A2779436427E8
:10797000B1FBF7F1C2EB53030B4407EE903A43001F
:1079800006EE903AF8EE677AF8EEE66AF4EEE76A09
:10799000F1EE10FA0BD507EE102A77EEE67AB8EE84
:1079A000477A77EE277AFCEEE77AC4ED077A00276C
:1079B000B846BB451DD8B8F1010F00F0E680B8F11C
:1079C000130F40F2B9800023A3612721082095F806
:1079D0000332764A09B0BDEC028BBDE8F04F5EF091
:1079E000B4BAA37D013205EB43131F7F01371F7724
:1079F000B7E7B6F8029096F804A0B9F1000F41D0AD
:107A000050461FF0D5F8CDE9060148461FF0D0F8E2
:107A100002460B46DDE906011FF05EFA02460B4600
:107A2000002063491EF076FF1FF00EFC08EE100ADE
:107A3000337818EE100A069304951FF0CBF8069BD6
:107A4000CDE902015B4A27210820CDE9009A5EF0CA
:107A50007CFA7288337995F80312D31A0B4485F8AF
:107A6000033294F82430C3B194F82530BB4214D1CA
:107A70005AB92262272108204F4A5EF066FA013780
:107A8000063696E7B7EE008AD2E7E369272101338D
:107A900008204A4AE3615EF058FAB6F802A0BAF14B
:107AA000000FECD00023E25D05EB4211C8680B77B4
:107AB0000130C86096F804C00B8B4FEA421963444A
:107AC0009BB20B831BB191F8253085F81432F7EE89
:107AD000007A05EB0902538B01285344A3EB0C03F6
:107AE00077EEC87A53830DD9B2EE0E7AD2ED046ADE
:107AF00027EE877ADFED327AA6EEA77ADFED316ADC
:107B0000C7EE267AA944C9ED047A17EE900A1FF051
:107B100061F823A3D3E900231FF026FB30B1FF2334
:107B200089F81D30C2441FFA8AF8A8E799F91D3078
:107B30000133F7D10423F3E7B8F1020FD4ED0B7A48
:107B4000B1EE047A15D977EE877AB3EE047AF4EEC3
:107B5000477AF1EE10FA77FE277A42F21073A269A3
:107B6000C4ED0B7A9A4282BF0023C4E90633236234
:107B70002BE7F2EE046A77EEE67AF4EE477AF1EE5E
:107B800010FA48BFF0EE477AE7E7DFED0F7AE4E757
:107B900009B0BDEC028BBDE8F08F00BFAFF30080F1
:107BA000666666666666EE3FD63F09083C40090891
:107BB0000000F03FEC3F09081D4009082C4009086F
:107BC0000000AA420000C8420000000000000000BF
:107BD0002DE9F84F2DED028B0546884600274FF022
:107BE00020094FF0080B446800F10806E37D23717B
:107BF0006371637595F8E8A1BA450CDC0FF2D00902
:107C0000D9E9008900262F46B346B24532D8BDECEB
:107C1000028BBDE8F88FE17D424619FB01B1304689
:107C20002944FFF715FE2379D6ED037A05EB4312BD
:107C300092ED057AF4EEC77AF1EE10FA02DB327FAC
:107C400022710EE017B995F82420F9E7637905EB66
:107C5000431393ED057AF4EEC77AF1EE10FA04DBE4
:107C6000337F637101372036C4E7012FFAD195F8CD
:107C70004430F6E7E37DB34215D097ED048A18EE61
:107C8000100A1EF0A7FF42464B461FF081FA10B9BA
:107C9000BBF1000F0AD197F8243022799A4202D022
:107CA00062799A420FD101362037AEE7637D05EB4A
:107CB0004313D3ED047AB4EEE78AF1EE10FAEADA70
:107CC0004FF0010BEFE76375FAE700BFAFF30080F9
:107CD000666666666666EE3F2DE9F047456890F891
:107CE000E821AB690446B3EB420F2ED900EB4113F8
:107CF00093F82480EB7D43452AD06B7D434527D004
:107D000000EB411ADAF810004FEA41191EF062FF49
:107D100011A3D3E9002306460F461FF02FFA10B92E
:107D20009AF91D0090B12B79434511D06B794345E9
:107D30000ED009A3D3E90023304639461FF032FAAA
:107D400018B14C44637F013B63770120BDE8F087A5
:107D50000020FBE7AFF30080666666666666EE3F6E
:107D60000348044B834202D0034B03B118477047CA
:107D7000343001203430012000000000064B074958
:107D8000C91A891048BF0131491003D0044B0BB107
:107D900001481847704700BF3430012034300120BB
:107DA0000000000010B5064C237843B9FFF7D8FF58
:107DB000044B13B10448AFF300800123237010BDBE
:107DC00004A60020000000002856090808B5054B4D
:107DD0001BB105490548AFF30080BDE80840FFF737
:107DE000CDBF00BF00000000D022002028560908A7
:107DF000A3F5803A704700BF174B002B08BF134B09
:107E00009D46FFF7F5FF00218B460F461348144AA5
:107E1000121A5CF041FF0E4B002B00D098470D4B1F
:107E2000002B00D098470020002104000D000D48D1
:107E3000002802D00C48AFF300801FF0BFFD2000E7
:107E4000290057F028FE1FF02FFC00BF000008009B
:107E500000000000000000000814002008140020AA
:107E6000C41901200000000000000000F8B50C4615
:107E700006461146204615465EF00AF90746284692
:107E800003F0E0F9033C012C054604D947B1314623
:107E9000064818F0D5FC2846BDE8F84054F0FDBF70
:107EA00002463146024818F0CBFCF4E7A866070802
:107EB000C86607080121024B814018686DF0AEBE0C
:107EC0002423002008B5074B4FF0FF3118686DF0F0
:107ED0005CFF30B140F2C631034B044A04481EF047
:107EE00021FC08BD28230020D56607080A6B070877
:107EF0000A67070808B5064B18686DF07AFF30B1BD
:107F00004FF47371034B044A04481EF00BFC08BD88
:107F10002823002055670708F16A07080A67070841
:107F20000023002273B50546CDE900236DF038FC2F
:107F30006A466DF073FC00982D4A0199D2E902322D
:107F4000C01A61EB02012B4ACDE90001FEF710FADD
:107F5000284803F0B9FA284B002814BF06461E46ED
:107F60006B68002B41D1AC6814F001040DD00121E5
:107F7000224A2348FFF77AFF204803F063F931468D
:107F8000044602461F4818F05BFCAB689A070DD503
:107F900003211D4A1D48FFF769FF1B4803F052F9F2
:107FA0003146044602461A4818F04AFCAB685B07A3
:107FB0000DD50421174A1848FFF758FF154803F05C
:107FC00041F9314604460246144818F039FC20466F
:107FD00054F063FF304654F060FF6A681AB11049EC
:107FE000104818F02DFC02B070BD0024EFE700BF70
:107FF0001814002008140020DC99070816A6002099
:108000007B6707088267070836A60020A267070873
:10801000AE67070846A60020D6670708E16707088D
:10802000B16C07080B680708F7B500230022CDE9FB
:10803000002344680546324E64B12146314818F0A9
:10804000FFFB0120FFF736FF012130686DF01FFEB6
:1080500003B0F0BD502221462B485CF01DFE2B489A
:1080600018F0EEFB01212A4A2A48FFF7FFFE2146BD
:10807000254A2948FFF7FAFE0221284A2848FFF737
:10808000F5FE0321274A2848FFF7F0FE274A04217E
:108090002748FFF7EBFE6DF083FB6A466DF0BEFBF1
:1080A000DDE900CE234BD3E90627BCEB02026EEBE1
:1080B0000707D3E90810891847EB0000C3E9081047
:1080C000996A1D48013199624FF47A71B2FBF1F15E
:1080D000CDE90027C3E900CEC3E902CE18F0B0FB1A
:1080E0002046FFF7E7FE022130686DF0D0FD6A6898
:1080F000002AADD01149124818F0A2FBA8E700BF32
:10810000242300202568070806A6002047680708E2
:1081100016A600207B6707085468070826A60020DB
:108120005F68070836A600206D68070846A600208D
:108130007C680708181400208D680708946C0708ED
:108140000B680708F7B50023002205461548CDE95E
:10815000002318F075FB6DF023FB6A466DF05EFBA3
:10816000DDE90010104BD3E904248A1840EB040425
:10817000D3E90276D21B64EB0604C3E90424C3E905
:108180000010C3E906106A681AB10849084818F0D7
:1081900057FB0120FFF78EFE0022064B1A7003B03A
:1081A000F0BD00BF9668070818140020746C07081B
:1081B0000B68070805A600200F4910B50446A1F179
:1081C00028005DF01CFF18B90C490D4818F038FB69
:1081D0000220FFF76FFE0120FFF76CFE094B012123
:1081E00018686DF054FD62682AB1BDE81040064978
:1081F000064818F025BB10BD10230020E8220020FF
:10820000A668070824230020516C07080B6807089C
:108210004168014818F014BBCD680708F7B5002382
:1082200000221B4DCDE900232B780446052B1BD1E2
:108230008368DBB2052B17D06DF0B2FA6A466DF099
:10824000EDFADDE90016134B9F68D3E904208A1884
:1082500046EB0000D21BDF68C3E9001660EB0700A5
:10826000C3E90420C3E90616A0682870C0B202F072
:10827000FFFF014618B1A268074818F0E1FA6268EA
:108280001AB10649064818F0DBFA03B0F0BD00BF8A
:1082900005A6002018140020FA680708336C0708A8
:1082A0000B68070842681AB10249034818F0C8BAB7
:1082B000704700BF1A6C07080B68070842681AB1BC
:1082C0000249034818F0BCBA704700BFF86B0708B2
:1082D0000B68070842681AB10249034818F0B0BA9F
:1082E000704700BFDA6B07080B68070842681AB1CD
:1082F0000249034818F0A4BA704700BFC26B0708D0
:108300000B68070842681AB10249034818F098BA86
:10831000704700BF976B07080B68070842681AB1DF
:108320000249034818F08CBA704700BF746B070805
:108330000B68070842681AB10249034818F080BA6E
:10834000704700BF5C6B07080B68070808B50C484E
:1083500008F0E0F90B4B186030B94FF4E3710A4BA9
:108360000A4A0B481EF0DEF90A4808F099F90A4B50
:10837000186020B94FF4E571084B044AF1E708BDD5
:10838000046D07082823002012690708456B0708B9
:108390000A670708F46C07082423002028690708E7
:1083A00008B50B4601460348032200686DF090FCB7
:1083B000C00F08BD24230020002330B5B3B0002235
:1083C0008DF807300023604C604DCDE90223FFF7A4
:1083D00079FD0FCD0FC40FCD0FC40FCD0FC495E89D
:1083E000070084E807000DF107005DF013FF303C43
:1083F000024618B15649574818F022FA9DF807105E
:1084000031B1554818F01CFAFFF774FD33B030BD98
:10841000B22205A85CF040FC94F8210003F048F873
:10842000054694F824005DF0A7FF014618B14B48BB
:1084300018F006FAE8E72946B22205A85CF0C5FC68
:10844000022305A88DF880305DF0A9FF014630B108
:10845000434818F0F5F90520FFF72CFDD4E7B4F9EF
:1084600022005DF0A7FE014620B13E4818F0E8F971
:108470000620F1E73C485DF0F3FF014608B13B48B8
:10848000D6E73B4B13F8012B0AB989B203E001315F
:10849000B1F5006FF6D1013189B20220344A5DF0A6
:1084A0002AFE014628B9334B13F8012B32B989B2A1
:1084B00008E0314818F0C4F90B20CDE70131B1F5DF
:1084C000006FF1D1013189B206202A4A5DF02AFEFF
:1084D000014628B9294B13F8012B32B989B208E0BB
:1084E000274818F0ADF90C20B6E70131B1F5006F5F
:1084F000F1D1013189B20120204A5DF02AFE014606
:1085000020B1204818F09CF90D20A5E71E49A1F1E3
:1085100028005DF074FD044680B96DF041F902AAAF
:108520006DF07CF9DDE90201184BC3E90001C3E9F4
:108530000201C3E906010449154879E70420FFF761
:10854000B9FC2146134873E7E8220020146D0708A0
:10855000236B07080B680708406907086B69070861
:1085600095690708C969070809F40708F069070849
:10857000E4ED070861F007081F6A070814F307080D
:10858000556A07088A6A070810230020181400207B
:10859000BF6A0708D66A070810B5FFF793FC034BBC
:1085A0001C78FFF7A7FC204610BD00BF05A60020E1
:1085B000402906D1C378202B08D005D813F0EF0F3F
:1085C00004D04FF0FF307047302BFAD18078A528C7
:1085D000F7D8872806D85F2802D013D804280AD8ED
:1085E00000207047094B7830C0B2C34003F001034C
:1085F000013B58B27047413804284FF0FF3098BF14
:108600000020704780F080000628F6E7B100003FA8
:108610002DE9F04F0F4615460446002689B09846CE
:10862000149B9DF84CA0CDE906320390059000EB19
:108630000209079B23B90795002E45D100264CE07F
:10864000BAF1080F069B2CD1FF2B26D89D42059A24
:1086500023D31A44944220D84A451ED85A1C214696
:10866000164405A82A4654F0EDF807900028E2D0F9
:10867000059B1B781909DED12146069305A8012325
:1086800054F0E0F807AB0790009322462B4605A96B
:1086900006A854F0E5F80028CBD0002009B0BDE8CA
:1086A000F08FBAF10B0FCFD0BAF10F0FCCD0BAF1D7
:1086B000140FC9D0BAF1110F01D1022BC5E7BAF1DD
:1086C000040FC3D1082BC0E7013EB7D0FB68B0B29E
:1086D0009847C8F800000028DFD0129BAAF1040ACE
:1086E0001E800123D8F800705FFA8AFBD8F80020BA
:1086F000B91AB14201DA079909B90398CEE76BB903
:108700000123234903FA0BF30B4204D113F0900F1A
:1087100003D02F2300E026233B700137DDF8509073
:10872000BA1A4A44B242B8DCA9450399B5D801EB5C
:1087300009039C42B1D862199342AED84A463846E2
:108740005CF043FB4B462A46214603A854F07AF8D6
:10875000034607904F440398002B9FD003785FEAAD
:1087600013199BD10DF1480A4AF8083F214601230D
:1087700003A854F067F807AB0790009322462B46F6
:10878000504603A954F06CF84B460028AED084E75D
:10879000012801002DE9F04F81460F461D4616467F
:1087A0008BB022B9002420460BB0BDE8F08F03291E
:1087B000F8D90028F6D054F09BF804460028F1D0F0
:1087C0003278314622F03F032B70737802F030028A
:1087D000C270837073883A465BBA0381331D069377
:1087E00006A8002354F02EF83278079002F00F020A
:1087F0002270CAB1082A6DD82369002B6AD197422A
:10880000069967D38B189E4264D8F019834261D8C9
:10881000484654F0ADF8206100285BD03A46314616
:10882000237806A854F00EF84FF0000B069BDFF8F3
:10883000BCA39B1BFB1A0793DDE90632002A00F05C
:10884000D0811A78FF2A0FD19A1BBA420ADA1A7815
:10885000FF2A3FD101339E1BBF1BBFB2A781002F50
:1088600038D0A361002336E002F00F03120931462D
:108870000893099201233A4606A853F0E3FF07AD97
:1088800007903B463246009506A909A853F0E8FF39
:1088900000BB099B03EB0B081FFA88F8434519D866
:1088A000C34517D83B463246009506A908A8CDF81F
:1088B000248053F0D5FF68B9B8F11C0F0DD8B8F17A
:1088C000020F07D92AFA08F3DB070CD4DDE90725E4
:1088D000954215D90123637065E7B8F1230F02D0E3
:1088E000B8F13C0FF6D12146484654F00BF8002869
:1088F000F0D0DDE90725AA42ECD3B8F1230F4BD81D
:10890000B8F1020FE6D9A8F10303202BE2D801A1A8
:1089100051F823F0778A0008458A0008D5880008B6
:10892000218B0008CB8A0008A58A0008D58800089A
:10893000D5880008078B0008C3890008D58800087F
:10894000E9890008438B0008D5880008998B000846
:10895000D5880008D5880008ED8A0008D588000869
:10896000D5880008558B0008D5880008D5880008F0
:10897000D5880008778B0008BB8B0008D5880008D5
:10898000D5880008D5880008D5880008D588000853
:10899000D5880008018A0008B8F13C0F9AD1042D4F
:1089A00098D8D4F81CB09BF80130002B92D1012349
:1089B00029468BF8013006A853F036FFCBF8180093
:1089C00009E0022D86D86368013383D1294606A8C1
:1089D00053F02AFF6060069B9B1B9F42FFF47AAF17
:1089E000FB1AC346079327E7042D3FF673AF2946CA
:1089F00006A8D4F81CB053F017FFCBF81400EAE730
:108A000040F209436A1E9A423FF664AFD4F81CB0A4
:108A1000DBF83030002B7FF45DAF2A4648460699DC
:108A2000ABF8045053F0A4FFE369CBF830001B6BA4
:108A3000002B3FF44FAF2B463A46314606A853F081
:108A400001FFC8E7E369596B00297FF443AF0421B4
:108A500001910DF1160100910698494602953433B3
:108A6000FFF7D6FD069000283FF434AFE369BDF868
:108A700016201A70AFE76B1EFE2B3FF62BAFD4F813
:108A80001CB0DBF83830002B7FF424AF2A46484670
:108A90000699ABF8065053F06BFFE369CBF838004A
:108AA0009B6BC5E7E369D96B00297FF413AF0821FD
:108AB00001915918029500913C3349460698FFF7F9
:108AC000A7FD0690002886D104E7022D3FF602AFED
:108AD000D4F81CB0DBF8203001337FF4FBAE29461C
:108AE00006A853F0A1FECBF8200074E7E369196CE7
:108AF00000297FF4EFAE1421019103F10A010295E0
:108B000000914033D9E76369002B7FF4E3AE0B2378
:108B1000019304F10A030093029504F11403CCE7D6
:108B2000022D3FF6D7AED4F81CB0DBF82430013369
:108B30007FF4D0AE294606A853F076FECBF8240089
:108B400049E70F21E369019103F10C0102950091BE
:108B50004433B2E7032D3FF6BDAED4F81CB0DBF8CA
:108B60002C3001337FF4B6AE294606A853F05CFEE4
:108B7000CBF82C002FE7032D3FF6ACAED4F81CB099
:108B8000DBF8283001337FF4A5AE294606A853F060
:108B90004BFECBF828001EE7022D3FF69BAED4F823
:108BA0001CB0DBF8103001337FF494AE294606A8E0
:108BB00053F03AFECBF810000DE7042D3FF68AAED5
:108BC000D4F81CB09BF80230002B7FF483AE012355
:108BD00029468BF8023006A853F026FECBF81C007D
:108BE000F9E6002B7FF430AE74E600BFD8C19218CE
:108BF0002DE9F0410E4617469846054628B121B1A9
:108C00001AB12C20A847044618B900242046BDE814
:108C1000F0812922002103305CF03EF8012323710A
:108C200004F11C03236240F2023323800A23002252
:108C3000A370044BC4E90467E560C4F818801A8087
:108C4000E4E700BFC8A5002008B56BF0BBF9022817
:108C50000DD1074B4FF0FF3118686DF096F830B129
:108C600040F29121034B044A04481DF05BFD08BD0E
:108C70002C230020506D0708096F0708876D07082F
:108C800008B56BF09FF902280BD1064B18686DF000
:108C9000B0F830B140F29921034B044A04481DF06A
:108CA00041FD08BD2C230020CA6D0708EF6E0708A0
:108CB000876D07082DE9F8430D4617460646D8B1DB
:108CC000D1B10024DFF83480315D7FB1DFF830802E
:108CD000DFF830906F1EBC42ACBF404648460134BE
:108CE00017F0AEFDAC4207D0315DF4E740460134E9
:108CF00017F0A6FDA542E7D1BDE8F883BB2209081D
:108D0000A1190908F26D0708F8B5044617480D4681
:108D1000174607F0FFFC164B186028B99821154B31
:108D2000154A16481DF0FEFCFFF78EFF53F095FE26
:108D3000134B144E002C08BF1C46134B1349002D37
:108D400008BF1D4612482B462246B1607060F46091
:108D500035613775FFF74CFF3060FFF791FF00F08A
:108D6000CDFABDE8F84000F02BB900BF486F070806
:108D70002C230020FA6D0708236F0708876D07086A
:108D8000A9C9050830230020ADC90508C9C90508CF
:108D9000B1C9050838B504460D46FFF755FF064B27
:108DA00021462A4653F8140CFFF7F4FC0446FFF75B
:108DB00067FF204638BD00BF4423002038B5044675
:108DC0000D46FFF741FF054B21462A46186853F030
:108DD00086FA0446FFF754FF204638BD30230020B2
:108DE000F8B50D460446002867D0FFF72DFF33483D
:108DF00017F026FD2178324817F022FD61783148BE
:108E000017F01EFDA178304817F01AFDE1782F48C1
:108E100017F016FD61682E4817F012FD21892D48C4
:108E200017F00EFDA1892C4817F00AFD61892B4827
:108E300017F006FD2A4817F003FD2178C9B9294823
:108E400017F0FEFC284817F0FBFC6189B9B92548EA
:108E500017F0F6FC254817F0F3FCA389ABB92448BA
:108E600017F0EEFC234817F0EBFCBDE8F840FFF7E5
:108E700007BF20692A46FFF71DFF1F48E0E760692A
:108E80002A46FFF717FF1C48E2E761681B4F1C4E9C
:108E90001C48322914BF3946314617F0D1FCA1894C
:108EA000A0692A46FFF706FF61681648322914BFF9
:108EB0003946314617F0C4FCD4E7F8BD126E0708F6
:108EC000156E0708296E07083F6E0708526E0708DF
:108ED000656E07087E6E07088F6E0708A56E070887
:108EE000BC6E0708E86E0708C96E0708D96E070848
:108EF000E76E070886C30708EB6E0708D76E0708FA
:108F0000149E07081486080810B5044650B18069FD
:108F100008B153F059FD044B2146BDE810401868D4
:108F200053F007BD10BD00BF3023002070B50646CA
:108F3000074B1C6914B92546284670BD2568802258
:108F4000304629685BF0CCFE0028F5D06468F1E774
:108F50004823002008B56BF035F802280DD1074BE7
:108F60004FF0FF3118686CF010FF30B14FF4CC7146
:108F7000034B044A04481DF0D5FB08BD68250020BA
:108F8000586F0708DC7007088B6F070808B56BF08F
:108F900019F802280BD1064B18686CF02AFF30B183
:108FA00040F29F11034B044A04481DF0BBFB08BD6F
:108FB00068250020D56F0708C37007088B6F070866
:108FC00037B5194807F0A6FB184B186028B9D1210E
:108FD000174B184A18481DF0A5FB4FF402733422B2
:108FE00000930A21154B164853F005FE044618B1AC
:108FF000D921144B0F4AEDE7134D2871134807F0A0
:109000004FFBA86018B9E021114B0A4AE2E721465C
:10901000104A114807F0F8FB18B9E4210F4B054A34
:10902000D8E703B030BD00BF4471070868250020B1
:10903000F96F0708F57007088B6F07086023002099
:10904000482300200D7007084C1C012010710708F0
:10905000227007082071070879910008347007080A
:1090600038B5124B04461D69FFF774FF85B90F48E8
:1090700053F0D6FD98B1234604F1340253F8041B93
:10908000934240F8041BF9D1FFF780FF002009E06C
:109090002B688022216818685BF022FE18B9FFF760
:1090A00075FF012038BD6D68E0E700BF4823002050
:1090B00010B50446FFF74EFF2046FFF737FF014685
:1090C00018B9FFF763FF012010BD034853F0D6FD28
:1090D000FFF75CFF0020F7E748230020436AF7B55D
:1090E000044663B19847054648B1A36A53B90322C1
:1090F0000221002027F0C6FC431C064608D10120AF
:1091000003B0F0BD204698470028F0D10020F7E7D3
:10911000284653F064FC431E9BB2B3F5806F0746AC
:10912000EDD2FFF717FF29460E4853F05AFC0028EE
:1091300002DAFFF72BFFE2E72023043401933A46DB
:10914000002330460749009427F00CFD0130F0D091
:109150002846FFF7D9FEFFF719FF30465CF017FFEE
:10916000D4E700BF56A600200168D0E90B320148C1
:1091700017F066BB4870070870B5174C52F05FFFD8
:10918000237933B1D4E902014FF0FF3300226CF0B0
:109190009FFDFFF7DFFE114B1E6946B9FFF7F6FE94
:1091A0002379002BEAD120686CF023FDE6E72379D0
:1091B00035683BB9D5E90B239A4203D00133766871
:1091C0002B63EAE72846FFF789FF10B12846FFF72F
:1091D000CBFF0023F3E700BF4C1C012048230020F5
:1091E00010B5FFF7B7FE034B1C79FFF7CFFE204603
:1091F00010BD00BF4C1C012008B5034BD3E9020190
:109200006CF00CFDC00F08BD4C1C012070B506466B
:10921000074B1C6914B92546284670BD2568802275
:10922000304629685BF05CFD0028F5D06468F1E702
:10923000AC25002008B56AF0C5FE02280DD1074B09
:109240004FF0FF3118686CF0A0FD30B14FF4C971D8
:10925000034B044A04481DF065FA08BD443200205F
:10926000547107082F7407089471070808B5074B55
:109270004FF0FF3118686CF088FD30B140F2A11159
:10928000034B044A04481DF04DFA08BD4432002047
:1092900054710708EF7307089471070808B56AF05E
:1092A00091FE02280BD1064B18686CF0A2FD30B17C
:1092B0004FF4CD71034B044A04481DF033FA08BD46
:1092C00044320020DC7107080C7407089471070809
:1092D00008B5064B18686CF08CFD30B140F2A71150
:1092E000034B044A04481DF01DFA08BD4432002017
:1092F000DC710708D27307089471070807B5134893
:1093000007F008FA124B186028B9B421114B124A21
:1093100012481DF007FA4FF4C8633221009320224F
:109320000F4B104853F067FC014618B1BC210E4B9F
:10933000094AEDE70D4A0E4807F066FA18B9C1214F
:109340000C4B054AE4E703B05DF804FBC87407085A
:10935000443200200D7207086074070894710708F2
:10936000042C0020AC2500200D700708A474070809
:10937000D99400082E72070838B5124B04461D69AF
:10938000FFF758FF85B90F4853F04AFC98B12346C0
:1093900004F1200253F8041B934240F8041BF9D156
:1093A000FFF77CFF002009E02B6880222168186805
:1093B0005BF096FC18B9FFF771FF012038BD6D68AE
:1093C000E0E700BFAC25002010B50446FFF74EFFD4
:1093D0002046FFF71BFF014618B9FFF779FF012070
:1093E00010BD034853F04AFCFFF772FF0020F7E777
:1093F000AC250020F8B5164B00241D69FFF71AFFB5
:109400004FF4C862002113485BF046FC114F35B998
:10941000FFF744FF0F48002C08BF2846F8BD312C49
:1094200013D807EB441C66462B6803F1200E324626
:1094300018685968083303C273451646F7D11CB142
:1094400007EB441343F804CC01346D68DFE700BF39
:10945000AC250020C425002038B5084B084D1C69F8
:10946000FFF704FF1CB9BDE83840FFF731BF2368A0
:109470002846196817F0E4F96468F3E7AC25002082
:1094800075AC0708014817F0DBB900BF4072070848
:1094900008B50846FFF7F6FFBDE80840014817F099
:1094A000CFB900BF40720708014817F0C9B900BF23
:1094B0006F720708014817F0C3B900BFA972070807
:1094C000014817F0BDB900BFD8720708014817F06E
:1094D000B7B900BF0C7307082DE9F04F002687B01D
:1094E000DFF838B2DFF838920596ADF8126052F026
:1094F000A6FD03220221002027F0C4FA431C0746E0
:1095000006D140F2E5117C4B7C4A7D481DF00AF9FA
:109510000023CBF800307B4B7B4C03F11005224637
:1095200018685968083303C2AB421446F7D141F2B8
:1095300033605CF017FD2022ABF804005946384632
:10954000059227F0CBFA013004D14FF4F8716F4B3C
:109550006A4ADAE70024DFF8CCA105ABCDE9009335
:109560004FF4806200235146384627F045FB00281F
:1095700040F3AB80514680B2FFF70CFC0446002854
:10958000EBD0634801F05EFE05460146614817F0E6
:1095900057F900212046FFF723FC284653F07DFCB5
:1095A000A378013B032B04D921464846FFF770FFFF
:1095B000D3E7FFF71FFF21460DF1120200F0DAF8A2
:1095C000064690B12246BDF8121053F0A9FA05469E
:1095D00000283CD12046FFF797FC2846FFF794FC73
:1095E000304653F0F1F90024B7E7204653F0FBF979
:1095F000054618B92046FFF757FFAEE7FFF706FE0E
:109600008046284653F0E0F9B8F1000F2BD0D8F887
:1096100010309BB9D8F814302BB3214648469847F0
:10962000054670B92046FFF76FFC2846FFF76CFC33
:10963000284653F0C9F92C462E468EE72046984717
:10964000EEE7D8F8183013B1214648469847284627
:1096500053F0C5F9B0F5806F804629460BD92046F6
:10966000FFF728FFB6E784212046FFF7A7FB054652
:109670000028ECD1D6E7504653F0B3F9002804DABD
:1096800029462046FFF71CFFA4E7214801F0DAFD38
:1096900001460390204817F0D3F800212846FFF731
:1096A0009FFB039B184653F0F8FB059B4246CDE910
:1096B000009351460023384627F054FA013089D1EF
:1096C00029462046FFF702FF84E701307FF445AFCB
:1096D00052F0C1FC054600287FF43FAF38465CF0ED
:1096E00056FC2046FFF710FC2846FFF70DFC3046DD
:1096F00053F06AF9FBE600BF3F730708527407088E
:1097000094710708F0480808982500205B73070843
:109710007825002074730708A47307088C2500209F
:109720006C25002056AA0020012808D0022814BF6A
:10973000022301232820034A00FB03207047002353
:10974000F8E700BF1875070838B50D4609682C23DF
:10975000074A0131044617F09BF8031E06DB2A680E
:109760009A4203D3D21AE0182A6038BD0020FCE7E1
:10977000BB2209082DE9F04F074691B00C4605922F
:10978000002118220AA85BF087FA002F4BD0002C8A
:1097900049D06389013B9BB27F2B44D8A378012B2E
:1097A00041D1204653F01FF9029000283BD0A74931
:1097B0005BF0F9FAE3698146002B39D05D6C1DB18D
:1097C0009D89003D18BF01253E46D6F800804046E1
:1097D00053F04CF9834668B1DDF83CA0BAF1000FB4
:1097E00029D10C2053F0E4F820B1C0E9008B0F9090
:1097F000C0F808A0F669002EE7D1B9F1000F40F0DB
:10980000EA80002D00F0DE80E3699889013080B2A3
:1098100053F0CEF8054658BB0F98002840F08D80D5
:10982000029853F0D1F80026304611B0BDE8F08F11
:109830001D46C9E79A46DAF804309B4507D15A46D7
:109840004146DAF800005BF0FDF90028D2D0DAF8E2
:109850000830002BEED10C20039353F0A9F8002818
:10986000C8D0039BC0E9008B8360CAF80800C1E739
:10987000E369B1469A89596C5BF0A7FAE3698021E4
:109880009B892846EE5453F023FC714C8046A34636
:10989000E169002958D028465BF06FFA0A90002849
:1098A00052D0282303FB09B31C6A0D930444A5423C
:1098B00048D8A844444528BF0024802120460A9463
:1098C00053F006FC0B90002846D101244FF000080D
:1098D0000220FFF729FF03900320FFF725FFDDF8A3
:1098E0003CA08146002840F0B7800027059BB8B215
:1098F00018809CB90746013080B253F059F8099797
:10990000064658B1B8F1000F40F0218180460E9C08
:10991000DFF840B1002C40F01E81F455BAF1000F81
:1099200040F03A810E98002840F03D81284653F0DF
:109930004BF8029853F048F876E7846853F044F8FF
:1099400020466AE70024B8E709F10109B9F1030FDD
:1099500004F128049CD1B8E7002CB6D0B94699F898
:109960000C302BB10D9B1B78022B09D0032B26D07A
:10997000D9F81C90B9F1000FF1D14C46C84611E05E
:10998000D9F804000028F3D080220A995BF0A8F9E6
:1099900080460028ECD148460AA953F07FF80128F8
:1099A0000446E5D10E9B002B92D1012C90D0384675
:1099B0000AA953F0A4F84FF00108044688E7D9F843
:1099C0000800DFE738460AA953F099F835460446FF
:1099D0004FF00108E6E78021029853F079FB044636
:1099E0000F9DB5B1D5F804904C452DD14A46296854
:1099F00002985BF027F938BBB846D8F8000053F05E
:109A000035F898F80C3053B9D8F81C80B8F1000F2D
:109A1000F3D10E9C0025B4FA84F4640956E781451D
:109A2000F2D16A68D8F8001028685BF00BF982461A
:109A30000028E9D140460AA953F030F8012804462D
:109A4000E2D15546D046ADE7AD68CAE7D8740708FD
:109A500018750708F5740708039B002B3FF445AF02
:109A60000120FFF761FE00283FF43FAFB8F1000F7F
:109A700015D14746DDF838B0BBF1000F12D1002FE9
:109A80003FF433AF013F31E7036A426913440433C3
:109A90003B444F6889681F440029F5D1EAE75146E5
:109AA0000027F9E78021DBF8000053F011FB039B4E
:109AB00080211A6A0490DBF80400079253F008FB37
:109AC000D9F82010079A049B0A44093206901744DB
:109AD000DBF8080080211F4453F0FAFA069BDBF8FC
:109AE0001CB03B441F18C7E7D9F80400013080B20E
:109AF00052F05EFF044650B9002009A9FFF724FE8A
:109B00008046D9F80890B9F1000FEDD1FFE6D9E908
:109B100000125BF05AF9D9F80420039BDDF824B059
:109B2000A3540BF10101224A2346404616F0B0FE31
:109B30000490204652F048FF049A002ADCDB93454B
:109B4000DAD308EB0200ABEB02020992D5E7D1466B
:109B500080460394D7E7A368DDF8249001936368F7
:109B60005A4600934046236809F1010116F090FE21
:109B700000280EDB81450CD38044A9EB000009903E
:109B8000E36923B1404609A9FFF7DEFD8046E46999
:109B9000C0E64FF00008F3E7DAF80840504652F00C
:109BA00013FFA246BAE6C46952F00EFF2046BAE699
:109BB000EA7407087F30C0B215289ABF024B1856C6
:109BC0004FF0FF30704700BF2577070808B5074BF7
:109BD0004FF0FF3118686CF0D8F830B140F2052131
:109BE000034B044A04481CF09DFD08BD4832002088
:109BF000E17507085C7707089075070808B5064BFC
:109C000018686CF0F6F830B140F20B21034B044AAF
:109C100004481CF087FD08BD483200202176070863
:109C20003B7707089075070837B5134806F072FDB3
:109C3000124B186030B94FF48671114B114A12481B
:109C40001CF070FD0024114D28190121183401F079
:109C500053FCB4F5F07FF7D15023082200930A217A
:109C60000B4B0C4852F0C7FF20B14FF48A710A4BDE
:109C7000044AE4E703B030BDAC770708483200205F
:109C8000527607087B77070890750708681C012043
:109C9000643200204C32002073760708F8B506467F
:109CA0000D46D9B16AF08EF90228044601D1FFF7BA
:109CB0008DFF002318200A4A00FB03F18F18515C26
:109CC000B14204D1BD60022C05D00020F8BD0133A3
:109CD000142BF1D1F7E7FFF791FFF6E70120F5E745
:109CE0005C1C01202DE9F84306468078FFF762FFEF
:109CF0000546FFF76BFF6A1C07D1B178244816F0C0
:109D00009FFDBDE8F843FFF779BF1827214C304687
:109D100007FB0548D8F804309847D8F808300BB14D
:109D20003046984707FB05471B4B3F69D3F8108027
:109D3000B8F1000F0DD11820684323181B691BB11F
:109D40000C30204453F0D7F8182303FB0544276157
:109D5000D7E7D8F80090B37899F800209A4214D148
:109D6000D9F804308BB13046984770B999F8012082
:109D700027FA02F3DB0708D51823012103FB05436B
:109D800091401A6922EA01021A61D8F80480CFE7EB
:109D90000F7707085C1C01204C3200202DE9F047AA
:109DA000002407460E462546DFF84480DFF844903D
:109DB000DFF844A0A64204D8BDE8F0470B4816F0EF
:109DC0003FBD731EA342395D06D1504616F038FDE3
:109DD000132D06D1002505E0122D05D8484616F0B2
:109DE0002FFD01350134E5E74046EFE7149E0708F3
:109DF000CD770708C4770708BC77070813460A46DB
:109E00000168014816F01CBDD677070838B50C4626
:109E100015460168044816F013FD29462046BDE8A2
:109E20003840FFF7BBBF00BFF07707082DE9F341CB
:109E30008846074620B90024204602B0BDE8F081DC
:109E4000524E3389013B042B04D8DFE803F03F3F37
:109E5000717B7400002433895BBA3B8033895A1EBE
:109E6000012A71D84FF000083369BD1C0193CDF869
:109E700000802846F368464AA11E16F009FD002816
:109E8000D9DBF36A0130B3F5007F05440DD09BB2F6
:109E9000E91BCDE9008328463E4B3F4A611A16F084
:109EA000F7FC0028C7DB01300544336B012BC3D01E
:109EB0009BB201930023E91B00932846374B364A97
:109EC000611A16F0E5FC0028B6DAB4E74FF48071A9
:109ED000F06853F0FDF84FF480710446306953F098
:109EE000F7F8F36A0444B3F5007F1FD00B212C4A26
:109EF0002C4816F0CDFC0B212A4853F0E9F800F16C
:109F00000905336B012B0AD00B21254A254816F091
:109F1000BFFC0B21234853F0DBF80935054404341A
:109F20002C4408F11008A04585D394E70025E8E704
:109F3000B48A0434F5E74FF48071306953F0C8F8FF
:109F4000441DEEE7042486E7032B08D1B389381DAE
:109F50005BBA7B80B28A31695AF037FF6CE7042B19
:109F600003D1B3895BBA7B8066E7052B7FF463AFCF
:109F7000B3895BBA7B803369002B3FF45DAF0A4A3B
:109F8000211F381D16F084FC9DE700BFB43200206D
:109F9000F6770708FD77070805780708268B080875
:109FA0005F92080856AE00201486080870B5144663
:109FB0000D460421074A049E1181908119462046CE
:109FC000FFF734FF3346024621462846BDE870407D
:109FD00052F0DEBDB43200202DE9F84304460028DB
:109FE00047D0074637F8022B354D00EB010852BA2F
:109FF000474593B22A813CD2033B032B39D8DFE893
:10A0000003F0020E121A438804345BBAA045AB81F8
:10A010002FD904392C61A9820020BDE8F883438838
:10A020005BBAAB81F8E7438804345BBAA045AB81E7
:10A030001FD92C61F0E70023EF602B82BC42EBD8E4
:10A04000B845E9D94FF48071384653F041F82B8A6E
:10A050000B210133034401303E1830462B8253F06C
:10A0600037F82B8AB44203F10103034481462B8263
:10A0700001D90120D1E7B045FBD9B9F10A0FF8D8D1
:10A08000384610495AF08FFE60B930465AF0D0FD7C
:10A0900040F2C443E86208389842EAD809F101075F
:10A0A0003744CBE7384608495AF07DFE0028E0D116
:10A0B00030465AF0BDFD431E2863FE2BEDE700BF7E
:10A0C000B4320020FD770708268B0808082820D81E
:10A0D000DFE800F0050A0C0E101316191C00102101
:10A0E0000C4B98696BF09ABD2021F9E74021F7E706
:10A0F0008021F5E74FF48071F2E74FF40071EFE74C
:10A100004FF48061ECE74FF40061E9E74FF48051D0
:10A11000E6E77047B432002000232DE9F04F89B004
:10A120008DF81F3052F030FDAF4CB04D4FF0FF3383
:10A13000AD4928680DF11F026BF009FF06460028A3
:10A14000F4D16FF07F41A0696BF0A1FD4FF4047072
:10A1500052F0A1FE054630B940F2FF41A44BA54A9A
:10A16000A5481CF0DFFAB4F80890B9F1010F0BD044
:10A17000B9F1020F00F0B280284652F08EFE0421A1
:10A18000A0696BF04BFDD0E74946A0696BF046FD36
:10A1900000F046FA421C074603D1642052F0F2FC5C
:10A1A000EAE7A188206852F007FD804630B93846BA
:10A1B00052F0ECFC914816F043FBDDE74FF40071E0
:10A1C0002846FFF733FE434602462946384652F0FA
:10A1D000DFFC4FF4007B642052F0D4FC0421A06922
:10A1E00052F0B9FC80B10523238100235946A38195
:10A1F000834B23612846FFF719FE43460246294652
:10A20000384652F0C5FC50E02946434638460BF12B
:10A21000100252F0C6FC011E07DC7A4B06F1640AFC
:10A220009A4500F2A2805646D5E7284689B2FFF744
:10A23000D3FE82460028F0D12389062B20D1E36A81
:10A24000B3F5007F13D0284652F027FEE06A1030A5
:10A2500052F021FE054640B90421A0696BF0DEFCF6
:10A26000694816F0EDFA002586E7B4F82CB05B4695
:10A270002A4639460020CDF80080FFF797FED2E746
:10A28000032B19D1636AB4F80C901BB12046A28A43
:10A29000216998475B462A4639464846CDF80080F2
:10A2A000FFF784FEA38A5B45BDD2404652F0A1FC75
:10A2B000384652F06BFC5FE7052BB4D1A36A1BB1A3
:10A2C00020462269A1899847A089FFF7FFFE5B46D7
:10A2D0002A4639464846CDF80080CEE74946A0696F
:10A2E0006BF09CFC00F09CF9431C07463FF455AF13
:10A2F000A188206852F060FC804600283FF457AFE8
:10A300004FF400712846FFF791FDB3464FF40079F2
:10A31000024643462946384652F03AFCE369D4F8EF
:10A3200020A003934FEA5A230133CDE9046364204C
:10A3300052F028FC0421A06952F00DFC38B105232D
:10A3400023810023A3812E4B4946236152E72946EE
:10A350004346384609F1100252F023FC011E09DC85
:10A36000284B0BF1640B9B45E1D90821A0696BF0E8
:10A3700055FC9AE7284689B2FFF72EFE0028EFD158
:10A380002389062B42D1E36AB3F5007F11D028461A
:10A3900052F083FDE06A103052F07DFD0546002842
:10A3A0003FF45AAFE36A1FFA83F9BAFBF9F30133BA
:10A3B00005934B462A4639460020CDF80080FFF72A
:10A3C000F5FD03232381049B4946A381039B284673
:10A3D0002361A682FFF72AFD4346024629463846F6
:10A3E00052F0D6FBA3E700BFB4320020E8320020D1
:10A3F0000C780708F87807081178070852780708DA
:10A4000068780708DF9304007E780708042B1BD1C7
:10A41000BAF1000F04D1DDE9043293423FF445AFB5
:10A42000A38913B1039A4A440392D14598BF4E467B
:10A4300003F101039BB288BF1FFA8AF64FF0000BAD
:10A440000493AAEB060ABCE7052BBAD1A36A1BB199
:10A450002269A18902489847A089FFF737FE24E7BF
:10A46000B432002008B5342101200C4A06F072FAFB
:10A470000B4B186030B940F295110A4B0A4A0B4851
:10A480001CF050F900210A4A0A4806F0BDF920B92B
:10A490004FF4CC71084B044AF1E708BD5C7907081A
:10A4A000E83200209F780708067907081178070826
:10A4B0007479070819A10008B57807082DE9F0415B
:10A4C000069F0E4690461D46044610B90120BDE881
:10A4D000F0810F4806F0E4F8A0610028F6D00D4B9B
:10A4E0004FF40072002E08BF1E460B4B0020002DBB
:10A4F00008BF1D46094B2660002F08BF1F460123D9
:10A50000A4F80480C4E90B236562A762DFE700BFFB
:10A510004C790708C77807080D9E0008FD9D0008C4
:10A5200070B50E4614460546C0B1B9B130460C4967
:10A530005AF039FC40B9072C06D940F2CC439C4272
:10A540000CD8EC62002070BD304606495AF02BFC56
:10A5500020B9631EFE2B01D82C63F3E70120F2E73C
:10A56000FD770708268B080810B50C46014620B178
:10A570001AB113B1601E012804D9094816F060F918
:10A58000012010BD0748C1E9032300684FF0FF33E5
:10A5900000220C816BF08FFC003818BF0120F0E71F
:10A5A000CA780708E832002010B5044620B90948E7
:10A5B00016F046F9012010BD6FF07F4180696BF005
:10A5C00066FB0028F6DB0421A0696BF027FBC00FB7
:10A5D000F1E700BFE078070808B501200D495BF0FE
:10A5E00057FD30B128220C490C485AF08BFB0B4820
:10A5F00008BD2823094A074926F01CFA074B28B949
:10A600001846272204495AF07DFB0346002283F8AE
:10A610002720ECE789AE0020C778070861AE00204C
:10A6200003220020014926F02DBA00BF02000100DC
:10A63000024B187808B100221A707047C1AE002092
:10A640002DE9F04F4FF4007099B052F0B1F9054682
:10A6500020B90025284619B0BDE8F08F2D4B1868A9
:10A660006BF033FB041EF4DB0CF0FAFD00212A4AE8
:10A670000CF008FE294AD18BD36801B10139D08D85
:10A6800092F816C092F815E092F8148000B10138E3
:10A69000D68F92F8269092F825A092F824B006B1B1
:10A6A000013E5768179717681697C4F3C017159798
:10A6B000C4F380171497C4F340171397C4F300171B
:10A6C0001297C4F3C0071197C4F380071097C4F31F
:10A6D00040070F9704F00107CDE90D4794680C94EB
:10A6E00092F834400B9492F835400A9492F8362050
:10A6F000CDE90409CDE90862CDE9001C28464FF4F4
:10A700000071074ACDE906ABCDE902E816F0C0F8C2
:10A71000A0E700BF2C360020C03300208C3300207F
:10A720009879070838B5084D0C4629461DF00CF9F4
:10A730002946206000201DF007F9294660600020AE
:10A740001DF002F9A06038BDFD9C0708012208B584
:10A75000044B1A70FEF744FD18B1BDE80840FEF73F
:10A760004BBD08BDC1AE002010B504460CF078FD0D
:10A77000074A002152F8143CC01A0CF083FD054B27
:10A78000214618686BF04AFABDE81040FFF7DEBFBB
:10A79000B03300202C3600200A4B10B51B7873B163
:10A7A000094C0A488021606152F092FC6081FFF7F9
:10A7B00047FF4FF40071A06152F08AFCA08102486B
:10A7C00010BD00BFC1AE0020401E0120A4350020F6
:10A7D00008B5074B4FF0FF3118686BF0D6FA30B16F
:10A7E00040F22A61034B044A04481BF09BFF08BD5A
:10A7F000283600200D7B0708E47E0708417B070808
:10A8000008B5064B18686BF0F4FA30B140F22F61CE
:10A81000034B044A04481BF085FF08BD283600207E
:10A820008A7B0708CF7E0708417B070870B532484E
:10A8300005F070FF314B186030B940F2DF11304B3A
:10A84000304A31481BF06EFF304805F029FF304B8D
:10A85000186020B94FF4F1712E4B2A4AF1E700211C
:10A860002D4A2E4805F0D0FF20B940F2E5112C4BBF
:10A87000244AE6E72B48FEF77FFD054620B14FF45A
:10A88000F371294B1F4ADCE7284C294920465AF02E
:10A8900094FA4523274904F12A0023855AF08DFABA
:10A8A000254904F595705AF088FA214904F5D570C8
:10A8B0005AF083FA41F23360A4F8D2015BF052FB04
:10A8C0001E4E04F5D571308106F11002284626F09F
:10A8D00095F81B4904F5EA705AF06FFA0A233046DE
:10A8E000C4F85432FEF7BCFB20B140F20A21154BEC
:10A8F000044AA6E770BD00BF607F07082836002025
:10A90000AF7B07080A7F0708417B0708707F0708AD
:10A910002C360020C47B0708807F0708C5A90008E3
:10A92000D97B0708941E0120EE7B0708D033002056
:10A93000327C07083E7C0708517C0708601E012016
:10A940005A7C07086A7C0708002238B5094D0A4B73
:10A950002868C3E900226BF0B8F9041E08DB14F084
:10A96000010403D1012128686BF058F9204638BD55
:10A970000124FBE72C3600208C33002038B5084D2D
:10A9800028686BF0A2F9041E08DB14F0100405D14E
:10A99000102128686BF042F9204638BD0124FBE7FE
:10A9A0002C360020064B10B5044618686BF08DF964
:10A9B0000028AABFE040002000F0010010BD00BF49
:10A9C0002C360020F7B55A4C204600F0BFFEE36855
:10A9D00033B940F23551574B574A58481BF0A2FE45
:10A9E0000020574952F007FBB8B9564E564F012187
:10A9F00030686BF04CF94FF0FF33022201213068D0
:10AA00006BF066F904460CF02BFC002C386109DA77
:10AA10004FF00040FFF7A8FEE9E740F236514B4BFC
:10AA2000454ADAE74A4930686BF031F9002001F015
:10AA30000DF80420FFF7B6FF18B1FFF787FE1020CE
:10AA4000E8E7FFF783FE434B434C00932146434B1B
:10AA5000228D4348FFF732FD08B12020DAE7FFF7E7
:10AA600075FE40F2CC423F493D48FFF759FD08B121
:10AA70008020CFE708223C493948FFF751FD0028E4
:10AA8000F6D10121394B364804F12A02FFF76CFD5B
:10AA90000028EDD1324852F06BF80028E8D1304858
:10AAA00052F062F80028D8D10520FFF77BFF00287C
:10AAB000D3D10420FFF776FF0028BED10220FFF794
:10AAC00053FE4FF47A706BF094F80021084652F070
:10AAD000A5FA274D0446286040B14020FFF744FE08
:10AAE000294640F2EA3052F0F8F880E70420FFF7F8
:10AAF0003BFE4FF47A706BF07CF8204600F046FE87
:10AB0000286030B18020FFF72FFE294640F2EB305D
:10AB1000E9E70820FFF728FE41F288306BF069F87A
:10AB20000420FFF73FFF00283FF461AF85E700BF37
:10AB300040330020A17C0708F97E0708417B070805
:10AB4000383300202C3600208C330020C37C0708CB
:10AB5000FEFFFF00ABCC0508D033002075AB00082A
:10AB600004330020FD770708268B0808207D07089E
:10AB7000F83200202DE9F041054604200F469046AA
:10AB8000FFF710FF20B12846BDE8F041FFF70CBDEC
:10AB9000A989EB6A274C4E1E5E43636801336360EC
:10ABA000254B1A68B24204D1236801332360BDE803
:10ABB000F08101291E60214B18BFA168A88A1A885C
:10ABC0001EBF09180132A1601D4918BF1A801A88DA
:10ABD000D1F8541208BFA060914203D100221A801C
:10ABE000FFF7B4FD3A4643463146002000F08AFEA6
:10ABF000144F0546386058B12020FFF7B5FD39469F
:10AC000040F2E9307E60A7F8088052F066F8CEE79F
:10AC10000CF026FB236929460B4AC01A0CF032FBC4
:10AC20000CF01EFB23692946BDE8F041074AC01A13
:10AC30000CF028BB8C3300203C1E01206C2301202B
:10AC4000D0330020EC320020A0330020B0330020AD
:10AC500038B50D46044678B1FFF7BAFD074B2146DB
:10AC6000282218465AF04EF80024058580F827401F
:10AC7000FFF7C6FD204638BD0120FCE7D033002099
:10AC800010B5044670B1FFF7A3FD214600248022D1
:10AC900005485AF037F8054B83F8A941FFF7B0FD96
:10ACA000204610BD0120FCE7FA340020D0330020FC
:10ACB00038B50D46044688B14B1E7F2B0ED8FFF7E2
:10ACC00087FD2A4620462C44002505495AF01AF8EB
:10ACD00004F8015CFFF794FD284638BD0120FCE72D
:10ACE000FA34002010B5044678B1FFF771FD214613
:10ACF00000244FF4807206485AF004F8054B83F89C
:10AD00002941FFF77DFD204610BD0120FCE700BF73
:10AD1000FA330020D033002038B50D46044678B110
:10AD200071B1FFF755FD2A4620462C440025054900
:10AD300059F0E8FF04F8015CFFF762FD284638BDD2
:10AD40000120FCE7FA330020F8B50C46054650B365
:10AD50000027FFF73DFD154E29462822144859F0DB
:10AD6000D1FF204686F8D171A6F8D2415BF0FAF8FF
:10AD7000104D06F5D571288105F11002384625F0F1
:10AD80003DFE01280DD10C48FEF792F9044618B19A
:10AD9000FFF736FD2046F8BD2846FEF761F9044668
:10ADA000F6E7FFF72DFD0124F4E700BFD0330020C4
:10ADB0007A350020601E0120267D070810B5044664
:10ADC00070B1FFF705FD214600248022054859F0A7
:10ADD00099FF054B83F85342FFF712FD204610BD43
:10ADE0000120FCE7A4350020D033002038B50D4603
:10ADF000044688B14B1E7F2B0ED8FFF7E9FC2A468C
:10AE000020462C440025054959F07CFF04F8015CDC
:10AE1000FFF7F6FC284638BD0120FCE7A4350020EA
:10AE200010B5044640B1FFF7D3FC044BC3F85442BD
:10AE3000FFF7E6FC002010BD0120FCE7D033002026
:10AE40002DE9F34186210646FDF7B8FF044600B31D
:10AE5000B36913B9B378022B1BD0AA4DEB6813B9B1
:10AE6000FFF7BAFBE8604523A37032236360B37831
:10AE7000012B40F0A080B3690BB1B3896BB9FFF728
:10AE8000DFFBA061A06918B14FF4007152F020F906
:10AE9000A081204602B0BDE8F0814FF4007051F06F
:10AEA00087FDA0610028EDD0304651F0BEFD074679
:10AEB00018B9A06951F088FDE4E7934D2946FFF7E2
:10AEC00031FC2D682DB922463146904851F0EEFEF6
:10AED00008E029468E4859F066FF28B98D49A069D7
:10AEE00059F06BFF3846E5E729468B4859F05BFF80
:10AEF0008046B0B9894E8A4DFFF76AFC3146272259
:10AF0000284659F0FFFE368D85F82780FFF778FC3C
:10AF100000962B464FF40071824AA06915F0B8FCE8
:10AF2000E0E72946804859F03EFF38B94FF40071F8
:10AF3000A069FFF7F1FE0028C5D1D3E729467B4879
:10AF400059F031FF20B98021A069FFF7B1FEF2E787
:10AF50002946774859F027FF804668B9704DFFF7BA
:10AF600037FC27222846734959F0CCFE6B4B85F8F5
:10AF70002780B3F8D261C9E729466F4859F013FF1B
:10AF800020B98021A069FFF731FFD4E729466B483B
:10AF900059F009FF002896D1FFF71AFC5F4BD3F850
:10AFA0005452FFF72DFC4FF40071654AA069ABB213
:10AFB00015F06EFC96E7022B7FF464AF4FF400703F
:10AFC00051F0F6FCA06100283FF45CAF304651F030
:10AFD0002CFD074600283FF46CAF5A4D2946FFF779
:10AFE000A1FBD5F80080B8F1000F3FF46CAF4146EB
:10AFF000554859F0D8FE18B9FFF7A6FC05464BE0B6
:10B000004146524859F0CFFE10B9FFF7B7FCF5E7BB
:10B0100041464F4859F0C7FE28B900F0BBFA3B48FB
:10B020002246314652E741463B4859F0BCFE80B9C2
:10B03000D5F80480B8F1000F3FF445AFA8680028A8
:10B040003FF441AF59F0F4FD81B24046FFF700FEF6
:10B05000D4E74146344859F0A6FE30B96868002864
:10B060003FF431AFFFF73EFEC8E741462F4859F0A5
:10B070009AFEA8B96B68002B3FF425AFDFF8DC809F
:10B080004046FEF7A1F96868FFF7FAFD054631482A
:10B09000C0F80080FEF770F9002DC0D12E48BFE740
:10B0A0004146234859F07FFE80B9D5F80480B8F1B5
:10B0B000000F3FF408AFA86800283FF404AF59F030
:10B0C000B7FD81B24046FFF73FFE97E741461A4879
:10B0D00059F069FE30B9686800283FF4F4AEFFF714
:10B0E0006DFE8BE74146154859F05DFE002896D16C
:10B0F000686800283FF4E7AE59F09AFD80B2FFF788
:10B100008FFE7BE78C33002080330020587F0708B8
:10B11000317D0708367D07089E7E0708D033002062
:10B1200099AE0020917E07084D7C0708B27E070883
:10B13000977E07087A350020AB7E0708B67E0708A1
:10B14000F008090874330020F1A80808C44609086B
:10B15000C77E0708941E0120507F0708FA3400209C
:10B160002DE9F84F0F460646014600234FF001092E
:10B170004FF0FF0831F8022B62BB5A1C082A22D17B
:10B18000D01A484501D981469846531C072BF1D95E
:10B190003C4600254FF03A0A18494FEA490BA845AA
:10B1A0001AD1B8F1000F03D1204600F801AB0446D4
:10B1B0004D44072D04F801AB5E44F0D90023237001
:10B1C000E01BBDE8F88F31F8024B501C002CD7D1A2
:10B1D0000246D3E71A46D8E73288204652BA92B2DE
:10B1E00015F042FB0135082D0444E7D0A84503497A
:10B1F00006F1020604F801ABEED1D9E71E1C0908DE
:10B200007FB5002380290E461546CDE90033CDE9F0
:10B21000023312D80A460146684651F07DFD2946A0
:10B220006846FFF79DFF2C1832462046044915F06A
:10B230001BFB2044401B04B070BD1846FBE700BF59
:10B24000A47F070838B5054660B1282054F036FBC6
:10B25000044638B101462846FFF782FF18B9204658
:10B2600051F01BFE014C204638BD00BFC7780708CF
:10B270000146014851F004BE3482070801460148E6
:10B2800051F0FEBDA48107080146014851F0F8BD08
:10B290006C81070830B5044685B0182054F00EFBC9
:10B2A000054680B123688BB92079FFF7E7FF034695
:10B2B0000F4A0292A2790192627900920D4A1821F6
:10B2C000284615F0E5FA284605B030BD012B0BD114
:10B2D0002079FFF7D3FF084A03460292A279019230
:10B2E00062790092054AEAE751F0D7FDEBE700BF2B
:10B2F000B67F0708A87F0708CB7F0708BD7F070830
:10B300002DE9F74F0025AB46554FDFF858910190D6
:10B310001FFA85F857F82830002B00F085800026AA
:10B3200011E02422836802FB01335BB1D9690B78F9
:10B33000072B07D191F801C08B784FEA1C1E53B13F
:10B34000012B3FD0013657F82800B1B2C3688B42B9
:10B35000E7D80135DCE7BEF1010FF3D80CF00F0C94
:10B360000CF1FF300728EDD83E4803600B790371DC
:10B37000CB7880F807E043713B4B13F80C308371B6
:10B380004FF0010A0024E1B28A45DBD9019B002B72
:10B390005FD1BBF1000F40D0484651F092FD00282C
:10B3A00040D059468C4649690029FBD1D9F8001094
:10B3B000CCF81400012951D199F80610013189F80F
:10B3C00006104BE0BEF1050FBCD891F804C025482B
:10B3D000036080F804C091F803C080F805C0497884
:10B3E0002029817115D0302904D0402913D050294B
:10B3F000C6D103231D4903EB43030B4493F802A07A
:10B4000059780AF1010AAAEB010A81715FFA8AFAF6
:10B41000B8E70023EEE70223ECE7124851F051FDB4
:10B42000834628B94FF0000B584603B0BDE8F08FB3
:10B43000D9F80010012904D199F80610013189F8D2
:10B4400006100134E1B25145BFF47CAF019B002BE3
:10B45000A2D04846019B984700289AD1013492E730
:10B46000CC1F012030360020608107085481070876
:10B4700030B5044689B0182054F020FA054690B142
:10B48000E37918210693A379084A05936379049315
:10B4900023790393E3780293A3780193637800936D
:10B4A000237815F0F5F9284609B030BDD27F07089A
:10B4B0000138C0B203289ABF024B53F82000002085
:10B4C000704700BF1080070830B5044685B02020C3
:10B4D00054F0F4F9054650B1237B20210293E37A1E
:10B4E000044A0193A37A0093238915F0D1F92846E1
:10B4F00005B030BDFA7F070810B5044650B10023EF
:10B50000C0E90131044805F0CBF82060B0FA80F0C2
:10B51000400910BD0120FCE74481070808B5034835
:10B520006AF0B6FFBDE8084059F01ABB249307083B
:10B5300001486AF0ADBF00BF2493070807B5082093
:10B5400051F058FE0222064B6846CDE9002351F027
:10B55000DBFC082003B05DF804EB51F056BE00BFE1
:10B5600000D430104FF000639B6A03F17842B2F5CB
:10B57000C04F03D21968064A914203D000230370DA
:10B5800083607047012202709A689B694260F7E706
:10B5900007B0CD5E024B034A1A6054F099B800BF61
:10B5A0000000002002020FF037B5244B04461A7841
:10B5B0001AB102221A7003B030BDCDE90022002872
:10B5C000F9D001251D706AF0DFFA1D4B186020F0DC
:10B5D0003BF81C4B5A6E62619B6E1B4AA3614FF491
:10B5E00080439366194B5968E16119499960196E56
:10B5F0002160596E6160D3F87011A160196CE1602F
:10B60000596C21611349086C1864496C596455667A
:10B610001B6E98040DD5104AD368D907FCD4684630
:10B6200001A951F0BBFC009A0C4B1A66019A5A66AC
:10B63000C1E70B4AD368DB07FCD4F0E7C3AE0020B8
:10B6400060360020008000500090005000800044D0
:10B6500055CEAC0000C000540000044000900044EF
:10B660000000045070B51C4D04462E78012E02D007
:10B6700001232B7070BD0028FCD051F0F6FC013086
:10B680000BD051F0F2FC40F20113984205D0134B5D
:10B69000134A5E66D368D907FCD42268114B1A6638
:10B6A00062685A66A268C3F87021E2681A64226967
:10B6B0005A64E269D20744BF00229A6062690A4B69
:10B6C0005A66A2699A661FF0C7FF084B18686AF0AD
:10B6D00056FA0023CDE700BFC3AE00200090004023
:10B6E00000000440008000440080005060360020CC
:10B6F00038B54FF00064A36A03F17842B2F5C04F49
:10B700001AD21A680E4B9A4216D10E4D2B7813F0AE
:10B71000FD0F02D00024204638BD0B48FFF744FF40
:10B72000A36ADB69984704460748FFF79BFF002C94
:10B73000F1D101232B70EDE74FF48174EBE700BFEB
:10B7400007B0CD5EC2AE00204036002038B54FF0C5
:10B750000065AB6A044603F17842B2F5C04F12D2DD
:10B760001B6B03F17843B3F5C04F0CD20648FFF7CB
:10B770001BFFAB6A20461B6B5B689847BDE83840EF
:10B780000148FFF76FBF38BD6436002013B54FF096
:10B790000064A36A019003F17842B2F5C04F15D25C
:10B7A0001B6B03F17843B3F5C04F0FD20948FFF785
:10B7B000FBFEA36A01211B6B01A89B699847044605
:10B7C0000448FFF74FFF204602B010BD4FF48174CC
:10B7D000F9E700BF64360020F8B54FF00067BB6A98
:10B7E000164603F17842B2F5C04F04460D4611D219
:10B7F0001B6B7BB10948FFF7D7FEBB6A20461B6B6A
:10B80000324629465B6A984704460448FFF72AFFF8
:10B810002046F8BD4FF40174FAE700BF64360020FB
:10B8200070B54FF00066B36A044603F17842B2F592
:10B83000C04F0D4614D21B6B03F17843B3F5C04FD4
:10B840000ED20948FFF7B0FEB36A20461B6B2946AB
:10B850009B6A984704460448FFF704FF204670BDE2
:10B860004FF40174FAE700BF64360020F0B58FB0E2
:10B87000044601A80E461546FFF768FF9DF80C30F8
:10B88000012B1AD12946204651F0A4FB98B940F269
:10B89000024420460FB0F0BDE25801322AD10433F1
:10B8A0009D42F9D82A463146204600F01BF900286F
:10B8B000EDD00024EDE70023F2E74FF00067BB6A0C
:10B8C00003F17842B2F5C04F17D21B6B03F17843F6
:10B8D000B3F5C04F11D20A48FFF766FEBB6A2A468D
:10B8E0001B6B314620469B6B984704460448FFF784
:10B8F000B9FECEE740F20344CBE740F20114C8E7BB
:10B90000643600202DE9F04190B0044603A81E469D
:10B910000D461746FFF71AFF9DF81430012B1BD177
:10B92000069BA34239D9204601A951F064FB044685
:10B9300070B9029BAA199A4232D8AB4230D3B342B3
:10B940002ED30198324639462844FFF78FFF04462C
:10B95000204610B0BDE8F0814FF00068D8F82830DC
:10B9600003F17842B2F5C04F1DD21B6B03F178434F
:10B97000B3F5C04F17D20D48FFF716FED8F82830A0
:10B980003A461B6B2946D3F8108020463346C04701
:10B9900004460648FFF766FEDAE740F20144D7E7BF
:10B9A00040F20244D4E74FF48174D1E764360020BA
:10B9B00070B58EB0044601A80D46FFF7C7FE9DF88E
:10B9C0000C30012B1ED144EA0503C3F30C03002BFA
:10B9D00034D12946204651F0FDFA20B940F2024404
:10B9E00020460EB070BD2544204604F5005400F0FA
:10B9F0006BF8AC4202D00028F6D1EFE70028EDD07A
:10BA00000024EDE74FF00066B36A03F17842B2F527
:10BA1000C04F16D21B6B03F17843B3F5C04F10D261
:10BA20000948FFF7C1FDB36A29461B6B2046DB6B53
:10BA3000984704460448FFF715FED1E740F2044456
:10BA4000CEE740F20114CBE76436002030B591B068
:10BA5000044603A8FFF77AFE9DF81430012B10D19D
:10BA6000069BA34228D9204601A951F0C4FA0446F6
:10BA700020B9DDE90101FFF79BFF0446204611B024
:10BA800030BD4FF00065AB6A03F17842B2F5C04FAC
:10BA900015D21B6B03F17843B3F5C04F0FD20948A1
:10BAA000FFF782FDAB6A20461B6B5B699847044633
:10BAB0000448FFF7D7FDE1E740F20144DEE74FF429
:10BAC0008174DBE7643600204FF4803208B5044B04
:10BAD0009A666AF0E5FDB0FA80F0400908BD00BF43
