:020000040800F2
:106000000814002075110108ABD0050893C00508DD
:10601000ABD00508ABD00508ABD00508ABD0050860
:10602000ABD00508ABD00508ABD00508ABD0050850
:10603000ABD0050894D9070885720108ABD00508D4
:10604000ABD00508ABD00508ABD00508ABD0050830
:10605000ABD00508ABD00508ABD00508ABD0050820
:10606000ABD00508ABD00508ABD005081DDA000899
:1060700047C10508ABD00508ABD00508ABD0050873
:10608000ABD00508ABD00508ABD00508ABD00508F0
:10609000ABD00508ABD005080D230108ABD005082F
:1060A000ABD00508ABD00508191F0108F91E01087F
:1060B000ABD00508ABD0050875D002086DDB02082F
:1060C000FB540608F7540608E5D2020811550608E5
:1060D000FF5406083DDB020803550608ADDB020845
:1060E00099DC0208ABD00508ABD00508ABD0050899
:1060F000ABD00508ABD00508ABD00508ABD0050880
:10610000ABD00508ABD00508ABD00508ABD005086F
:10611000ABD00508ABD00508ABD00508ABD005085F
:10612000ABD00508ABD00508ABD00508ABD005084F
:10613000ABD00508ABD00508ABD00508ABD005083F
:10614000ABD00508ABD00508ABD00508657D0108CC
:10615000ABD00508ABD005084F660708C1B30208ED
:10616000ABD00508ABD00508EB540608F15406087F
:0C617000ABD00508ABD00508ABD005088B
:10617C00F0B5114A114C124E00F00105E3695F07AE
:10618C0013D40DB9334213D103EA00078F4207D160
:10619C000B4A1A40002A0CBF00206FF00100F0BD22
:1061AC00013AEBD16FF00200F9E74FF0FF30F6E760
:1061BC006FF00100F3E700BF8096980000000350D9
:1061CC00020001000B4B70B5D96911F480310DD16F
:1061DC0001244FF48072084E084DF46020462C6464
:1061EC001A61FFF7C5FF3464EC6070BD6FF00100FD
:1061FC00FBE700BF000003500010035000200350C9
:10620C00C0F30C0370B5054623B140F21A211148B6
:10621C0000F0A2F84FF480320F4B104C9A66E669EE
:10622C0041F6713316400122E3630D4B0021DA6015
:10623C000223656121202361FFF79AFF10B9212009
:10624C00FFF796FF0122074BDA600EB10023E363E0
:10625C0070BD00BF30DD07080090005000000350F7
:10626C00001003500020035070B5134C6061E369BB
:10627C005B071ED40E4656F8043B8D18A361AE4244
:10628C000BD10423002121202361FFF771FF58B9A2
:10629C00BDE870402120FFF76BBF08210846FFF7CF
:1062AC0067FF10B10423236170BD56F8043BA36152
:1062BC00E5E74FF0FF30F7E7000003502DE9F84316
:1062CC00154682070F46064604D040F266211E484A
:1062DC0000F042F8AB0704D04FF41A711A4800F0E2
:1062EC003BF84FF48032194BDFF868909A6603F54F
:1062FC001C33DA6902F4803841F67132DA63012218
:10630C0003F58053DA6065B928460122104BDA6038
:10631C00B8F1000F03D00022A3F50053DA63BDE8F7
:10632C00F88306F5005404EA0904A41BAC4228BF08
:10633C002C46394622463046FFF796FF0028E4D11A
:10634C00264427442D1BDEE730DD07080090005063
:10635C000020035000E0FFFF5FF800F099D7000821
:106370002DE9F04100231546C2E900014FF47A727D
:1063800080460F4654F060FE18A3D3E9002304466C
:106390000E464046394654F057FE134B80B22881D2
:1063A0005843241A66F100064FF461620023204628
:1063B000314654F049FE4FF46163C0B2A8725843AD
:1063C000241A20464FF03C024FF0000366F1000112
:1063D00054F03AFEC0B2E872C0EB0010A4EB8004A7
:1063E0002C73BDE8F08100BF80510100005C2605E0
:1063F00000000000000000002DE9F843161E1F46B3
:1064000006DA7242D31782428B410AD3212074E00C
:10641000F31734184B414FF0000228BF0122002A25
:10642000F4D13D4B83424FF049038B41EED33518F5
:1064300041EBE67928463C220023494654F004FE0D
:1064400000233A703C2254F0FFFD00237A7018229A
:1064500054F0FAFD04460130BA7088464FF0070246
:1064600041F10001002354F0EFFD28463A724946FD
:1064700027A3D3E9002354F0E7FD85B2042D3ED9CC
:1064800005F26C75A9B240F26C7059F0CDFB201A80
:106490004FF0000368F1000140F26D1254F0D4FD9A
:1064A00085B205F26C7189B240F26C7059F0BCFB98
:1064B00001462846FD8059F0C7FB40F26D13641A6F
:1064C0004FF00C014FF0000203FB05F568F10008E6
:1064D000641B04F101037B81104B68F1000801FB90
:1064E0000030D3B2C35C511C9C4278F1000508D245
:1064F000002001343A71FC70FE60BDE8F883002191
:10650000D7E7E31A1C460A4668F10008E9E700BF2E
:106510008033E101000000007FBD6879BFED07080E
:106520002DE9F04F93B0CDE90A32DDE91C530E930B
:1065300053EC102BCDE90801104619468DED060BE2
:106540001E9E54F059FB80B1DDE906014FF0FF3289
:10655000C54B54F079FB40B9DDE906014FF0FF323D
:106560006FF4801354F052FB70B1DDE908019DED2A
:10657000060B0E9B1E96CDE91C53DDE90A3213B0C3
:10658000BDE8F04F00F088B90022DDE906010023E4
:1065900054F03CFB002800F03381DDE906A303F151
:1065A000004BCBF30A5016F48063A0F2FF3008BF13
:1065B00006250F9354F04EF89BA3D3E9002354F023
:1065C000B3F89BA3D3E9002353F0F8FECBF31304F5
:1065D000894644F07F5180460022A44B504641F446
:1065E000401153F0E9FE94A3D3E9002354F09CF842
:1065F00002460B464046494653F0E0FE54F02EFB5F
:10660000044654F027F88EA3D3E900238046894638
:1066100054F08AF80022964B53F0D0FE54F01EFB43
:1066200089A3D3E9002307464946404654F07CF845
:1066300080463846894654F00DF885A3D3E90023F7
:1066400054F072F802460B464046494653F0B4FEF9
:1066500002460B46CDE90C2354F066F8DDE90C2325
:10666000804689461046194653F0A8FE0022CDE91F
:106670001001804B4046494654F080F900227E4B81
:1066800053F09CFE02460B464046494654F076F9CC
:1066900000227A4B53F092FE02460B464046494692
:1066A00054F06CF9DDE90C238046894600204FF058
:1066B000804153F081FE02460B464046494653F066
:1066C0007DFE02460B46DDE9100154F057F907F252
:1066D000FF3700226A4B53F071FE00223B0554F055
:1066E00023F852465B468046894654F0ADFA0028AE
:1066F00040F08980CDE90C8904F16303C72B34BFD6
:106700000427052731051BD553A3D3E900235046A1
:10671000594654F08FFA00287FD051A3D3E90023C3
:106720005046594654F072FA002876D00027A54208
:10673000C6BF2C1B04F1FF3500253C4646F480669D
:106740000E9B9F422CBF4FF00008A3EB070816F0EA
:10675000020903D0002F18BF4FF000083CB1DDE95B
:106760000C235046594654F009F982468B46DDE920
:1067700006010022002354F049FA10B10BF1004346
:106780009B46DDE9080126F40063CDE90183DDE9DC
:106790000A324BEC10AB009500F07EF802465FB376
:1067A000DDE9091316F0200F00F10105089E0CBF6A
:1067B00065204520B047DDE9080105230022059347
:1067C0000A23002CCDE9023207F1FF374FEAD473D8
:1067D000B8BF64422A46019304970A9B00945EF076
:1067E000FBF80246B9F1000F06D00B9BC41A0B9BB5
:1067F0001A190E9BA34245D8104613B0BDE8F08F7E
:10680000DDE906ABCDE60022404649461A4B54F07E
:10681000B5F8013CCDE90C016EE7002D90D00F9B3F
:10682000002B8DD0013D8BE7FB799F501344D33F64
:10683000B3C8608B288AC63F61436F63A787D23F86
:1068400071A379094F930A401655B5BBB16B02404D
:10685000EF39FAFE422EE63F2D431CEBE2361A3F9B
:106860000000000080842E41FFFFEF7F0000F83F12
:106870000000E03F00002C400000244000001840D1
:106880000000F03F2020DDE90913089DA8470134EE
:10689000ADE700BF000000002DE9F04F5BEC10AB4E
:1068A00097B0CDE90501DDE92057CDE90723504632
:1068B00052465B465946229E54F09EF970B9032316
:1068C000CDE902760193B04B0093DDE90501DDE9E6
:1068D00007235DF0A1FF17B0BDE8F08F4FF0FF3246
:1068E0006FF480135046594654F090F928B10423B0
:1068F000CDE902760193A54BE6E74FF0FF32504613
:106900005946A34B54F0A0F968B1A24A06F004031B
:10691000002B08BF0322A04B1CBF13460422CDE965
:1069200002760192D0E7504693A3D3E9002359465B
:1069300054F08AF938B992A3D3E900235046594656
:1069400054F064F968B1DDE90723DDE905014BEC9A
:1069500010ABCDE92176209517B0BDE8F04FFFF7D9
:10696000DFBD002200235046594654F04FF900285D
:1069700000F09A805B4652460020002153F01CFD37
:10698000012382468B46099316F4806400F08E80C2
:10699000092D40F28E80002430210EABA5F10902B2
:1069A0000134202C03F8011BA5EB040901D094420B
:1069B000F6D15946504654F051F9784B054603EB51
:1069C000C90393ED007B8DED0A7B53F043FE024635
:1069D0000B465046594653F0EFFCDDE90A2353F0CD
:1069E000A3FE02460B46CDE90C2354F05FF9804626
:1069F00053F020FE02460B46DDE90C0153F0DCFCAF
:106A000002460B46CDE90C230022654B54F01CF9DD
:106A1000002851D008F10108404653F00BFE024611
:106A20000B46DDE90A0154F0FBF810B14FF0000805
:106A30000135B9F1000F50D1284653F00BFE024644
:106A40000B465046594653F0B7FC0022544B804643
:106A5000894654F0DBF830B1002240464946504B9D
:106A600054F0F2F810B1E80700D501350A210EAB59
:106A70001A19202C0AD095FBF1F001FB1055303586
:106A800002F8015B013405460028F2D106F003024A
:106A9000012A57D1002F55D0099A12B916F00C0FC0
:106AA00000D0013F302245E009906DE74FF0060924
:106AB0007FE7A94600247CE70022DDE90C01384B82
:106AC00054F0A4F80028B4D1B8F1000F02D018F0A7
:106AD000010FAED008F10108ABE70A210EAB234449
:106AE000202C0ED0B8FBF1F001FB1082B8F1090F99
:106AF00002F1300209F1FF3904F1010403F8012B1E
:106B000011D83021A1440EAA202CAFD0A14504F108
:106B100001030AD11C4609F158030DEB03092E238A
:106B200009F8203CA2E78046DAE7A1541C46EBE7CF
:106B30001A550134A74205D9202CF9D1CDE90276A6
:106B40000194C1E6202CF9D0099A3AB12D2104F123
:106B500058026A4402F8201C0134EFE7710704D59B
:106B600004F158022B216A44F4E73207E6D504F118
:106B7000580220216A44EDE70000000065CDCD41B8
:106B80000000000065CDCDC117FE07081BFE0708F9
:106B9000FFFFEF7F0EFE070813FE070820FE070821
:106BA0000000E03F00000000F0B5934C9FB0228849
:106BB000A3780021ADF80C2013A82C228DF80E30FC
:106BC0006CF0EAFF4FF00233159340F20B130AAD5D
:106BD0000434ADF874300FCC0FC50FCC0FC523684B
:106BE000864A2B60864B874D06930023CDE90733F9
:106BF00009934FF0FF33284683492B6027F058F95B
:106C00000446002853D12868431C06D140F2A44111
:106C10007E4B7F4A7F4806F0A7FD03A927F086F93F
:106C20000446002843D128685EF041F87A4E7B4F35
:106C3000307028685EF03DF8387028685EF03BF8E8
:106C4000774B78491870286827F06EFC04460028B6
:106C50002DD13378744E4BB974482BF007FF306058
:106C6000D0B940F2DC41724B694AD3E771482BF04E
:106C7000FDFE30600028EFD0C189286827F0B8FBFE
:106C80003368214658682BF02BFF044678B96748D3
:106C90002BF0ECFE306090B1C189286827F0A8FB8A
:106CA0003368042158682BF01BFF044638B1234693
:106CB00022210220604A5EF092FF1FB0F0BD0FF06B
:106CC00015FA5E4BCDE9040104AAA3F1080112F8FC
:106CD000010B03F8010D9942F9D13B78002B46D105
:106CE000574928685EF00FFD04460028DFD155495A
:106CF00028685EF0F2FC04460028D8D15249286882
:106D000027F016FA04460028D1D139A3D3E900238D
:106D1000CDE9002328685EF0F8FC04460028C6D1BF
:106D20004A4A4B4928685EF050FD04460028BED10F
:106D3000484A494928685EF04CFD04460028B6D10F
:106D40000121286827F010F904460028AFD1A023BC
:106D5000424A06A8D380424A13600FF09BFA414B87
:106D6000186088B940F225513F4B294A52E71C224E
:106D7000002116A86CF010FF286813A927F0D0FD99
:106D800004460028ACD092E72246012108200FF0EB
:106D9000DBFB364B186020B94FF4A561344B1C4A1D
:106DA00038E72246012108200FF0CEFB314B186056
:106DB00020B940F22B51304B154A2BE72F4A30496E
:106DC00030482DF083FC2F4848F03EFB00212E4830
:106DD0000AAA0FF013FB2D4B186000287FF46DAF4B
:106DE00040F237512A4B0A4A14E700BFAFF3008044
:106DF000C88D01C103400000B07C0808CD270308FE
:106E0000CB710808789C002050220120E07108080E
:106E1000B17B08089A6F0808C3100120C210012036
:106E2000C110012007001100348C002041710608B8
:106E3000077208082B71060892720808CC1001200E
:106E4000AE7C0808AC7C08087C9C0020EA2301206A
:106E5000F0180020EC230120708C002090220120EB
:106E6000E49C0020F89C00201F720808F49C00207D
:106E70003B720808F09C00205872080878720808D5
:106E8000892C0308989C0020F13D0308FC9C0020FD
:106E900081720808000000002DE9F34705465A4CAE
:106EA00022211020594A5EF09AFE142229462046DB
:106EB0006CF0BEFDA27B564BDFF8A0A11A70637C7C
:106EC00000228AF800300023CDE90023DFF890810A
:106ED00000224FF40073D8F800005EF016FC06465E
:106EE00020B10126304602B0BDE8F087494B4A4F39
:106EF0001B787BB949482BF0B9FD04463C60FCB9CE
:106F0000474A222102205EF06AFE0122454B2126DB
:106F10001A70E7E7444B454C1A88454BD8F80000F7
:106F200053F82210434A8B6821603B6027F0EAF84F
:106F30002268414B946824221B8802FB0344DDE74E
:106F40003E4B1C60394BD3F80090B9F1000F07D0CD
:106F500000232420D9F80C108B4208D100251AE018
:106F600040F2ED71364B374A374806F0FDFBD9F851
:106F7000085000FB0355EA695278120912F00E0F0F
:106F80002BD0052A29D8314B0021EA89B3F900001A
:106F90003D602BF0DDFD1AA3D3E90023CDE90023EA
:106FA000D8F800005EF0B1FBD9F80820AA4207D05B
:106FB000274B3A600421D289B3F900002BF0C8FDB9
:106FC000244BE2893C601A80234B1B783BB92CF0A0
:106FD000C7FD01202CF052FA84E70133BCE79AF890
:106FE00000301B0913F00E0FF1D101220721D8F850
:106FF00000005EF0B8FC0028E9D072E7AFF3008033
:10700000C88D01C103420000388C00206776080853
:10701000B8100120BC100120348C0020C92B0308BB
:1070200083760808BA100120F4A50020288C0020DF
:10703000BC1C0120D9270308F2A50020308C0020B9
:10704000BF7608086F7A08089A6F0808EE230120B7
:10705000F0230120E4230120C2100120B7100120F9
:10706000789C0020000000002DE9F84390F8E861CA
:10707000054644683EB902202721414A5EF0AFFD33
:107080003046BDE8F88394F90130002B1ADA731EFC
:107090005BB2637000EB431393F825302370A06854
:1070A00053F0EAFA32A3D3E900238046894694F9E3
:1070B000017053F0C9FDF8B1002F1DDD013F002321
:1070C000677024E09E42227805DD00EB431393F8BD
:1070D00025309342E3D0002305F125016370580168
:1070E000085C904208BF637001339E42F7D8731E5C
:1070F000637000232371D2E740461FA3D3E9002326
:10710000494653F0A1FDF0B12379E3B1013B23716E
:1071100094F9013005F5F57005EB431393F825302C
:10712000237085F8EA31052395F8022285F8EC31C1
:1071300085F8F02100230E2285F8EB3185F8F22145
:1071400085F8F1319DE740460BA3D3E9002349467A
:1071500053F05CFD0028DBD023790133DBB2092B2F
:107160002371D5D9013EBE42D2DD0137A7E700BF6A
:10717000666666666666E63F9A9999999999B93FF7
:10718000BE3F0908000000002DE9F8432DED028BF9
:1071900087680546384616460C4653F06DFA28A314
:1071A000D3E900238046894653F04EFD88BB26A3D1
:1071B000D3E900234046494653F028FD60BBF7EE73
:1071C000007A07EE107A87EE878A6B7F607F012254
:1071D000834224D0002148F0CDFD012204463146EF
:1071E000687F48F0C7FD044404F2D5702860D8B128
:1071F00007EE900AF8EE677A9FED0D7A67EE887ACF
:1072000087EE270ABDEC028B10EE103AEB60BDE86A
:10721000F8839FED088AD8E79FED078AD5E73146C6
:10722000184648F0A7FDE1E79FED040AEAE700BF32
:1072300000007A44E4388E3F00401C460000000005
:10724000CDCCCCCCCCCCEC3F9A9999999999B93FBB
:107250002DE9F74F064690F8E8010D469146A0B398
:107260007468A3690133A361A37D06EB43131A7FFE
:1072700002441A77D4E90732C3EB520207EE902A90
:107280004000B8EE677A07EE900AF8EEE76AF4EE8F
:10729000C76AF1EE10FA0BD507EE903A37EE667A30
:1072A000F8EE677A77EE877AFCEEE77AC4ED077A34
:1072B0004FF0000BD9450BD842F21073A2699A42E5
:1072C00082BF0023C4E90633236203B0BDE8F08F18
:1072D000B5F802A02F79BAF1000F2ED0384653F03E
:1072E000B9F9CDE90001504653F0B4F902460B4616
:1072F000DDE9000153F042FB02460B4600204C49F9
:1073000053F05AF853F0F2FC07EE100A96F80332E5
:10731000AAEB0700034486F8033294F8243033B311
:1073200094F825305B4522D1BAF1000F08D1C4F89A
:1073300020A00BF1010B0635BCE7B7EE007AE5E7BC
:10734000E3690133E3612A78002AF2D000239846EA
:1073500096F8E8C106F108019C450FD8B8F1000F76
:1073600014D127210220334A5EF039FCE1E72A7864
:10737000002ADED0BAF1000FDBD0E7E791F81DE07C
:107380000133964508BF88462031E5E7002288F89A
:107390001420B8F81020D8F8043017440133BAB2DA
:1073A000C8F80430A8F810701AB198F81D2086F8B3
:1073B0001422F7EE007A012B77EEC77A8CBFB3EE7A
:1073C000097A9FED1D7AB8F8122088BF67EE877A98
:1073D0000244A8F81220D8F808208CBF9FED177A35
:1073E00067EE877A06EE102ADFED156AE6EE077A79
:1073F00087EEA67A17EE103A17EE100AC8F8083092
:1074000053F03AF908A3D3E9002353F0FFFB18B176
:10741000FF2388F815308CE798F91530013388D1AF
:107420000423F6E7AFF30080666666666666EE3FA5
:107430000000F03FDE3F090800004842000096428D
:107440000000C842000000002DE9F04F2DED028B36
:10745000054600274FF0200A4FF0080B0B46082086
:107460004D4A87B0884627215EF0B9FB95F8E83190
:1074700027210820494A5EF0B2FB6C6805F1080636
:10748000E37D23716371637595F8E891B9450DDC6F
:107490003FA7D7E900674FF00008AA46C346C14599
:1074A00046D807B0BDEC028BBDE8F08FE17D4246C7
:1074B0001AFB01B130462944FFF766FE96F81D908D
:1074C0000495F06853F0D8F8CDE90201B06853F0A4
:1074D000D3F84B46CDE90001314A272108205EF060
:1074E0007EFB2379D6ED037A05EB431292ED057A04
:1074F000F4EEC77AF1EE10FA02DB327F22710EE071
:1075000017B995F82420F9E7637905EB431393ED58
:10751000057AF4EEC77AF1EE10FA04DB337F63717B
:1075200001372036B0E7012FFAD195F84430F6E75D
:10753000E37D434515D09AED048A18EE100A53F006
:107540009BF832463B4653F075FB10B9BBF1000F78
:107550000CD19AF8243022799A4202D062799A4268
:1075600011D108F101080AF1200A98E7637D05EBC3
:107570004313D3ED047AB4EEE78AF1EE10FAE8DAB9
:107580004FF0010BEDE76375FAE700BFAFF3008042
:10759000666666666666EE3FF63F090818400908AB
:1075A00027400908000000002DE9F047D0F80480CA
:1075B00000EB411393F8245098F817300446AB427F
:1075C0002DD098F81530AB4229D000EB411ADAF8EB
:1075D00010004FEA411953F04FF813A3D3E90023E9
:1075E00006460F4653F01CFB10B99AF91D00A0B1D6
:1075F00098F80430AB4212D098F80530AB420ED068
:1076000009A3D3E900233046394653F01DFB18B1D6
:107610004C44637F013B63770120BDE8F087002085
:10762000FBE700BFAFF30080666666666666EE3F06
:107630002DE9F34704460E46456827210820804A75
:107640005EF0CDFA20463146FFF7FEFE28466BF08D
:10765000FAF9002800F0BA8020466BF007FA061EFF
:10766000C0F2B48094F8E8319E4280F2AF8004EB1F
:107670004617334627210820724A5EF0B0FA2721C8
:10768000082097F82530704A5EF0A9FA012295F893
:1076900004C085F8242004EB4C13386A196A884228
:1076A00097F8250002D8397F322977D9012284F84A
:1076B000EC21002284F8EA0184F8EB21A97D2970ED
:1076C00093F8251084F8F01193F8263084F8F1210E
:1076D00084F8F231697D85F801C004EB411393F819
:1076E0002500012684F8F60193F8263084F8F83155
:1076F000002384F8F731A97085F82520A04605F10C
:10770000FF3904F1120A19F8013F5F1C002E00F046
:10771000898004EB4313186952F0AEFF02460B4612
:10772000CDE9002342A3D3E9002353F08DFA40B9F9
:1077300041A3D3E90023DDE9000153F067FA0028F3
:1077400070D004EB4717BB79042B8EBF02230133A3
:10775000C3F3460388F8EC3108F10608C245D2D1DC
:10776000EA7D04F5F57004EB421393F8253084F8B4
:10777000FC31002384F8FD31EA7085F8243094F858
:10778000F22194F8EC31134494F8F821C3F1130377
:107790009B1A84F8FE3102B0BDE8F08793F825709B
:1077A000697D84F8EA7193F8263084F8EC3100237F
:1077B00084F8EB3185F800C084F8F13184F8F001E9
:1077C00084F8F22104EB41136E7088E700262A79D1
:1077D00004EB421393F8251084F8EA1193F826304D
:1077E00084F8EB6184F8EC312A706A7904EB421377
:1077F00093F8251084F8F01193F8263084F8F1619D
:1078000084F8F2316A706A7D04EB421393F8251014
:1078100084F8F61193F8263084F8F76184F8F8318B
:10782000AA706BE704EB4717BB7993E7AFF30080CF
:10783000666666666666EE3F9A9999999999B93F28
:107840004B40090859400908694009080000000038
:107850002DE9F8432DED028B87680546384616461C
:107860000C4652F009FF2EA3D3E900238046894637
:1078700053F0EAF900283DD12BA3D3E90023404679
:10788000494653F0C3F9C0BBF7EE007A07EE107A11
:10789000AB7F87EE878A07EE903AB8EEE77AB4EED0
:1078A000C87AF1EE10FA01D5B8EE678A6B7F607F77
:1078B0000122834224D0002148F05CFA01220446D0
:1078C0003146687F48F056FA044404F2D5702860C7
:1078D000D8B107EE900AF8EE677A9FED0D7A67EE61
:1078E000887A87EE270ABDEC028B10EE103AEB6027
:1078F000BDE8F8839FED078AD8E79FED078AD5E7B3
:107900003146184648F036FAE1E79FED040AEAE707
:1079100000007A44E4388E3F00401C46000000001E
:10792000CDCCCCCCCCCCEC3F9A9999999999B93FD4
:107930002DE9F04F2DED028B90F8E83105460E460B
:10794000934689B0002B00F0238127210820964A16
:107950005EF045F900226C68A1690131A16195F8DA
:10796000E80190423DD8D4E907230A2779436427E8
:10797000B1FBF7F1C2EB53030B4407EE903A43001F
:1079800006EE903AF8EE677AF8EEE66AF4EEE76A09
:10799000F1EE10FA0BD507EE102A77EEE67AB8EE84
:1079A000477A77EE277AFCEEE77AC4ED077A00276C
:1079B000B846BB451DD8B8F1010F00F0E680B8F11C
:1079C000130F40F2B9800023A3612721082095F806
:1079D0000332764A09B0BDEC028BBDE8F04F5EF091
:1079E000FEB8A37D013205EB43131F7F01371F77DC
:1079F000B7E7B6F8029096F804A0B9F1000F41D0AD
:107A0000504652F027FECDE90601484652F022FECC
:107A100002460B46DDE9060152F0B0FF02460B4676
:107A20000020634952F0C8FC53F060F908EE100AD8
:107A3000337818EE100A0693049552F01DFE069B4B
:107A4000CDE902015B4A27210820CDE9009A5EF0CA
:107A5000C6F87288337995F80312D31A0B4485F867
:107A6000033294F82430C3B194F82530BB4214D1CA
:107A70005AB92262272108204F4A5EF0B0F8013738
:107A8000063696E7B7EE008AD2E7E369272101338D
:107A900008204A4AE3615EF0A2F8B6F802A0BAF103
:107AA000000FECD00023E25D05EB4211C8680B77B4
:107AB0000130C86096F804C00B8B4FEA421963444A
:107AC0009BB20B831BB191F8253085F81432F7EE89
:107AD000007A05EB0902538B01285344A3EB0C03F6
:107AE00077EEC87A53830DD9B2EE0E7AD2ED046ADE
:107AF00027EE877ADFED327AA6EEA77ADFED316ADC
:107B0000C7EE267AA944C9ED047A17EE900A52F01E
:107B1000B3FD23A3D3E9002353F078F830B1FF235A
:107B200089F81D30C2441FFA8AF8A8E799F91D3078
:107B30000133F7D10423F3E7B8F1020FD4ED0B7A48
:107B4000B1EE047A15D977EE877AB3EE047AF4EEC3
:107B5000477AF1EE10FA77FE277A42F21073A269A3
:107B6000C4ED0B7A9A4282BF0023C4E90633236234
:107B70002BE7F2EE046A77EEE67AF4EE477AF1EE5E
:107B800010FA48BFF0EE477AE7E7DFED0F7AE4E757
:107B900009B0BDEC028BBDE8F08F00BFAFF30080F1
:107BA000666666666666EE3FAE40090814410908DF
:107BB0000000F03FC4400908F540090804410908E5
:107BC0000000AA420000C8420000000000000000BF
:107BD0002DE9F84F2DED028B0546884600274FF022
:107BE00020094FF0080B446800F10806E37D23717B
:107BF0006371637595F8E8A1BA450CDC0FF2D00902
:107C0000D9E9008900262F46B346B24532D8BDECEB
:107C1000028BBDE8F88FE17D424619FB01B1304689
:107C20002944FFF715FE2379D6ED037A05EB4312BD
:107C300092ED057AF4EEC77AF1EE10FA02DB327FAC
:107C400022710EE017B995F82420F9E7637905EB66
:107C5000431393ED057AF4EEC77AF1EE10FA04DBE4
:107C6000337F637101372036C4E7012FFAD195F8CD
:107C70004430F6E7E37DB34215D097ED048A18EE61
:107C8000100A52F0F9FC42464B4652F0D3FF10B9AD
:107C9000BBF1000F0AD197F8243022799A4202D022
:107CA00062799A420FD101362037AEE7637D05EB4A
:107CB0004313D3ED047AB4EEE78AF1EE10FAEADA70
:107CC0004FF0010BEFE76375FAE700BFAFF30080F9
:107CD000666666666666EE3F2DE9F047456890F891
:107CE000E821AB690446B3EB420F2ED900EB4113F8
:107CF00093F82480EB7D43452AD06B7D434527D004
:107D000000EB411ADAF810004FEA411952F0B4FCC6
:107D100011A3D3E9002306460F4652F081FF10B9A4
:107D20009AF91D0090B12B79434511D06B794345E9
:107D30000ED009A3D3E900233046394652F084FF20
:107D400018B14C44637F013B63770120BDE8F087A5
:107D50000020FBE7AFF30080666666666666EE3F6E
:107D60000348044B834202D0034B03B118477047CA
:107D7000343001203430012000000000064B074958
:107D8000C91A891048BF0131491003D0044B0BB107
:107D900001481847704700BF3430012034300120BB
:107DA0000000000010B5064C237843B9FFF7D8FF58
:107DB000044B13B10448AFF300800123237010BDBE
:107DC00004A6002000000000A058090808B5054BD3
:107DD0001BB105490548AFF30080BDE80840FFF737
:107DE000CDBF00BF00000000D0220020A05809082D
:107DF000A3F5803A704700BF174B002B08BF134B09
:107E00009D46FFF7F5FF00218B460F461348144AA5
:107E1000121A6BF0C1FE0E4B002B00D098470D4B91
:107E2000002B00D098470020002104000D000D48D1
:107E3000002802D00C48AFF3008053F023FB200051
:107E4000290057F0AFFE53F08FFA00BF0000080082
:107E500000000000000000000814002008140020AA
:107E6000C4190120000000000000000010B5164AEF
:107E70008EB01278154C0C92154A034612782046A3
:107E80000B92144A92F844100A9192F84510099105
:107E9000B2F840100891D18F0791928F4FF4806112
:107EA00006920D4A05920D4A04920D4A03920D4A1C
:107EB00002920D4A01920D4A00920D4A1EF0E2FA1A
:107EC00020460EB010BD00BF06A60020D0B2002094
:107ED00007A600201BB80020A7B7002078B8002014
:107EE000D2B600208B670708AFB7002080AE002015
:107EF000C866070808B504F0A3FC0022084BC3E9D4
:107F00000001084BC3E90001074B08491A80002211
:107F10000023C1E900230649C1E9002308BD00BFD1
:107F20008814002080140020CEA5002078140020A2
:107F30007014002000232DE9F04F9BB02F4CDFF888
:107F4000D08000AF054607F10B0023606360C8F8DE
:107F50000030C8F804305DF0F6FF18B181B228484F
:107F60001EF068FA6A46FB7A07F10B00A2EBC30326
:107F70009D4669466E465DF0FBFF18B181B221480F
:107F80001EF058FA4FF00009FA7A5FFA89FB5A4559
:107F900008D8284623686C372B6063686B60BD4641
:107FA000BDE8F08F06EBCB0A4FEACB0307F10C01DB
:107FB00050467B605DF0F5FFF96A49B912495046B9
:107FC0005DF0EFFF56F83B102160DAF804106160B5
:107FD000F96A01290ED150460C495DF0E2FF7B6839
:107FE00033449A4656F83B30C8F80030DAF804308B
:107FF000C8F8043009F10109C6E700BFC0AE00208F
:1080000090670708C96707081BB80020C2B700209F
:10801000B8AE002013B56846FFF78CFF084C094A3C
:108020002146D379084892791EF018FA2146074A6A
:108030000748D379927902B0BDE810401EF00EBA1D
:10804000FD670708C0AE0020A7B70020B8AE00202B
:108050009FB700202DE9F0432E4CA7B020465EF0DC
:108060002FF854F003F821AE02462B4930461EF09B
:10807000F5F9FFF7CFFF294B2088D3E90012013132
:1080800042F10002C3E90012254B264D5F89264BC1
:108090001E93264BD3E90A89CDE91C89D3E90889C7
:1080A000CDE91A89D3E90689CDE91889D3E904898C
:1080B000CDE91689D3E90289CDE91489A378CDE900
:1080C0000F07CDE91173CDE90C12194B0E900A96EA
:1080D00093F844204FF48061099293F84520284694
:1080E0000892B3F840200792DA8F06929B8F114ACC
:1080F0000593114B0493114B0393114B0293114BB6
:108100000193114B0093114B1EF0BCF9284627B088
:10811000BDE8F08374B80020EC86080868140020DD
:10812000D4230020D0B200203BB700200814002048
:108130001BB8002014680708A7B7002078B80020F3
:10814000D2B600208B670708AFB7002080AE0020B2
:108150002DE9F04FF7B0219053F088FFDFF88492BB
:1081600002468B4923A81EF079F9FFF753FF4846D2
:108170005DF09AFE87485DF0A3FF874C3CA9042080
:108180005DF048FE012059A95DF044FED4E90032BB
:10819000013342F10002C4E9003299F80030DFF8FF
:1081A00048A2052B28AD2DAE32AF40F09F8004F0E1
:1081B00047FB7A4ADFF834B2D2E90032B0EB030869
:1081C00061EB02094946404604F014FB704902463F
:1081D00028461EF043F9724930461EF03FF9DAE9AD
:1081E000000118EB000049EB010104F003FB6849B2
:1081F000024638461EF032F9DBE9000104F0FAFAD3
:108200006349024637A81EF029F9DAE90001DBE9E3
:10821000003218EB000049EB010110EB030A41EBBF
:10822000020B5AEA0B0340F09E805E48479B1F9367
:10823000439B1E939DF8AC311D935A9B1C93619BED
:108240001B935B9B1A93649B1993524B9B781893D7
:1082500037ABCDE9167352F00FFACDE91401524B4A
:108260001B881393514B1B881095CDE91163504D1A
:10827000686852F0DFF964230646E8680F46B0FBF1
:10828000F3F052F0D7F902460B463046394652F029
:1082900075FBCDE90E01D4E90023CDE90C2323AB16
:1082A0000B93444B4FF4806193F8442042480A9268
:1082B00093F845200992B3F840200892DA8F07928C
:1082C0009B8F3E4A06933E4B05933E4B04933E4B99
:1082D00003933E4B02933E4B01933E4B0093219BF5
:1082E0001EF0D0F8344877B0BDE8F08F04F0A8FA5B
:1082F000394AD2E90032B0EB030861EB020B2846A1
:1083000099F8002035491EF0A9F85946404604F076
:1083100071FA1F49024630461EF0A0F8DAE9000162
:1083200004F068FADFF8C4900246194938461EF096
:1083300095F8D9E9000118EB00004BEB010104F0BE
:1083400059FA1349024637A81EF088F8DAE9000105
:10835000D9E9003210EB030A41EB02031AEB080AD9
:108360004BEB030B5DE752F0A9F900221C4B52F0D6
:10837000DBF9804689465046594652F09FF902463D
:108380000B464046494652F0F9FA52F0AFFC4DE731
:10839000EC86080874B800206814002088140020B7
:1083A0006E6907080000C842CCA50020CEA50020B9
:1083B000302300201BB80020D0B2002085690708B8
:1083C000A7B7002078B80020D2B600208B67070836
:1083D000AFB7002080AE002080140020716907082C
:1083E00000005940D0B600207814002070140020FE
:1083F00037B55C4901205DF095FC05465A4959485E
:1084000008F0A8FC594C002D00F0948058492068D1
:108410006BF0EAFA53F02AFE236802465549002021
:108420005CF0FAFB53F022FE2268014651481EF030
:1084300001F84FF4AF61504AABB220681EF022F849
:10844000002021685CF0E8FB20681DF0F3FF4FF48A
:10845000AF614A4B4A4A20681EF014F853F006FEFA
:1084600023680246434900205CF0D6FB53F0FEFD32
:10847000226801463F481DF0DDFF424A11213F4876
:1084800054F004FD40493F4808F064FC40F2D543F5
:1084900000934FF4AF613C4B3C4A20681DF0F2FF63
:1084A00053F0E4FD23680246324900205CF0B4FB3F
:1084B00053F0DCFD226801462E481DF0BBFF4FF44F
:1084C000AF61334B334A20681DF0DCFF53F0CEFD23
:1084D00023680246274900205CF09EFB53F0C6FD4E
:1084E0002268014623481DF0A5FF2B4A1121284888
:1084F00054F0CCFC2949284808F02CFC41F23563A3
:1085000000934FF4AF61254B254A20681DF0BAFF58
:1085100053F0ACFD23680246164900205CF07CFB5A
:1085200053F0A4FD2268014612481DF083FF28463F
:1085300003B030BD4FF4AF610B4B1A4A20681DF0F9
:10854000A1FF53F093FD236802460A4928465CF0D8
:1085500063FB53F08BFD2268014606481DF06AFF5D
:1085600075E700BFA8AE002080AE00208824002060
:10857000C8F50708EF6B0708F76B0708576C070883
:10858000696C07081C23002030AE0020846C0708AB
:10859000AB6C0708BD6C0708FC22002008AE002069
:1085A000D96C0708346C0708F8B5FFF721FF0322E0
:1085B0000221002026F01EFF4E4A411C03464E4C6D
:1085C00010601FD14D4920686BF00EFA53F04EFD3C
:1085D000236802464A4900205CF01EFB53F046FD2A
:1085E0002268014646481DF025FF464920686BF089
:1085F000FBF9216800205CF00FFB20681DF01AFFDA
:108600000120F8BD4FF4AF613F4A20681DF03AFFEA
:1086100053F02CFD23680246394900205CF0FCFA37
:1086200053F024FD002501462268384E34481DF0E1
:1086300001FF40F2D54035605DF0DEFA0322B080E4
:108640000221284626F0D6FE314E421C03463060F9
:1086500014D12A4920686BF0C7F953F007FD23684D
:108660000246274928465CF0D7FA53F0FFFC2268FF
:10867000014623481DF0DEFE2649B7E74FF4AF61FF
:10868000254A20681DF0FEFE53F0F0FC23680246E8
:108690001B4928465CF0C0FA53F0E8FC1F4F014626
:1086A000226817481E4C1DF0C5FE41F2356025605A
:1086B0005DF0A2FA33683E46A08046F8043B0FCC3A
:1086C0000FC694E80F0086E80F0041F20303FB8415
:1086D0003223BB6242F22A3312484FF40071BB8549
:1086E000B86354F08AFD7D63F88587F824502846E6
:1086F0003D6486E7EC22002088240020C8F50708A6
:10870000EF6B0708006D0708366D0708102300207F
:10871000E8220020666D07089D6D07084C1C0120AB
:10872000F0220020CD6D070873B53C4D4FF4007169
:10873000E86354F062FD288605F1240054F0D6F970
:10874000064654F0BCF90446E8B9354D009640F2AF
:108750000E534FF4AF61334A28681DF093FE53F077
:1087600085FC2B680246304920465CF055FA53F0F0
:108770007DFC2A6801462C481DF05CFE4FF4A26582
:10878000284602B070BD05F1240154F0B1F900286B
:108790001CDA234D40F213534FF4AF61234A28688B
:1087A0001DF070FE53F062FC1F4902462B6800204A
:1087B0005CF032FA53F05AFC2A6801461A481DF060
:1087C00039FE0025204654F086F9D9E7202301938D
:1087D000174B3246009321460023286826F07AFE84
:1087E0000130EED12B680E4E00934FF4AF6140F292
:1087F0001C53104A30681DF045FE53F037FC3368B7
:108800000246094900205CF007FA53F02FFC326859
:10881000014605481DF00EFE3125D3E74C1C012012
:1088200088240020E06D0708EF6B0708206E07081A
:10883000F02200205A6E07082DE9F04385B0054666
:108840001C469DF830609DF83470002A00F08F803F
:10885000002978D053F00AFC014670481DF0EAFD6B
:1088600028461DF0E7FD002C40F09A800124002EE0
:108870003CD02B464FF48061694A6A481DF002FEE5
:1088800020230193684BDFF8CC91009386B200233C
:1088900032466449D9F8000026F01CFE013040F051
:1088A000838040F2D5430293604B03960193D9F83D
:1088B0000030DFF8888100934FF4AF6140F24353FA
:1088C0005B4AD8F800001DF0DDFD53F0CFFB59499D
:1088D0000246D8F8003000205CF09EF953F0C6FB49
:1088E000D8F80020014653481DF0A4FD3FB32B46A5
:1088F0004FF480614A4A50481DF0C4FD83B2B3F57D
:10890000007F54D94FF400734C4D80B20193009016
:1089100040F24C534FF4AF61494A28681DF0B2FD54
:1089200053F0A4FB434902462B6800205CF074F925
:1089300053F09CFB2A6801463E481DF07BFD204613
:1089400005B0BDE8F0831DF075FD002C8ED001242C
:10895000DFF8E8802A464FF4AF61D8F800001DF038
:1089600091FDD8F8001000205CF056F916E0002BBD
:108970003FF47DAFB1B11446DFF8C0802A464FF412
:10898000AF61D8F800001DF07DFD53F06FFBD8F803
:1089900000300246274900205CF03EF9013466E7CA
:1089A0000124E9E70C46D3E70134E4B29EE722480C
:1089B000FFF7BAFE064610B90134E4B2BFE71F4D17
:1089C000204928686BF010F853F050FB2B680246E2
:1089D000184900205CF020F953F048FB2A68014652
:1089E00014481DF027FD41F235630293164BB6B2D1
:1089F0000193164B03961B68154A00934FF4AF6121
:108A00004FF4AA6328681DF03DFD296800205CF042
:108A100003F928681DF00EFD91E700BF886E070876
:108A2000EC86080808AA00201023002030AE0020A1
:108A30008E6E0708EF6B070808A600208824002028
:108A4000EC6E0708C8F5070808AE0020E8220020F1
:108A5000586F0708EC2200202DE9F04FD34F9DB04E
:108A600003F050FE02F008FF04F00CFF3B78D04CFE
:108A7000DFF8C083EBB1E3880133E38002F0BCFE92
:108A80003B464FF4AF61CB4AD8F800001DF0FAFC2A
:108A900053F0ECFAC8490246D8F8003000205CF0E8
:108AA000BBF853F0E3FAD8F800200146C2481DF0A5
:108AB000C1FCC2481DF0BEFCC14AC249C2481DF0FB
:108AC000CDFC4FF0010C0623CDE9033CBF4BC04D5C
:108AD000C04E0293C04B6421C04A01930095BA4B2B
:108AE00030461DF0CFFCCDE900564FF4AF61B64BD8
:108AF000BB4AD8F800001DF0C5FC53F0B7FAD8F80F
:108B000000300246AC4900205CF086F853F0AEFA23
:108B1000B44D0146D8F80020A7481DF08BFCB24B9D
:108B20005021B24AB24800951DF0ACFC0FA808F0E5
:108B300093FC139B1B6913B964206DF05CF8139BC5
:108B400050211B69AB4ACDE90053A948A64B1DF043
:108B500099FC4FF4AF619F4BA74AD8F800001DF075
:108B600091FC53F083FAD8F8003002469249002075
:108B70005CF052F853F07AFAD8F8002001468E489B
:108B80001DF058FC4FF4AF61994B9B4AD8F8000098
:108B90001DF078FC53F06AFAD8F800300246864996
:108BA00000205CF039F853F061FAD8F80020014653
:108BB00081481DF03FFC4FF4AF61904B904AD8F8CC
:108BC00000001DF05FFC53F051FAD8F80030024667
:108BD000794900205CF020F853F048FAD8F80020DA
:108BE000014675481DF026FC0120D8F8005008F019
:108BF00045F94FF4AF610346824A28461DF042FC16
:108C000053F034FAD8F8003002466B4900205CF08B
:108C100003F853F02BFAD8F80020014666481DF0FF
:108C200009FC02234FF4AF61774AD8F800001DF029
:108C300029FC53F01BFAD8F8003002465E490020A8
:108C40005BF0EAFF53F012FAD8F8002001465A48C8
:108C50001DF0F0FB0121032003F010FB0122032192
:108C60001A2003F033FB01220421102003F02EFB15
:108C700001222220114603F029FB012204210B20AE
:108C800003F024FB01222520114603F01FFB0122E3
:108C90001D20114603F01AFB01220221002003F0DF
:108CA00015FB01220221282003F010FB57495848E8
:108CB0006AF09AFE5749D8F800006AF095FE53F022
:108CC000D5F9D8F8003002463B4900205BF0A4FFFC
:108CD00053F0CCF9D8F80020014637481DF0AAFB24
:108CE0004D49D8F800006AF07FFE53F0BFF9D8F87C
:108CF00000300246304900205BF08EFF53F0B6F999
:108D0000D8F8002001462C481DF094FB4FF4AF61C9
:108D1000424B434AD8F800001DF0B4FB53F0A6F9CB
:108D2000D8F800300246244900205BF075FF53F06C
:108D30009DF9D8F8002001461F481DF07BFB4FF439
:108D4000AF61384B384AD8F800001DF09BFB53F058
:108D50008DF9D8F800300246174900205BF05CFF1F
:108D600053F084F9D8F80020014613481DF062FB47
:108D70002E49D8F800006AF037FE53F077F9D8F89A
:108D8000003002460C4900205BF046FF53F06EF9BC
:108D9000274D0146D8F8002007481DF04BFB284618
:108DA0005DF0A7F8284608F05DF945E031E20020C3
:108DB000D4230020C26F0708EF6B0708C8F5070827
:108DC0008B670708EC860808B7B70020F06F070824
:108DD0000C7007083BB70020F56F0708DE6F070827
:108DE00015700708407007081F7007082B700708E8
:108DF000EBB6002049700708536C0708737007082A
:108E0000827007088E7007089F70070890F10708A6
:108E1000D0AE0020B5700708CC700708E6700708D0
:108E2000F67007080E7107081E71070836710708EB
:108E3000C8AE002088240020B5490246B5481DF080
:108E40000DFBEB79AA79B449B4481DF007FB4FF448
:108E5000AF61B04BB24AD8F800001DF013FB53F0DD
:108E600005F9D8F800300246AE4900205BF0D4FE88
:108E700053F0FCF8D8F800200146AA481DF0DAFAB1
:108E80004FF4AF61A54BA84AD8F800001DF0FAFADC
:108E900053F0ECF8D8F800300246A24900205BF00D
:108EA000BBFE53F0E3F8D8F8002001469D481DF0C2
:108EB000C1FA9E499E481DF0D1FA9E4854F0BDF972
:108EC000411E48429C4D484128709C4854F0B5F9D9
:108ED000461E70429A4B704118702B784FF4AF6168
:108EE000CDE9000303EB40095FFA89F94B46954A47
:108EF000D8F800001DF0C6FA53F0B8F8D8F80030E2
:108F00000246884900205BF087FE53F0AFF8D8F89E
:108F10000020014683481DF08DFA01234FF0000A1E
:108F2000894E9945337084F80CA040F0D580874B6A
:108F3000186854F085FD8649D8F800006AF054FDA1
:108F400053F094F877490246D8F8003050465BF069
:108F500063FE53F08BF8D8F80020014671481DF0ED
:108F600069FA4FF4AF61724B7A4AD8F800001DF0ED
:108F700089FA53F07BF8D8F800300246694900209E
:108F80005BF04AFE53F072F8D8F8002001466548BD
:108F90001DF050FA237B53B96F49942006F078FCFA
:108FA00095206D4906F074FC012002F065F86B49CC
:108FB0008B2006F06DFC02F0A1FA637B0BB394F8F2
:108FC0000C90B9F1000F40F0998001205DF094F809
:108FD0004FF4AF61637B624AD8F800001DF052FA8B
:108FE00053F044F84F490246D8F8003000205BF0B7
:108FF00013FE53F03BF8D8F80020014649481DF015
:1090000019FA4FF4AF612389564AD8F800001DF0D1
:1090100039FA53F02BF8D8F80030024641490020C5
:109020005BF0FAFD53F022F8D8F8002001463D48E5
:109030001DF000FA60895DF0B4F84FF4AF61638908
:10904000494AD8F800001DF01DFA53F00FF8D8F87F
:1090500000300246334900205BF0DEFD53F006F895
:10906000D8F8002001462F481DF0E4F903F092F9EA
:1090700003F010FC03F0E4FB3C4BDFF8F490C3E991
:10908000000104F093FFDFF8FCA0DFF8FCB003F070
:10909000D7FB8046364807915CF006FF99F8003010
:1090A000052B73D03C2200234046079951F0CCFF9A
:1090B0001A430BD152F0DAFF014650461DF0BAF9BF
:1090C000594699F800202B481DF0B4F903F0B2FC82
:1090D00064206CF090FDDAE7B9F1020F02D1264965
:1090E000237329E7B9F1030F7FF43BAF174B4FF21E
:1090F000120118680AF0F2FC20491DE7CDF8009033
:109100004FF4AF611E4AD8F800001DF0BBF967E7C5
:10911000EC86080878B80020FD670708AFB7002084
:109120004F710708EF6B07085E7107086D7107083C
:10913000D2B600204CB4070807A6002034B40708B4
:1091400006A600208571070805A600208C1F0120B7
:10915000A171070817720708CDB1000859940008DB
:1091600027720708677207088872070890140020A2
:10917000D0B60020A1720708C8710708EE71070871
:1091800035720708886E07087370070803F058FBEC
:10919000CDE908010121032003F070F8012222200B
:1091A000114603F093F801220B20114603F08EF8CC
:1091B00001222520114603F089F801221D201146C5
:1091C00003F084F801220221002003F07FF801223D
:1091D0000221282003F07AF8FFF7E6F94523844AB4
:1091E000844985481DF026F90BA901205CF09AFD01
:1091F00082481DF01FF90BA807F01EFE4FF0010971
:109200004FF0000801467E481DF028F941F2336214
:109210007C4B7B497C481DF00DF97C481DF00AF918
:1092200041F23362774B764979481DF003F90A2100
:1092300078481DF0FFF841F23362774B6C4977486C
:109240001DF0F8F876481DF0F5F841F23362724BE4
:10925000674974481DF0EEF87349694800F0BCFB9B
:109260007248FEF7F7FE4B464A464946CDE900985C
:10927000FFF7E2FA3B7853B102206CF0BCFC4B469E
:109280004A464946CDE900986948FFF7D5FA4FF0BC
:109290000108684813F012F9674B022083F8008038
:1092A0004FF0000A6CF0A7FCDFF8A8B103F0C8FA91
:1092B000089BC71A099B61EB0309604B1B78052BC0
:1092C00036D103F0A7F903F0B5FB01230793384625
:1092D00000234946228951F0B7FE1A432CD09BF84F
:1092E00000308BBB002338464946228951F0ACFE42
:1092F000013A1A4308BF4FF00108052200233846FF
:10930000494651F0A1FE53EA020134D1DFF8289119
:1093100099F8003023B1474813F0D0F889F800A03D
:1093200017F001072ED00123337052F022FFBDE762
:1093300003F080FB0023C9E7B8F1000F04D19BF8CC
:109340000080B8F1000FD8D03848FEF701FF079B26
:10935000CDF804A0009301231A461946FFF76CFAD2
:1093600037488BF800A053F0ECFF364853F0E9FF84
:109370004FF00008B6E7013A1A4302BF01222E4B14
:109380001A70CDE73378002BCFD02F48377053F0C9
:1093900054FF431E5842584128702C4853F04DFF4B
:1093A000421E2B4B5042504118702B7813B1244869
:1093B00053F0C1FF264B1B7813B1224853F0BBFF7B
:1093C000234A2B781278D342AFD01848FEF74EFDCF
:1093D000079BCDF804A0009301231A461946FFF716
:1093E0002BFA174853F0AAFF164853F0A7FF9CE743
:1093F000CE720708DA720708ED7207082F730708A4
:1094000080AE002049730708527307089573070858
:10941000CC730708037407083474070844740708FA
:1094200092740708CD74070858AE002090F1070821
:1094300031E2002030230020BFB70020D0B600204A
:109440007CB4070864B407084CB4070834B40708B0
:1094500006A60020C0B700202DE9FF478268CB4D4B
:10946000D2B2052A2A7000F2FB81C94E33889A4293
:1094700000F0F681C74C00924FF4AF61C64A2068F5
:109480001DF000F852F0F2FD23680246C3490020A7
:109490005BF0C2FB52F0EAFDC14F01462268BF48B3
:1094A0001CF0C8FF95F800803B78434508F1FF3376
:1094B00088BF87F80080042B35D803F0C1F9DFF8A6
:1094C000F0C22B780CEBC808C8E90001581E5CF804
:1094D00033200CEBC00E5CF830000CEBC301121A09
:1094E000DEF804C04968AF4861EB0C0100EBC30C27
:1094F00040F83320CCF80410CDE900214FF4AF61DF
:10950000A94A20681CF0BEFF52F0B0FDA3490246F4
:10951000236800205BF080FB52F0A8FD2268014622
:109520009E481CF087FF2B78052B40F0A2809F49B6
:109530009F4ADFF8A892D2E90A3C0A88C9E9003CB0
:10954000013292B20A80397803299FBF9948018875
:10955000013101800521012A39702068964F40F0C1
:109560008281CDE9003C4FF4AF61944A1CF08AFF40
:1095700052F07CFD23680246884900205BF04CFBDA
:1095800052F074FD2268014684481CF053FF00230A
:109590001A46DFF85482C7E9003240466AF086FA7C
:1095A000874B074695F80090188052F05FFDC7F58D
:1095B00080614B46834A009008EB07001CF062FF75
:1095C000276895F8008052F051FD43464FF4AF6193
:1095D0007C4A009038461CF055FF52F047FD236846
:1095E00002466E4900205BF017FB52F03FFD2268F7
:1095F00001466A481CF01EFF02A8FEF79BFC724F52
:10960000029B72493B60039B71487B60FB79BA798E
:109610001CF024FF6F4B1B684BB16F48FEF71AFD1F
:1096200001231A461946CDE90033FFF705F9012158
:10963000032002F023FE01222220114602F046FE02
:1096400001220B20114602F041FE01222520114685
:1096500002F03CFE01221D20114602F037FE0122DD
:109660000221002002F032FE01220221282002F015
:109670002DFE3388052B40F0F1804D4F4FF000094F
:10968000BA46B84603F0DCF8EAE80201287809F1A6
:1096900001094845F6DA4FF0000CDFF808E13B46D7
:1096A000BA68D9680CF1010CD3E90093B2EB090256
:1096B00061EB03034EF8082F604507F10807CEF869
:1096C0000430ECDA08EBC00258F830305268DFF8AA
:1096D0001C81424FC8E90032D7E900011B1A62EB36
:1096E0000102CDE900324FF4AF613D4A20681CF021
:1096F000C9FE52F0BBFC23680246284900205BF0FB
:109700008BFA52F0B3FC2268014624481CF092FE0A
:10971000D8E90032DFF8D8C0DFF8CC80DCE90001FE
:109720001B1842EB0102D7E900105B1A62EB000242
:109730004046CCE900326AF0B9F9214B074695F86A
:109740000090188052F092FCC7F580614B46254A84
:10975000009008EB07001CF095FE276895F8008044
:1097600052F084FC43464FF4AF611E4A00903846E5
:109770001CF088FE52F07AFC23680246074900205C
:109780005BF04AFA52F072FC34E000BFD0B6002021
:10979000C8A500208824002003750708EF6B070880
:1097A000C1B700200814002018750708CEA50020B6
:1097B00038140020CCA50020701400204175070843
:1097C000CAA500207E750708C0AE0020FD67070807
:1097D000A7B70020EC22002090F107088814002091
:1097E00089750708A6750708D0AE002080140020F0
:1097F0007814002022680124014630481CF01AFE2B
:109800002F4B214603201C7002F038FD2246032115
:109810001A2002F05BFD22460421102002F056FDC2
:1098200022462146222002F051FD224604210B202F
:1098300002F04CFD22462146252002F047FD22463B
:1098400021461D2002F042FD22460221002002F0A6
:109850003DFD22460221282002F038FD2B7833807E
:1098600004B0BDE8F087DFF86080D8E900125B1A29
:109870006CEB0202CDE900324FF4AF61114A1CF0EB
:1098800001FE52F0F3FB236802460C4900205BF016
:10989000C3F952F0EBFB2268014608481CF0CAFDF0
:1098A000D7E90001D9E900321B1842EB0102D8E9DF
:1098B00000105B1A62EB00026BE600BFEF6B07085B
:1098C000D1B60020627507088014002084B010B55E
:1098D0008CB00EAC84E80F009DF87F30154C0B93D4
:1098E0009DF87C304FF48061AE3B0A939DF87D304B
:1098F0002046AE3B0993BDF876300F4A0893BDF879
:10990000743007931B9B06931A9B0593199B049332
:10991000189B0393179B0293169B01939DF8943019
:109920000093269B1CF0AEFD20460CB0BDE8104015
:1099300004B07047D0B20020B17507082DE9F0419E
:10994000AEB006460DF15B005CF0FDFA18B181B2D5
:109950001C481CF06FFD9DF85B00B04203D81A480C
:109960002EB0BDE8F081C00056F02FF80446002864
:10997000F5D001460DF15B005CF0FAFA18B181B246
:1099800012481CF057FD04EBC607DFF8488017ADFE
:10999000294638465CF005FBFB79BA790C4940460C
:1099A0001CF05CFD204656F02FF81BA949226846A2
:1099B000CDE913686AF03CF895E80F00FFF786FFE1
:1099C000CEE700BF9067070890F10708C96707084E
:1099D000FD670708A0B8002070B50D4604461D4E6F
:1099E00030461CF027FD1C481CF024FD41F2356276
:1099F00029461A481CF01EFD19481CF01BFD214683
:109A000018481CF017FD18481CF014FD2146174893
:109A10001CF010FD05F01AFB15481CF00BFD154855
:109A20001CF008FD14481CF005FD14481CF002FD54
:109A300013481CF0FFFC13481CF0FCFC12481CF0FF
:109A4000F9FC12481CF0F6FC3046BDE870401CF0F2
:109A5000F1BC00BFC8F5070889760708BD7607087E
:109A6000DE760708EF7607082F77070843770708A1
:109A70009B770708F1770708417807089A78070865
:109A8000F8780708347907088E790708E979070814
:109A900010B50446044B0549184669F0A5FF214658
:109AA000BDE8104052F0CDBAA5B80020277A0708CB
:109AB00070B58EB005460CA85CF01BFA0CA807F038
:109AC000D1FA04460DF12E030DF12D020BA90DF173
:109AD0002B005CF0C5FABDF82E30134E08939DF8AC
:109AE0002D30124A07939DF82C304FF47A7106936B
:109AF0009DF82B30304605930D4B099404930D4B84
:109B000003930D4B02930D4B01930D4B00930D4BA3
:109B10001CF0B8FC204653F047FA2946304652F074
:109B200090FA0EB070BD00BFA5B800202B7A0708D0
:109B3000EBB600203BB70020D2B600200C7007081F
:109B4000B7B70020AFB7002070B59AB004460DF14A
:109B500017005CF0F8F902F073FE02F04BFE2821CA
:109B6000024606A81CF08EFC02F06AFE104A10AEF7
:109B7000D2E90032C01A61EB020102F03BFE28215B
:109B8000024630461CF07EFC9DF81730094D0293CA
:109B9000094B0A4ACDE900634FF47A7106AB2846B7
:109BA0001CF070FC2146284652F04BFA1AB070BDEA
:109BB00088140020A5B80020A7B70020D57A070890
:109BC000012210B50446064B06491A70064B18468A
:109BD00069F00AFF2146BDE8104052F032BA00BFDA
:109BE000C0B700202D7B0708A5B8002010B50A4B90
:109BF00004461A785AB14FF47A71084A08481CF0A2
:109C000041FC2146BDE81040054852F01ABA05490A
:109C1000034869F0E9FEF4E731E20020EC86080829
:109C2000A5B80020487B070838B50446064D4FF418
:109C30007A712846054B064A1CF024FC214628462A
:109C4000BDE8384052F0FDB9A5B80020AFB70020FC
:109C5000EC86080838B50446064D4FF47A7128465C
:109C6000054B064A1CF00EFC21462846BDE838404C
:109C700052F0E7B9A5B80020B7B70020EC86080875
:109C800010B50446044B0549184669F0ADFE21465F
:109C9000BDE8104052F0D5B9A5B800200C700708F7
:109CA00038B50446064D4FF47A712846054B064AEE
:109CB0001CF0E8FB21462846BDE8384052F0C1B907
:109CC000A5B80020D2B60020EC86080870B504467E
:109CD0008AB028220021684669F05EFFA389002B24
:109CE0003CD0204652F028FF0546A0B36A461D49E5
:109CF00051F0ECFD0646284652F0EDFE5EB3684694
:109D0000194969F067FE68B95CF02DF841F28831B5
:109D1000872004F03FF95CF0DBF852F01CFA0020D9
:109D20000AB070BD6846114969F054FE38B95CF05C
:109D30001AF841F28831872004F02CF9EDE76B46E0
:109D40000B4A4FF47A710B481CF09CFB21460948E2
:109D500052F077F9E4E76B46074AF2E7074B084A07
:109D6000EFE700BF5F7B0708647B07086E7B07088F
:109D7000787B0708A5B800208D7B07083BB700203B
:109D8000EC86080838B50446064D4FF47A7128462B
:109D9000054B064A1CF076FB21462846BDE83840B4
:109DA00052F04FB9A5B80020EBB60020EC860808A9
:109DB00038B5044602F044FD02F01CFD064D034692
:109DC0004FF47A712846054A1CF05CFB2146284670
:109DD000BDE8384052F035B9A5B80020EC86080837
:109DE00038B50446074DFEF715F94FF47A71284649
:109DF000054B064A1CF046FB21462846BDE8384084
:109E000052F01FB9A5B80020A7B70020EC860808BB
:109E1000002313B5019383890446B3B10F498069C8
:109E200001AA51F053FD80B19DF80400FFF786FDB3
:109E300003460B4A4FF47A710A481CF023FB214673
:109E4000084852F0FEF802B010BD0DF103005CF0BE
:109E50007AF89DF80330044AECE700BFD0D0080838
:109E6000EC860808A5B80020A47B070830B5044696
:109E7000114B8BB0D3E90A01CDE90801D3E9080100
:109E8000CDE90601D3E90601CDE90401D3E90401D6
:109E9000CDE90201094DD3E902234FF47A71CDE9EE
:109EA00000232846064A1CF0EDFA214628460BB04E
:109EB000BDE8304052F0C5B808140020A5B8002015
:109EC000B77B07087FB583890446E3B91E23ADF845
:109ED0000C30FA23ADF80E30BDF80E30134A009363
:109EE0004FF47A71BDF80C3011481CF0CBFABDF874
:109EF0000E10BDF80C0052F0A3F821460C4852F0A9
:109F0000A0F804B070BD52F017FE05460028DDD061
:109F100008490DF10E0303AA51F0D8FC0646284665
:109F200052F0D9FD022ED1D1D6E700BFDA7B070867
:109F3000A5B80020D27B070838B5838905463BB316
:109F400052F0FAFD044618B3124907F09BFC78B9A9
:109F5000204652F0C0FD104853F0EDF90F4910486B
:109F600069F042FD2946BDE838400D4852F069B815
:109F700020460C4907F086FC38B9204652F0ABFD6C
:109F8000054853F0DBF90849E9E7204652F0A3FD04
:109F90000649E4E7027C07087CB40708097C070847
:109FA000A5B80020177C07081F7C07082E7C07082F
:109FB00038B50446064D4FF47A712846054B064ADB
:109FC0001CF060FA21462846BDE8384052F039B806
:109FD000A5B80020D0AE0020EC8608080023F7B515
:109FE0000193838904460F4F73B152F0A5FD0546D6
:109FF00050B10D4901AA51F069FC0646284652F0BD
:10A000006AFD0EB1019B3B813B89084A4FF47A718E
:10A0100007481CF037FA2146054852F012F803B001
:10A02000F0BD00BFD4230020D0D00808C80909081B
:10A03000A5B800200023F7B50127CDE900331F4E56
:10A04000838905463760BBB152F076FD044680B186
:10A050006B461B4901AA51F039FC02281CD19DF81E
:10A060000010184B3A469DF80400197002F02EF9C2
:10A070003060204652F02FFD3368E3B9114B124A8D
:10A080001B784FF47A7111481CF0FCF929460F48EF
:10A0900051F0D7FF03B0F0BD0D496A46204651F09C
:10A0A00015FC01280146E4D19DF80000054B18700D
:10A0B00002F0E4F8DCE7074AE3E700BFCC23002026
:10A0C000FC89070874240120C8090908A5B80020E4
:10A0D000D0D008085A7C070870B5002106468CB01D
:10A0E000282202A8019169F057FDB3895BB330467D
:10A0F00052F022FD054678B3184901AB02AA51F08F
:10A10000E5FB022815D1019902A801F007FC0446DD
:10A11000284652F0E0FCBCB9019B114A4FF47A7119
:10A1200010481CF0AFF931460E4851F08AFF0CB0D0
:10A1300070BD28460C4902AA51F0C8FB012806D080
:10A14000284652F0C8FC0F242346084AE6E701A936
:10A1500002A801F0DFFCDAE71924F5E7797C0708AB
:10A16000C8090908A5B800205F7B0708817C07089B
:10A1700038B583890546B3B152F0DEFC044640B1E0
:10A1800002464FF47A710B4801F0FEFF204652F070
:10A19000A2FC0949094869F027FC2946BDE8384076
:10A1A000064851F04EBF4FF47A71054A014801F05C
:10A1B000EBFFEEE7576C07088F7C0708A5B8002077
:10A1C00066F1070810B5044602F052F8044B054941
:10A1D000184669F009FC2146BDE8104051F031BF36
:10A1E000A5B80020977C070838B5044602F0E2FFC6
:10A1F000064D02464FF47A7128461CF043F9214679
:10A200002846BDE8384051F01CBF00BFA5B800206B
:10A2100038B5044602F01EFE064D02464FF47A7130
:10A2200028461CF02FF921462846BDE8384051F059
:10A2300008BF00BFA5B8002038B5044602F026FECE
:10A24000064D02464FF47A7128461CF01BF9214650
:10A250002846BDE8384051F0F4BE00BFA5B8002044
:10A26000828908B542B10549806969F0EEFB18B9E9
:10A27000FDF740FE012008BD0020FCE79F7C070899
:10A2800037B504460A4B0B4D1B884FF47A71009387
:10A29000094B0A4A1B8828461CF0F4F82046FFF7B1
:10A2A000DFFF2146284603B0BDE8304051F0C9BE6B
:10A2B000CCA50020A5B80020CEA50020A57C0708CD
:10A2C00038B5044602F0BCFA0C4A0D4DD2E9003212
:10A2D000C01A61EB020102F08DFA4FF47A71034665
:10A2E000084A28461CF0CEF82046FFF7B9FF214661
:10A2F0002846BDE8384051F0A4BE00BF88140020B5
:10A30000A5B80020EC86080870B5044602F098FA5B
:10A310000F4E104AD6E90056D2E900325B1B62EBC1
:10A320000602181842EB010102F064FA0A4D0346D6
:10A330004FF47A712846094A1CF0A4F82046FFF72A
:10A340008FFF21462846BDE8704051F07ABE00BF1D
:10A350008814002078140020A5B80020EC86080896
:10A3600038B50B4B0446D3E9000102F043FA094D1E
:10A3700003464FF47A712846074A1CF083F82046BA
:10A38000FFF76EFF21462846BDE8384051F059BE20
:10A3900070140020A5B80020EC8608082DE9F743CA
:10A3A000064602F04DFADFF89890DFF89880D9E978
:10A3B0000032D8E900545B1B62EB0402181842EB30
:10A3C000010150F07BF900221A4B50F0ADF9044620
:10A3D0000D4602F035FAD9E90032DFF86CE0164F8D
:10A3E000DEE900CE13EB0C0342EB0E02D8E900CEFF
:10A3F000B3EB0C0362EB0E02181842EB010150F0B4
:10A400005DF90B4602462946204650F0B7FA0B4A42
:10A41000CDE900014FF47A7138461CF033F830462C
:10A42000FFF71EFF3146384603B0BDE8F04351F058
:10A4300008BE00BF00005940A5B80020AD7C070849
:10A440007814002088140020701400202DE9F04FAB
:10A45000A7B0834602F0F4F9414D424CD5E90032F1
:10A46000D4E900679B1B62EB0702181842EB01015D
:10A4700002F0C0F90DF148093B4F02462821484639
:10A480001CF000F8D7E9000102F0B4F90DF1700AF0
:10A490000246282150461BF0F5FF02F0D1F9D5E91C
:10A4A00000322668DFF8D8809B1B666862EB0602E4
:10A4B000181842EB010150F001F900222B4B50F02B
:10A4C00033F9CDE9100102F0BBF9D5E90032D7E943
:10A4D00000575B1942EB0702D4E900545B1B62EBA7
:10A4E0000402181842EB010150F0E8F802460B464E
:10A4F000DDE9100150F042FA50F0F8FB50F0BCF8E2
:10A50000CDE90C9ACDE90E01194B1B880B93194B21
:10A510001B880A93184BD3E90A01CDE90801D3E956
:10A520000801CDE90601D3E90601CDE90401D3E92B
:10A530000401CDE902014FF47A71D3E902234046C8
:10A54000CDE900230D4A1BF09DFF5846FFF788FE1A
:10A550005946404651F075FD27B0BDE8F08F00BF69
:10A560007814002088140020701400200000594046
:10A57000CCA50020CEA5002008140020B37C07083D
:10A58000A5B8002084B013B504AC84E80F00084CD3
:10A5900003460192009120464FF47A71054A1BF060
:10A5A00071FF204602B0BDE8104004B0704700BF04
:10A5B000A5B80020717D070884B010B590B012AC2A
:10A5C00084E80F009DF89030164C0F93219B029267
:10A5D0000E93209B20460D931F9B134A0C931E9BAA
:10A5E0000B931D9B0A931C9B09931B9B08931A9B1F
:10A5F0000793199B0693189B0593169B0493159B31
:10A6000003930191BDF84A304FF47A710093BDF87D
:10A6100048301BF037FF204610B0BDE8104004B0B2
:10A62000704700BFA5B80020BB7D070884B010B5F7
:10A6300086B008AC84E80F000493BDF926300B4CBB
:10A640000293BDF8243003920193BDF822304FF4F9
:10A650007A7100932046BDF92030054A1BF012FFA5
:10A66000204606B0BDE8104004B07047A5B80020F1
:10A67000797F070884B013B504AC84E80F00074C59
:10A680000B4600904FF47A712046054A1BF0FAFE03
:10A69000204602B0BDE8104004B07047A5B80020C5
:10A6A0001C80070884B010B59CB01EAC84E80F0075
:10A6B000BDF8DE30214C1A93BDF8DC301993BDF89B
:10A6C000DA301893BDF8D8301793359B1693349B26
:10A6D0001593339B1493329B1393319B1293309BAE
:10A6E00011932F9B10932E9B0F932D9B0E932C9BBE
:10A6F0000D932B9B01920C932A9B00910B93299B0A
:10A700004FF47A710A93289B0D4A0993279B08936B
:10A71000269B0793259B0693249B0593239B0493D9
:10A72000229B0393219B0293034620461BF0AAFE23
:10A7300020461CB0BDE8104004B07047A5B800200A
:10A74000628007088A8910B50B4604464AB106495B
:10A75000986969F07AF920B920465BF0E2FB0120A4
:10A7600010BD0020FCE700BF9F7C070830B50F4CF0
:10A770009BB00546214600205BF04CFB0C4B04F1DE
:10A78000100118606422684669F052F994E80F00DD
:10A79000FFF7F8FE29460020FFF7D4FF29460548B9
:10A7A0001BB0BDE8304051F04CBC00BF5823002026
:10A7B000CC230020A5B8002030B50F4C9BB0054637
:10A7C000214601205BF026FB0C4B04F110011860C0
:10A7D0006422684669F02CF994E80F00FFF7ECFE5C
:10A7E00029460120FFF7AEFF294605481BB0BDE80A
:10A7F000304051F026BC00BF58230020CC2300205D
:10A80000A5B8002030B50F4C9BB00546214602206C
:10A810005BF000FB0C4B04F11001186064226846E9
:10A8200069F006F994E80F00FFF700FF29460220BF
:10A83000FFF788FF294605481BB0BDE8304051F0BE
:10A8400000BC00BF58230020CC230020A5B8002066
:10A8500030B50F4C9BB00546214603205BF0DAFA79
:10A860000C4B04F1100118606422684669F0E0F8AE
:10A8700094E80F00FFF7FEFE29460320FFF762FF72
:10A88000294605481BB0BDE8304051F0DABB00BF97
:10A8900058230020CC230020A5B8002030B50F4C51
:10A8A0009BB00546214604205BF0B4FA0C4B04F142
:10A8B000100118606422684669F0BAF894E80F0045
:10A8C000FFF7F0FE29460420FFF73CFF2946054824
:10A8D0001BB0BDE8304051F0B4BB00BF582300208E
:10A8E000CC230020A5B8002070B50D4E044631469B
:10A8F00005205BF08FFA0B4D0B4B4FF47A7118600B
:10A900000A4A336828461BF0BDFD21460520FFF7A3
:10A9100019FF21462846BDE8704051F092BB00BFA8
:10A9200058230020A5B80020CC2300209C830708D2
:10A930002DE9F04F012789B01422002103A869F006
:10A940002BF9DFF834B3DFF83483A04B6846CDE948
:10A950000188CDF800B004938DF80C7004F006FB6C
:10A9600030B140F28D319A4B9A4A9B4802F0FCFE7E
:10A970009A4B9B4E9B4C00939B4B684601960294CE
:10A9800004938DF80C7004F0F1FA20B140F2973185
:10A990008F4B904AE9E7954BDFF8E4A20093944B84
:10A9A0006846CDE901A404938DF80C7004F0DEFA3A
:10A9B00020B140F29F31864B864AD6E78D4B6846E0
:10A9C000CDE9003A8C4B029404938DF80C7004F09E
:10A9D000CDFA20B140F2A7317D4B7E4AC5E7874BC7
:10A9E00068460093864B8DF80C70CDE90134854B99
:10A9F000049304F0BBFA20B140F2AF31744B754AB6
:10AA0000B3E7814B814D0093814B6846CDE90154FA
:10AA100004938DF80C7004F0A9FA20B140F2B7311C
:10AA20006B4B6C4AA1E77B4B6846CDE900357A4B0E
:10AA3000029404938DF80C7004F098FA20B140F25F
:10AA4000BF31634B634A90E7744B6846CDE90035EC
:10AA5000734B029404938DF80C7004F087FA20B1C4
:10AA600040F2C7315A4B5B4A7FE76E4B6846CDE9EF
:10AA700000366D4B029404938DF80C7004F076FA56
:10AA800020B140F2CF31524B524A6EE7674B6846D5
:10AA9000CDE90035664B029404938DF80C7004F0F8
:10AAA00065FA20B140F2D731494B4A4A5DE70127A8
:10AAB000604BDFF8D09100935F4B6846CDE901947D
:10AAC00004938DF80C7004F051FA20B140F2DF319C
:10AAD0003F4B404A49E7594B6846CDE9003A584B4D
:10AAE000029404938DF80C7004F040FA20B140F207
:10AAF000E731374B374A38E7524B6846CDE90036E5
:10AB0000514B029404938DF80C7004F02FFA20B18D
:10AB100040F2EF312E4B2F4A27E74C4B6846CDE9E8
:10AB200000394B4B029404938DF80C7004F01EFA1C
:10AB300020B14FF47E71264B264A16E7454B6846F6
:10AB40000093454B8DF80C70CDE90134434B0493D1
:10AB500004F00CFA20B14FF480611D4B1D4A04E74C
:10AB60003F4B6846CDE900393E4B029404938DF883
:10AB70000C7004F0FBF920B14FF48161144B154ABD
:10AB8000F3E6394BDFF800A10093384B6846CDE976
:10AB900001A404938DF80C7004F0E8F920B14FF48F
:10ABA00082610B4B0B4AE0E6314B6846CDE9003938
:10ABB000304B029404938DF80C7004F0D7F9002800
:10ABC00064D04FF48361024B024ACEE6399F0008FD
:10ABD000D28307087C8707081284070820840708A7
:10ABE0002A8407082F840708B19A000834840708CC
:10ABF000299C000845840708559C000850840708D4
:10AC00005C840708819C000860840708A23E09084C
:10AC1000A19C000872840708CD9C00088484070862
:10AC2000859D000892840708499B00089E840708B8
:10AC3000C19B0008AB840708B19D0008C0840708C9
:10AC4000E19D0008CF840708119E0008E0840708F2
:10AC5000C1A20008F2840708128507086D9E00084B
:10AC60001885070861A300083B85070881A2000832
:10AC70005B85070809A30008BF830708CD83070881
:10AC800041840708BB84070857850708984B684626
:10AC90000093984B8DF80C70CDE90134964B0493DA
:10ACA00004F064F920B14FF48461944B944A5CE65B
:10ACB000944B6846CDE90038934BCDF80880049357
:10ACC0008DF80C7004F052F920B140F229418B4B01
:10ACD0008B4A4AE601278D4B6846CDE900B8CDF88E
:10ACE000088004938DF80C7004F040F920B140F214
:10ACF0003241824B824A38E6854B6846CDE90035C1
:10AD0000844B029404938DF80C7004F02FF920B159
:10AD100040F23C41794B7A4A27E67F4B6846CDE9C1
:10AD200000367E4B029404938DF80C7004F01EF9EB
:10AD300020B140F24741714B714A16E6784B6846A4
:10AD4000CDE90036774B8DF80C700293764B049367
:10AD500004F00CF920B14FF48A61684B684A04E6AC
:10AD6000724B6846CDE90036714B8DF80C7002933A
:10AD7000704B049304F0FAF820B14FF48B615F4BF1
:10AD80005F4AF2E56C4B6846CDE900366B4B8DF8B7
:10AD90000C7002936A4B049304F0E8F820B14FF46E
:10ADA0008C61564B564AE0E5664B6846CDE9003665
:10ADB000654B8DF80C700293644B049304F0D6F845
:10ADC00020B14FF48D614D4B4D4ACEE5604B684646
:10ADD000CDE900365F4B8DF80C7002935E4B049307
:10ADE00004F0C4F820B14FF48E61444B444ABCE5F2
:10ADF0005A4B6846CDE90036594B8DF80C700293DA
:10AE0000584B049304F0B2F820B14FF48F613B4BE0
:10AE10003B4AAAE5544B554E0093554B6846019367
:10AE2000544B029604938DF80C7004F09FF820B1F7
:10AE300040F28141314B324A97E501244E4B68463E
:10AE400000934E4B8DF80C40CDE901364C4B0493EA
:10AE500004F08CF820B140F28941284B284A84E55F
:10AE6000484B6846CDE9003A474B029604938DF86B
:10AE70000C4004F07BF820B140F293411F4B204A74
:10AE800073E5424B6846CDE90035414B0296049389
:10AE90008DF80C4004F06AF820B140F29C41174B49
:10AEA000174A62E53B4B6846CDE900353A4B8DF8D1
:10AEB0000C400293394B049304F058F820B140F24F
:10AEC000A5410E4B0E4A50E5354B364ECDE90035C7
:10AED000354B6846029604938DF80C4004F046F812
:10AEE000002863D040F2AD41044B054A3DE500BF68
:10AEF0007B850708988507089DA30008D28307086B
:10AF00007C8707089E850708C59E0008399F0008B2
:10AF1000AA850708B19F0008B38507084DA400085B
:10AF2000C7850708147808086DA70008DD8507089D
:10AF3000EF850708B9A70008F38507080586070805
:10AF400005A800080A8607081C86070851A80008FB
:10AF500022860708211509089DA800083C860708D5
:10AF6000E7B10808E9A80008598607086D860708B0
:10AF700013900708DD9F000876860708509A080896
:10AF800035A000088C860708D9A00008A08607080D
:10AF9000919A0008BE860708CE860708ED9B000838
:10AFA000D7860708E786070871A10008264B684680
:10AFB000CDE90035254B029604938DF80C4003F043
:10AFC000D5FF20B140F2B541214B224ACDE4224BBE
:10AFD000224ECDE90035224B6846029604938DF847
:10AFE0000C4003F0C3FF20B14FF49861184B194A8D
:10AFF000BBE41C4B6846CDE900351B4B029604931D
:10B000008DF80C4003F0B2FF20B14FF49961104B62
:10B01000104AAAE4154B6846CDE90035144B029658
:10B0200004938DF80C4003F0A1FF20B14FF49A6116
:10B03000074B084A99E4322227210E481BF0FAF9FF
:10B04000272009B0BDE8F08FEC860708C5A10008ED
:10B05000D28307087C870708FB8607081187070843
:10B06000E9A100081F87070811A200083187070817
:10B0700039A2000845870708F0B5074689B01822AD
:10B08000002102A868F088FD454D002F59D00BF033
:10B0900019F80026431F5842424C584100020390C1
:10B0A0002068079608B115F013F84FF4A0530493E5
:10B0B0004FF48853ADF808303B4B202205933B49B1
:10B0C000384B02A8266057F0E9FA0646E0B103467D
:10B0D0004FF4AF61364A28681BF0D4F950F0C6FF30
:10B0E0002B6802463349002059F096FD50F0BEFF10
:10B0F0002A6801462F481BF09DF9012402A858F048
:10B1000017F9204609B0F0BD20685BF038F8044616
:10B11000002833D033464FF4AF61274A28681BF02C
:10B12000B1F950F0A3FF2B6802462249002059F0E4
:10B1300073FD50F09BFF2A6801461E481BF07AF908
:10B14000DCE738465AF0EBFF0446F8B928681B4B99
:10B150004FF4AF611A4A1BF095F950F087FF2B6846
:10B1600002461449002059F057FD50F07FFF2A682D
:10B17000014610481BF05EF90024BFE701205AF099
:10B18000CEFF044610B928680E4BE1E700943B4619
:10B190004FF4AF610C4A28681BF074F9C1E700BF97
:10B1A00088240020D023002005008003752401207E
:10B1B00094870708EF6B0708BD8707080182080816
:10B1C0002C880708EB810808F7870708F0B5837813
:10B1D0000446942B8DB01AD0952B5AD05F4C4FF467
:10B1E000AF615F4A20681BF04DF950F03FFF2368C4
:10B1F00002465C49002059F00FFD50F037FF014630
:10B20000226858480DB0BDE8F0401BF013B9534D0B
:10B21000043402AE3146204605F09CFD33464FF41F
:10B22000AF61514A28681BF02DF950F01FFF2B68C1
:10B2300002464C49002059F0EFFC50F017FF2A68F5
:10B24000014648481BF0F6F820465AF07BFFB8B993
:10B2500033464FF4AF61454A28681BF013F950F0AC
:10B2600005FF404902462B68002059F0D5FC50F0FC
:10B27000FDFE01462A683B481BF0DCF80DB0F0BD2E
:10B28000009603464FF4AF61394A28681BF0FAF87C
:10B29000E5E702AD2946043005F05CFD6669012E44
:10B2A00035D0022E3CD0002EE8D1324F2B4C284610
:10B2B000314A396800F068FF2B464FF4AF612F4ADE
:10B2C00020681BF0DFF850F0D1FE236802462549C4
:10B2D000304659F0A1FC50F0C9FE226801462148D1
:10B2E0001BF0A8F800954FF4AF613B68244A206832
:10B2F0001BF0C8F850F0BAFE1A4902462368002035
:10B3000059F08AFC50F0B2FE22680146B3E7134CB4
:10B310002B464FF4AF611B4A20681BF0B3F8E9E7F6
:10B320000E4C00F0A5FF2B464FF4AF61164A206883
:10B330001BF0A8F850F09AFE236802460949002045
:10B3400059F06AFC50F092FE2268014605481BF055
:10B3500071F80E49206868F047FBCBE7882400208D
:10B3600086890708EF6B0708408807086888070880
:10B3700090880708901C012066F10708D08807080C
:10B38000F88807082089070840890708678907089F
:10B390001FB5002304464FF48061CDE902332F4AE4
:10B3A00003462F481BF06EF820462E4902AB03AA35
:10B3B00050F08CFA022812D101229DF808109DF855
:10B3C0000C0000F083FF029B4FF480610093264A3B
:10B3D000039B23481BF056F8214804B010BD2046BB
:10B3E000224902AA50F072FA012818D1029B0121C9
:10B3F000032B0393C4BF032302939DF8080000F0BE
:10B400003DFFDDE90223934218BF13464FF48061EC
:10B4100014BF174A174A12481BF034F8DCE72046DD
:10B42000154968F0D7FA20B914490D4868F0DCFADC
:10B43000D2E72046124968F0CDFA08B91149F4E77D
:10B440002046114968F0C6FA0028C5D10F4B1048B4
:10B450001A78002A18BF1846BFE700BFC28907083C
:10B460008DBC0020E6890708028A0708288A070899
:10B47000418A0708B38A0708DB8A0708EF8A0708AA
:10B480000B8B0708208B07083C8B070831E2002054
:10B49000487B070800B58BB002F0E2F9FFF748FAE5
:10B4A0002022002102A868F077FB0D4B182201939F
:10B4B0004FF420530B49CDE906320B480B4A1AF0E2
:10B4C000B9FF00210A4801AA0AF098FF28B95C21B7
:10B4D000084B094A034802F047F90BB05DF804FB3A
:10B4E0004F8B0708588B0708668B0708DB8B07080C
:10B4F000598A0008BF8B0708D28B0708F8B50020CF
:10B5000005F0F8FC00250446074F6E1C04B9F8BD91
:10B51000201D05F0B9FCE9B2024638461AF08AFF50
:10B5200035466469F1E700BFE48B070870B57C4CD1
:10B530007C4E4FF4AF6133687B4A20681AF0A2FF5B
:10B5400050F094FD794D236802462946002059F0B9
:10B5500063FB50F08BFD2268014628461AF06AFF13
:10B56000B3884FF4AF61724A20681AF08BFF50F035
:10B570007DFD236802462946002059F04DFB50F01E
:10B5800075FD2268014628461AF054FFF3884FF4EF
:10B59000AF61684A20681AF075FF50F067FD2368B4
:10B5A00002462946002059F037FB50F05FFD226823
:10B5B000014628461AF03EFF33894FF4AF615E4AD8
:10B5C00020681AF05FFF50F051FD236802462946BB
:10B5D000002059F021FB50F049FD22680146284621
:10B5E0001AF028FF73894FF4AF61544A20681AF0AB
:10B5F00049FF50F03BFD236802462946002059F0E0
:10B600000BFB50F033FD2268014628461AF012FF6A
:10B61000337B4FF4AF614A4A20681AF033FF50F091
:10B6200025FD236802462946002059F0F5FA50F01E
:10B630001DFD2268014628461AF0FCFE737B4FF47C
:10B64000AF61404A20681AF01DFF50F00FFD2368DB
:10B6500002462946002059F0DFFA50F007FD226823
:10B66000014628461AF0E6FEB6F90E304FF4AF61F7
:10B67000354A20681AF006FF50F0F8FC23680246AD
:10B680002946002059F0C8FA50F0F0FC2268014623
:10B6900028461AF0CFFE337C4FF4AF612B4A206866
:10B6A0001AF0F0FE50F0E2FC236802462946002022
:10B6B00059F0B2FA50F0DAFC2268014628461AF036
:10B6C000B9FE737C4FF4AF61214A20681AF0DAFEAC
:10B6D00050F0CCFC236802462946002059F09CFA21
:10B6E00050F0C4FC2268014628461AF0A3FE738A73
:10B6F0004FF4AF61174A20681AF0C4FE50F0B6FC50
:10B70000294602462368002059F086FA50F0AEFC24
:10B71000226801462846BDE870401AF08BBE00BF83
:10B7200088240020D4230020F48B0708EF6B07083F
:10B730001D8C0708458C07086D8C0708958C070839
:10B74000BD8C0708E58C07080D8D0708358D0708A7
:10B750005D8D0708858D070842F21072044B05487D
:10B760001A600022C3E90202034A1A61704700BF4F
:10B77000D42300208403FFFF1620F40137B51748B7
:10B7800014234FF21201164A006807F0DFFE044648
:10B79000E0B11423134D2D2C2868009301944FF22F
:10B7A000120316D1104A4FF4AF611AF06BFE50F03D
:10B7B0005DFC0E4902462B68002059F02DFA50F02E
:10B7C00055FC2A68014609481AF034FE204603B0A9
:10B7D00030BD632C0CBF064A064AE4E78C1F0120EB
:10B7E000D423002088240020B48D0708EF6B0708BD
:10B7F000298E0708D98E070837B5194814234FF248
:10B800001201184A006808F029F8174D0446E0B103
:10B810001423019000934FF4AF614FF21203134AC7
:10B8200028681AF02FFE50F021FC024600202B68F9
:10B830000F4959F0F1F950F019FC2A6801460C48FB
:10B840001AF0F8FD204603B030BD0A49286868F0B8
:10B85000CBF850F00BFC2B68024605492046E8E780
:10B860008C1F0120D4230020882400203E8F07084D
:10B87000EF6B0708A48F0708F8B508F0D3F9044662
:10B88000A8B1214D2149286868F0AEF850F0EEFBD0
:10B890001F4902462B68002059F0BEF950F0E6FB24
:10B8A0002A6801461A481AF0C5FD2046F8BDFFF780
:10B8B00065FF184E48B9FFF739FE0025728A717C82
:10B8C000307C5AF08CFB2C46EFE7FFF745FF012355
:10B8D0007360FFF791FF0C4F0F490546386868F019
:10B8E00083F850F0C3FB0A4902463B68204659F0F2
:10B8F00093F950F0BBFB3A68014605481AF09AFDEF
:10B90000002DD8D0DAE700BF88240020C28F0708B6
:10B91000EF6B0708D4230020DB8F07082DE9F341E4
:10B920000C466A49064605F0ADFF694D28B330461E
:10B93000684905F0A7FF0746002839D1DFF8A08144
:10B94000A0B2A8F80A005AF02CFCB8F80A304FF45C
:10B95000AF61614A28681AF095FD50F087FB2B68AB
:10B9600002465E49384659F057F950F07FFB2A6885
:10B9700001465A481AF05EFD01E0594B1C810094C3
:10B9800033464FF4AF61574A28681AF07BFD50F0F8
:10B990006DFB2B6802465149002059F03DF950F0EB
:10B9A00065FB2A6801464D481AF044FD002089E0F5
:10B9B00030464D4905F066FF20B9494B04B91C7368
:10B9C0001C7BDCE73046494905F05CFF0028F4D0D9
:10B9D0003046474905F056FF58B13046454905F015
:10B9E00051FF48B9FFF7B8FE002CC8D0FFF704FF9D
:10B9F000C5E73B4BDC81C2E730463F4905F042FFDB
:10BA000050B330463D4905F03DFF40B330463C4918
:10BA100005F038FF30B330463A4905F033FF20BB1C
:10BA200023464FF4AF61384A28681AF02BFD50F0D6
:10BA30001DFB024600202B68284959F0EDF850F014
:10BA400015FB2A68014625481AF0F4FC20466AF0E6
:10BA5000D2F853F0C4FE92E7214B1C748FE7204BC1
:10BA60005C748CE71E4B5C8289E73046274905F001
:10BA700009FF074678B95AF02BFA23464FF4AF6115
:10BA8000214A28681AF0FEFC50F0F0FA2B680246B2
:10BA900012493846D1E733464FF4AF611C4A286853
:10BAA0001AF0F0FC50F0E2FA2B6802460B49002035
:10BAB00059F0B2F850F0DAFA2A68014607481AF04D
:10BAC000B9FC0F2002B0BDE8F08100BF0990070863
:10BAD000882400201790070888720708EF6B070872
